{"abi":[{"type":"constructor","inputs":[{"name":"name_","type":"string","internalType":"string"},{"name":"symbol_","type":"string","internalType":"string"},{"name":"decimals_","type":"uint8","internalType":"uint8"}],"stateMutability":"nonpayable"},{"type":"function","name":"DOMAIN_SEPARATOR","inputs":[],"outputs":[{"name":"","type":"bytes32","internalType":"bytes32"}],"stateMutability":"view"},{"type":"function","name":"allowance","inputs":[{"name":"","type":"address","internalType":"address"},{"name":"","type":"address","internalType":"address"}],"outputs":[{"name":"","type":"uint256","internalType":"uint256"}],"stateMutability":"pure"},{"type":"function","name":"approve","inputs":[{"name":"","type":"address","internalType":"address"},{"name":"","type":"uint256","internalType":"uint256"}],"outputs":[{"name":"","type":"bool","internalType":"bool"}],"stateMutability":"pure"},{"type":"function","name":"balanceOf","inputs":[{"name":"account","type":"address","internalType":"address"}],"outputs":[{"name":"","type":"uint256","internalType":"uint256"}],"stateMutability":"view"},{"type":"function","name":"balanceOfIsIndicator","inputs":[],"outputs":[{"name":"","type":"bool","internalType":"bool"}],"stateMutability":"view"},{"type":"function","name":"burn","inputs":[{"name":"account","type":"address","internalType":"address"},{"name":"value","type":"uint64","internalType":"uint64"}],"outputs":[],"stateMutability":"nonpayable"},{"type":"function","name":"confidentialBalanceOf","inputs":[{"name":"account","type":"address","internalType":"address"}],"outputs":[{"name":"","type":"uint256","internalType":"euint64"}],"stateMutability":"view"},{"type":"function","name":"confidentialTotalSupply","inputs":[],"outputs":[{"name":"","type":"uint256","internalType":"euint64"}],"stateMutability":"view"},{"type":"function","name":"confidentialTransfer","inputs":[{"name":"to","type":"address","internalType":"address"},{"name":"inValue","type":"tuple","internalType":"struct Euint64","components":[{"name":"ctHash","type":"uint256","internalType":"uint256"},{"name":"securityZone","type":"uint8","internalType":"uint8"},{"name":"utype","type":"uint8","internalType":"uint8"},{"name":"signature","type":"bytes","internalType":"bytes"}]}],"outputs":[{"name":"transferred","type":"uint256","internalType":"euint64"}],"stateMutability":"nonpayable"},{"type":"function","name":"confidentialTransfer","inputs":[{"name":"to","type":"address","internalType":"address"},{"name":"value","type":"uint256","internalType":"euint64"}],"outputs":[{"name":"transferred","type":"uint256","internalType":"euint64"}],"stateMutability":"nonpayable"},{"type":"function","name":"confidentialTransferAndCall","inputs":[{"name":"to","type":"address","internalType":"address"},{"name":"value","type":"uint256","internalType":"euint64"},{"name":"data","type":"bytes","internalType":"bytes"}],"outputs":[{"name":"transferred","type":"uint256","internalType":"euint64"}],"stateMutability":"nonpayable"},{"type":"function","name":"confidentialTransferAndCall","inputs":[{"name":"to","type":"address","internalType":"address"},{"name":"inValue","type":"tuple","internalType":"struct Euint64","components":[{"name":"ctHash","type":"uint256","internalType":"uint256"},{"name":"securityZone","type":"uint8","internalType":"uint8"},{"name":"utype","type":"uint8","internalType":"uint8"},{"name":"signature","type":"bytes","internalType":"bytes"}]},{"name":"data","type":"bytes","internalType":"bytes"}],"outputs":[{"name":"transferred","type":"uint256","internalType":"euint64"}],"stateMutability":"nonpayable"},{"type":"function","name":"confidentialTransferFrom","inputs":[{"name":"from","type":"address","internalType":"address"},{"name":"to","type":"address","internalType":"address"},{"name":"inValue","type":"tuple","internalType":"struct Euint64","components":[{"name":"ctHash","type":"uint256","internalType":"uint256"},{"name":"securityZone","type":"uint8","internalType":"uint8"},{"name":"utype","type":"uint8","internalType":"uint8"},{"name":"signature","type":"bytes","internalType":"bytes"}]}],"outputs":[{"name":"transferred","type":"uint256","internalType":"euint64"}],"stateMutability":"nonpayable"},{"type":"function","name":"confidentialTransferFrom","inputs":[{"name":"from","type":"address","internalType":"address"},{"name":"to","type":"address","internalType":"address"},{"name":"value","type":"uint256","internalType":"euint64"}],"outputs":[{"name":"transferred","type":"uint256","internalType":"euint64"}],"stateMutability":"nonpayable"},{"type":"function","name":"confidentialTransferFromAndCall","inputs":[{"name":"from","type":"address","internalType":"address"},{"name":"to","type":"address","internalType":"address"},{"name":"value","type":"uint256","internalType":"euint64"},{"name":"data","type":"bytes","internalType":"bytes"}],"outputs":[{"name":"transferred","type":"uint256","internalType":"euint64"}],"stateMutability":"nonpayable"},{"type":"function","name":"confidentialTransferFromAndCall","inputs":[{"name":"from","type":"address","internalType":"address"},{"name":"to","type":"address","internalType":"address"},{"name":"inValue","type":"tuple","internalType":"struct Euint64","components":[{"name":"ctHash","type":"uint256","internalType":"uint256"},{"name":"securityZone","type":"uint8","internalType":"uint8"},{"name":"utype","type":"uint8","internalType":"uint8"},{"name":"signature","type":"bytes","internalType":"bytes"}]},{"name":"data","type":"bytes","internalType":"bytes"}],"outputs":[{"name":"transferred","type":"uint256","internalType":"euint64"}],"stateMutability":"nonpayable"},{"type":"function","name":"decimals","inputs":[],"outputs":[{"name":"","type":"uint8","internalType":"uint8"}],"stateMutability":"view"},{"type":"function","name":"eip712Domain","inputs":[],"outputs":[{"name":"fields","type":"bytes1","internalType":"bytes1"},{"name":"name","type":"string","internalType":"string"},{"name":"version","type":"string","internalType":"string"},{"name":"chainId","type":"uint256","internalType":"uint256"},{"name":"verifyingContract","type":"address","internalType":"address"},{"name":"salt","type":"bytes32","internalType":"bytes32"},{"name":"extensions","type":"uint256[]","internalType":"uint256[]"}],"stateMutability":"view"},{"type":"function","name":"indicatorTick","inputs":[],"outputs":[{"name":"","type":"uint256","internalType":"uint256"}],"stateMutability":"view"},{"type":"function","name":"isFherc20","inputs":[],"outputs":[{"name":"","type":"bool","internalType":"bool"}],"stateMutability":"view"},{"type":"function","name":"isOperator","inputs":[{"name":"holder","type":"address","internalType":"address"},{"name":"spender","type":"address","internalType":"address"}],"outputs":[{"name":"","type":"bool","internalType":"bool"}],"stateMutability":"view"},{"type":"function","name":"mint","inputs":[{"name":"account","type":"address","internalType":"address"},{"name":"value","type":"uint64","internalType":"uint64"}],"outputs":[],"stateMutability":"nonpayable"},{"type":"function","name":"name","inputs":[],"outputs":[{"name":"","type":"string","internalType":"string"}],"stateMutability":"view"},{"type":"function","name":"nonces","inputs":[{"name":"owner","type":"address","internalType":"address"}],"outputs":[{"name":"","type":"uint256","internalType":"uint256"}],"stateMutability":"view"},{"type":"function","name":"permit","inputs":[{"name":"owner","type":"address","internalType":"address"},{"name":"spender","type":"address","internalType":"address"},{"name":"until","type":"uint48","internalType":"uint48"},{"name":"deadline","type":"uint256","internalType":"uint256"},{"name":"v","type":"uint8","internalType":"uint8"},{"name":"r","type":"bytes32","internalType":"bytes32"},{"name":"s","type":"bytes32","internalType":"bytes32"}],"outputs":[],"stateMutability":"nonpayable"},{"type":"function","name":"resetIndicatedBalance","inputs":[],"outputs":[],"stateMutability":"nonpayable"},{"type":"function","name":"setOperator","inputs":[{"name":"operator","type":"address","internalType":"address"},{"name":"until","type":"uint48","internalType":"uint48"}],"outputs":[],"stateMutability":"nonpayable"},{"type":"function","name":"setTotalIndicatedSupply","inputs":[{"name":"value","type":"uint16","internalType":"uint16"}],"outputs":[],"stateMutability":"nonpayable"},{"type":"function","name":"setUserIndicatedBalance","inputs":[{"name":"account","type":"address","internalType":"address"},{"name":"value","type":"uint16","internalType":"uint16"}],"outputs":[],"stateMutability":"nonpayable"},{"type":"function","name":"symbol","inputs":[],"outputs":[{"name":"","type":"string","internalType":"string"}],"stateMutability":"view"},{"type":"function","name":"totalSupply","inputs":[],"outputs":[{"name":"","type":"uint256","internalType":"uint256"}],"stateMutability":"view"},{"type":"function","name":"transfer","inputs":[{"name":"","type":"address","internalType":"address"},{"name":"","type":"uint256","internalType":"uint256"}],"outputs":[{"name":"","type":"bool","internalType":"bool"}],"stateMutability":"pure"},{"type":"function","name":"transferFrom","inputs":[{"name":"","type":"address","internalType":"address"},{"name":"","type":"address","internalType":"address"},{"name":"","type":"uint256","internalType":"uint256"}],"outputs":[{"name":"","type":"bool","internalType":"bool"}],"stateMutability":"pure"},{"type":"event","name":"Approval","inputs":[{"name":"owner","type":"address","indexed":true,"internalType":"address"},{"name":"spender","type":"address","indexed":true,"internalType":"address"},{"name":"value","type":"uint256","indexed":false,"internalType":"uint256"}],"anonymous":false},{"type":"event","name":"ConfidentialTransfer","inputs":[{"name":"from","type":"address","indexed":true,"internalType":"address"},{"name":"to","type":"address","indexed":true,"internalType":"address"},{"name":"value_hash","type":"uint256","indexed":false,"internalType":"uint256"}],"anonymous":false},{"type":"event","name":"EIP712DomainChanged","inputs":[],"anonymous":false},{"type":"event","name":"OperatorSet","inputs":[{"name":"holder","type":"address","indexed":true,"internalType":"address"},{"name":"operator","type":"address","indexed":true,"internalType":"address"},{"name":"until","type":"uint48","indexed":false,"internalType":"uint48"}],"anonymous":false},{"type":"event","name":"Transfer","inputs":[{"name":"from","type":"address","indexed":true,"internalType":"address"},{"name":"to","type":"address","indexed":true,"internalType":"address"},{"name":"value","type":"uint256","indexed":false,"internalType":"uint256"}],"anonymous":false},{"type":"error","name":"ECDSAInvalidSignature","inputs":[]},{"type":"error","name":"ECDSAInvalidSignatureLength","inputs":[{"name":"length","type":"uint256","internalType":"uint256"}]},{"type":"error","name":"ECDSAInvalidSignatureS","inputs":[{"name":"s","type":"bytes32","internalType":"bytes32"}]},{"type":"error","name":"ERC20InsufficientAllowance","inputs":[{"name":"spender","type":"address","internalType":"address"},{"name":"allowance","type":"uint256","internalType":"uint256"},{"name":"needed","type":"uint256","internalType":"uint256"}]},{"type":"error","name":"ERC20InsufficientBalance","inputs":[{"name":"sender","type":"address","internalType":"address"},{"name":"balance","type":"uint256","internalType":"uint256"},{"name":"needed","type":"uint256","internalType":"uint256"}]},{"type":"error","name":"ERC20InvalidApprover","inputs":[{"name":"approver","type":"address","internalType":"address"}]},{"type":"error","name":"ERC20InvalidReceiver","inputs":[{"name":"receiver","type":"address","internalType":"address"}]},{"type":"error","name":"ERC20InvalidSender","inputs":[{"name":"sender","type":"address","internalType":"address"}]},{"type":"error","name":"ERC20InvalidSpender","inputs":[{"name":"spender","type":"address","internalType":"address"}]},{"type":"error","name":"ERC2612ExpiredSignature","inputs":[{"name":"deadline","type":"uint256","internalType":"uint256"}]},{"type":"error","name":"ERC2612InvalidSigner","inputs":[{"name":"signer","type":"address","internalType":"address"},{"name":"owner","type":"address","internalType":"address"}]},{"type":"error","name":"FHERC20ConfidentialTransferFromOwnerMismatch","inputs":[{"name":"from","type":"address","internalType":"address"},{"name":"permitOwner","type":"address","internalType":"address"}]},{"type":"error","name":"FHERC20ConfidentialTransferFromSpenderMismatch","inputs":[{"name":"to","type":"address","internalType":"address"},{"name":"permitSpender","type":"address","internalType":"address"}]},{"type":"error","name":"FHERC20ConfidentialTransferFromValueHashMismatch","inputs":[{"name":"inValueHash","type":"uint256","internalType":"uint256"},{"name":"permitValueHash","type":"uint256","internalType":"uint256"}]},{"type":"error","name":"FHERC20IncompatibleFunction","inputs":[]},{"type":"error","name":"FHERC20InvalidReceiver","inputs":[{"name":"receiver","type":"address","internalType":"address"}]},{"type":"error","name":"FHERC20UnauthorizedSpender","inputs":[{"name":"from","type":"address","internalType":"address"},{"name":"spender","type":"address","internalType":"address"}]},{"type":"error","name":"FHERC20UnauthorizedUseOfEncryptedAmount","inputs":[{"name":"value","type":"uint256","internalType":"euint64"},{"name":"owner","type":"address","internalType":"address"}]},{"type":"error","name":"InvalidAccountNonce","inputs":[{"name":"account","type":"address","internalType":"address"},{"name":"currentNonce","type":"uint256","internalType":"uint256"}]},{"type":"error","name":"InvalidEncryptedInput","inputs":[{"name":"got","type":"uint8","internalType":"uint8"},{"name":"expected","type":"uint8","internalType":"uint8"}]},{"type":"error","name":"InvalidShortString","inputs":[]},{"type":"error","name":"SecurityZoneOutOfBounds","inputs":[{"name":"value","type":"int32","internalType":"int32"}]},{"type":"error","name":"StringTooLong","inputs":[{"name":"str","type":"string","internalType":"string"}]}],"bytecode":{"object":"0x610160604052348015610010575f5ffd5b50604051614c09380380614c0983398181016040528101906100329190610428565b82806040518060400160405280600181526020017f3100000000000000000000000000000000000000000000000000000000000000815250858585826005908161007c91906106c0565b50816006908161008c91906106c0565b508060075f6101000a81548160ff021916908360ff16021790555060048160ff1611156100d1576004816100c091906107bc565b600a6100cc919061091f565b6100d4565b60015b6008819055505050506100f160098361019060201b90919060201c565b610120818152505061010d600a8261019060201b90919060201c565b6101408181525050818051906020012060e08181525050808051906020012061010081815250504660a0818152505061014a6101dd60201b60201c565b608081815250503073ffffffffffffffffffffffffffffffffffffffff1660c08173ffffffffffffffffffffffffffffffffffffffff1681525050505050505050610b1b565b5f6020835110156101b1576101aa8361023760201b60201c565b90506101d7565b826101c18361029c60201b60201c565b5f0190816101cf91906106c0565b5060ff5f1b90505b92915050565b5f7f8b73c3c69bb8fe3d512ecc4cf759cc79239f7b179b0ffacaa9a75d522b39400f60e05161010051463060405160200161021c9594939291906109cf565b60405160208183030381529060405280519060200120905090565b5f5f829050601f8151111561028357826040517f305a27a900000000000000000000000000000000000000000000000000000000815260040161027a9190610a68565b60405180910390fd5b80518161028f90610ab5565b5f1c175f1b915050919050565b5f819050919050565b5f604051905090565b5f5ffd5b5f5ffd5b5f5ffd5b5f5ffd5b5f601f19601f8301169050919050565b7f4e487b71000000000000000000000000000000000000000000000000000000005f52604160045260245ffd5b610304826102be565b810181811067ffffffffffffffff82111715610323576103226102ce565b5b80604052505050565b5f6103356102a5565b905061034182826102fb565b919050565b5f67ffffffffffffffff8211156103605761035f6102ce565b5b610369826102be565b9050602081019050919050565b8281835e5f83830152505050565b5f61039661039184610346565b61032c565b9050828152602081018484840111156103b2576103b16102ba565b5b6103bd848285610376565b509392505050565b5f82601f8301126103d9576103d86102b6565b5b81516103e9848260208601610384565b91505092915050565b5f60ff82169050919050565b610407816103f2565b8114610411575f5ffd5b50565b5f81519050610422816103fe565b92915050565b5f5f5f6060848603121561043f5761043e6102ae565b5b5f84015167ffffffffffffffff81111561045c5761045b6102b2565b5b610468868287016103c5565b935050602084015167ffffffffffffffff811115610489576104886102b2565b5b610495868287016103c5565b92505060406104a686828701610414565b9150509250925092565b5f81519050919050565b7f4e487b71000000000000000000000000000000000000000000000000000000005f52602260045260245ffd5b5f60028204905060018216806104fe57607f821691505b602082108103610511576105106104ba565b5b50919050565b5f819050815f5260205f209050919050565b5f6020601f8301049050919050565b5f82821b905092915050565b5f600883026105737fffffffffffffffffffffffffffffffffffffffffffffffffffffffffffffffff82610538565b61057d8683610538565b95508019841693508086168417925050509392505050565b5f819050919050565b5f819050919050565b5f6105c16105bc6105b784610595565b61059e565b610595565b9050919050565b5f819050919050565b6105da836105a7565b6105ee6105e6826105c8565b848454610544565b825550505050565b5f5f905090565b6106056105f6565b6106108184846105d1565b505050565b5b81811015610633576106285f826105fd565b600181019050610616565b5050565b601f8211156106785761064981610517565b61065284610529565b81016020851015610661578190505b61067561066d85610529565b830182610615565b50505b505050565b5f82821c905092915050565b5f6106985f198460080261067d565b1980831691505092915050565b5f6106b08383610689565b9150826002028217905092915050565b6106c9826104b0565b67ffffffffffffffff8111156106e2576106e16102ce565b5b6106ec82546104e7565b6106f7828285610637565b5f60209050601f831160018114610728575f8415610716578287015190505b61072085826106a5565b865550610787565b601f19841661073686610517565b5f5b8281101561075d57848901518255600182019150602085019450602081019050610738565b8683101561077a5784890151610776601f891682610689565b8355505b6001600288020188555050505b505050505050565b7f4e487b71000000000000000000000000000000000000000000000000000000005f52601160045260245ffd5b5f6107c6826103f2565b91506107d1836103f2565b9250828203905060ff8111156107ea576107e961078f565b5b92915050565b5f8160011c9050919050565b5f5f8291508390505b6001851115610845578086048111156108215761082061078f565b5b60018516156108305780820291505b808102905061083e856107f0565b9450610805565b94509492505050565b5f8261085d5760019050610918565b8161086a575f9050610918565b8160018114610880576002811461088a576108b9565b6001915050610918565b60ff84111561089c5761089b61078f565b5b8360020a9150848211156108b3576108b261078f565b5b50610918565b5060208310610133831016604e8410600b84101617156108ee5782820a9050838111156108e9576108e861078f565b5b610918565b6108fb84848460016107fc565b925090508184048111156109125761091161078f565b5b81810290505b9392505050565b5f61092982610595565b9150610934836103f2565b92506109617fffffffffffffffffffffffffffffffffffffffffffffffffffffffffffffffff848461084e565b905092915050565b5f819050919050565b61097b81610969565b82525050565b61098a81610595565b82525050565b5f73ffffffffffffffffffffffffffffffffffffffff82169050919050565b5f6109b982610990565b9050919050565b6109c9816109af565b82525050565b5f60a0820190506109e25f830188610972565b6109ef6020830187610972565b6109fc6040830186610972565b610a096060830185610981565b610a1660808301846109c0565b9695505050505050565b5f82825260208201905092915050565b5f610a3a826104b0565b610a448185610a20565b9350610a54818560208601610376565b610a5d816102be565b840191505092915050565b5f6020820190508181035f830152610a808184610a30565b905092915050565b5f81519050919050565b5f819050602082019050919050565b5f610aac8251610969565b80915050919050565b5f610abf82610a88565b82610ac984610a92565b9050610ad481610aa1565b92506020821015610b1457610b0f7fffffffffffffffffffffffffffffffffffffffffffffffffffffffffffffffff83602003600802610538565b831692505b5050919050565b60805160a05160c05160e05161010051610120516101405161409d610b6c5f395f61167101525f61163601525f61210e01525f6120ed01525f6113cc01525f61142201525f61144b015261409d5ff3fe608060405234801561000f575f5ffd5b50600436106101f9575f3560e01c80637ecebe0011610118578063a9fe9959116100ab578063d174999a1161007a578063d174999a14610605578063d4febb9614610635578063dd62ed3e14610651578063fca114d614610681578063fe3f670d146106b1576101f9565b8063a9fe99591461056b578063b4b201901461059b578063b6363cf2146105a5578063ca49d7cd146105d5576101f9565b80639645edd4116100e75780639645edd4146104bd578063a415f269146104ed578063a794ee951461050b578063a9059cbb1461053b576101f9565b80637ecebe001461041b5780637edb0e7d1461044b57806384b0196e1461047b57806395d89b411461049f576101f9565b8063344ff1011161019057806339ce5fdf1161015f57806339ce5fdf14610393578063490690f3146103af57806354095227146103cd57806370a08231146103eb576101f9565b8063344ff1011461030b57806334e3e2ba1461033b5780633644e51514610357578063365ac00214610375576101f9565b80631c5f75fd116101cc5780631c5f75fd1461028557806323b872dd146102a15780632893c5b0146102d1578063313ce567146102ed576101f9565b806306fdde03146101fd578063095ea7b31461021b57806313691c761461024b57806318160ddd14610267575b5f5ffd5b6102056106e1565b6040516102129190612d4d565b60405180910390f35b61023560048036038101906102309190612e0b565b610771565b6040516102429190612e63565b60405180910390f35b61026560048036038101906102609190612eb9565b6107a4565b005b61026f6107b3565b60405161027c9190612f06565b60405180910390f35b61029f600480360381019061029a9190612fc3565b6107da565b005b6102bb60048036038101906102b69190613060565b61091f565b6040516102c89190612e63565b60405180910390f35b6102eb60048036038101906102e69190612eb9565b610952565b005b6102f5610961565b60405161030291906130bf565b60405180910390f35b610325600480360381019061032091906130d8565b610976565b604051610332919061313c565b60405180910390f35b6103556004803603810190610350919061318c565b6109bc565b005b61035f6109db565b60405161036c91906131c6565b60405180910390f35b61037d6109e9565b60405161038a9190612e63565b60405180910390f35b6103ad60048036038101906103a891906131df565b6109f1565b005b6103b7610a4b565b6040516103c49190612f06565b60405180910390f35b6103d5610a54565b6040516103e2919061313c565b60405180910390f35b610405600480360381019061040091906130d8565b610a5d565b6040516104129190612f06565b60405180910390f35b610435600480360381019061043091906130d8565b610ac0565b6040516104429190612f06565b60405180910390f35b610465600480360381019061046091906133e2565b610ad1565b604051610472919061313c565b60405180910390f35b610483610b40565b604051610496979695949392919061354e565b60405180910390f35b6104a7610be5565b6040516104b49190612d4d565b60405180910390f35b6104d760048036038101906104d29190613657565b610c75565b6040516104e4919061313c565b60405180910390f35b6104f5610d28565b6040516105029190612e63565b60405180910390f35b610525600480360381019061052091906136db565b610d30565b604051610532919061313c565b60405180910390f35b61055560048036038101906105509190612e0b565b610d51565b6040516105629190612e63565b60405180910390f35b61058560048036038101906105809190613735565b610d84565b604051610592919061313c565b60405180910390f35b6105a3610de9565b005b6105bf60048036038101906105ba91906137a6565b610e41565b6040516105cc9190612e63565b60405180910390f35b6105ef60048036038101906105ea91906137e4565b610f15565b6040516105fc919061313c565b60405180910390f35b61061f600480360381019061061a9190613834565b610fc4565b60405161062c919061313c565b60405180910390f35b61064f600480360381019061064a91906138c1565b610fe9565b005b61066b600480360381019061066691906137a6565b610ff8565b6040516106789190612f06565b60405180910390f35b61069b600480360381019061069691906138ff565b61102b565b6040516106a8919061313c565b60405180910390f35b6106cb60048036038101906106c6919061399f565b61109e565b6040516106d8919061313c565b60405180910390f35b6060600580546106f090613a0a565b80601f016020809104026020016040519081016040528092919081815260200182805461071c90613a0a565b80156107675780601f1061073e57610100808354040283529160200191610767565b820191905f5260205f20905b81548152906001019060200180831161074a57829003601f168201915b5050505050905090565b5f6040517fd411f9a900000000000000000000000000000000000000000000000000000000815260040160405180910390fd5b6107ae82826110ff565b505050565b5f60085460035f9054906101000a900461ffff1661ffff166107d59190613a67565b905090565b8342111561081f57836040517f627913020000000000000000000000000000000000000000000000000000000081526004016108169190612f06565b60405180910390fd5b5f7f3761e53ce7a62748833418e1c459b491875d6c4ec15966ef7f501194dce7fed288888861084d8c611195565b8960405160200161086396959493929190613ab7565b6040516020818303038152906040528051906020012090505f610885826111e8565b90505f61089482878787611201565b90508973ffffffffffffffffffffffffffffffffffffffff168173ffffffffffffffffffffffffffffffffffffffff161461090857808a6040517f4b800e460000000000000000000000000000000000000000000000000000000081526004016108ff929190613b16565b60405180910390fd5b6109138a8a8a61122f565b50505050505050505050565b5f6040517fd411f9a900000000000000000000000000000000000000000000000000000000815260040160405180910390fd5b61095c8282611333565b505050565b5f60075f9054906101000a900460ff16905090565b5f60015f8373ffffffffffffffffffffffffffffffffffffffff1673ffffffffffffffffffffffffffffffffffffffff1681526020019081526020015f20549050919050565b8060035f6101000a81548161ffff021916908361ffff16021790555050565b5f6109e46113c9565b905090565b5f6001905090565b805f5f8473ffffffffffffffffffffffffffffffffffffffff1673ffffffffffffffffffffffffffffffffffffffff1681526020019081526020015f205f6101000a81548161ffff021916908361ffff1602179055505050565b5f600854905090565b5f600454905090565b5f6008545f5f8473ffffffffffffffffffffffffffffffffffffffff1673ffffffffffffffffffffffffffffffffffffffff1681526020019081526020015f205f9054906101000a900461ffff1661ffff16610ab99190613a67565b9050919050565b5f610aca8261147f565b9050919050565b5f610adc8433610e41565b610b1f5783336040517fd2251dd5000000000000000000000000000000000000000000000000000000008152600401610b16929190613b16565b60405180910390fd5b5f610b29836114c5565b9050610b36858583611538565b9150509392505050565b5f6060805f5f5f6060610b5161162d565b610b59611668565b46305f5f1b5f67ffffffffffffffff811115610b7857610b77613221565b5b604051908082528060200260200182016040528015610ba65781602001602082028036833780820191505090505b507f0f00000000000000000000000000000000000000000000000000000000000000959493929190965096509650965096509650965090919293949596565b606060068054610bf490613a0a565b80601f0160208091040260200160405190810160405280929190818152602001828054610c2090613a0a565b8015610c6b5780601f10610c4257610100808354040283529160200191610c6b565b820191905f5260205f20905b815481529060010190602001808311610c4e57829003601f168201915b5050505050905090565b5f610c8084336116a3565b610cc35783336040517fd5fdb3f0000000000000000000000000000000000000000000000000000000008152600401610cba929190613b3d565b60405180910390fd5b610ccd8633610e41565b610d105785336040517fd2251dd5000000000000000000000000000000000000000000000000000000008152600401610d07929190613b16565b60405180910390fd5b610d1d868686868661173b565b905095945050505050565b5f6001905090565b5f5f610d3b836114c5565b9050610d48338583611538565b91505092915050565b5f6040517fd411f9a900000000000000000000000000000000000000000000000000000000815260040160405180910390fd5b5f610d8f84336116a3565b610dd25783336040517fd5fdb3f0000000000000000000000000000000000000000000000000000000008152600401610dc9929190613b3d565b60405180910390fd5b610ddf338686868661173b565b9050949350505050565b5f5f5f3373ffffffffffffffffffffffffffffffffffffffff1673ffffffffffffffffffffffffffffffffffffffff1681526020019081526020015f205f6101000a81548161ffff021916908361ffff160217905550565b5f8173ffffffffffffffffffffffffffffffffffffffff168373ffffffffffffffffffffffffffffffffffffffff161480610f0d575060025f8473ffffffffffffffffffffffffffffffffffffffff1673ffffffffffffffffffffffffffffffffffffffff1681526020019081526020015f205f8373ffffffffffffffffffffffffffffffffffffffff1673ffffffffffffffffffffffffffffffffffffffff1681526020019081526020015f205f9054906101000a900465ffffffffffff1665ffffffffffff164211155b905092915050565b5f610f2082336116a3565b610f635781336040517fd5fdb3f0000000000000000000000000000000000000000000000000000000008152600401610f5a929190613b3d565b60405180910390fd5b610f6d8433610e41565b610fb05783336040517fd2251dd5000000000000000000000000000000000000000000000000000000008152600401610fa7929190613b16565b60405180910390fd5b610fbb848484611538565b90509392505050565b5f5f610fcf856114c5565b9050610fde338783878761173b565b915050949350505050565b610ff433838361122f565b5050565b5f6040517fd411f9a900000000000000000000000000000000000000000000000000000000815260040160405180910390fd5b5f6110368633610e41565b6110795785336040517fd2251dd5000000000000000000000000000000000000000000000000000000008152600401611070929190613b16565b60405180910390fd5b5f611083856114c5565b9050611092878783878761173b565b91505095945050505050565b5f6110a982336116a3565b6110ec5781336040517fd5fdb3f00000000000000000000000000000000000000000000000000000000081526004016110e3929190613b3d565b60405180910390fd5b6110f7338484611538565b905092915050565b5f5f73ffffffffffffffffffffffffffffffffffffffff168373ffffffffffffffffffffffffffffffffffffffff1603611170575f6040517f96c6fd1e0000000000000000000000000000000000000000000000000000000081526004016111679190613b64565b60405180910390fd5b61118d835f6111888567ffffffffffffffff16611793565b6117a5565b905092915050565b5f600b5f8373ffffffffffffffffffffffffffffffffffffffff1673ffffffffffffffffffffffffffffffffffffffff1681526020019081526020015f205f815480929190600101919050559050919050565b5f6111fa6111f46113c9565b83611e40565b9050919050565b5f5f5f5f61121188888888611e80565b9250925092506112218282611f67565b829350505050949350505050565b8060025f8573ffffffffffffffffffffffffffffffffffffffff1673ffffffffffffffffffffffffffffffffffffffff1681526020019081526020015f205f8473ffffffffffffffffffffffffffffffffffffffff1673ffffffffffffffffffffffffffffffffffffffff1681526020019081526020015f205f6101000a81548165ffffffffffff021916908365ffffffffffff1602179055508173ffffffffffffffffffffffffffffffffffffffff168373ffffffffffffffffffffffffffffffffffffffff167f921a218a75d18e8ec5704851e6b234a85725b21a2521ce889622c35dedc1fa12836040516113269190613b7d565b60405180910390a3505050565b5f5f73ffffffffffffffffffffffffffffffffffffffff168373ffffffffffffffffffffffffffffffffffffffff16036113a4575f6040517fec442f0500000000000000000000000000000000000000000000000000000000815260040161139b9190613b64565b60405180910390fd5b6113c15f846113bc8567ffffffffffffffff16611793565b6117a5565b905092915050565b5f7f000000000000000000000000000000000000000000000000000000000000000073ffffffffffffffffffffffffffffffffffffffff163073ffffffffffffffffffffffffffffffffffffffff1614801561144457507f000000000000000000000000000000000000000000000000000000000000000046145b15611471577f0000000000000000000000000000000000000000000000000000000000000000905061147c565b6114796120c9565b90505b90565b5f600b5f8373ffffffffffffffffffffffffffffffffffffffff1673ffffffffffffffffffffffffffffffffffffffff1681526020019081526020015f20549050919050565b5f5f600590508060ff16836040015160ff161461151f578260400151816040517f67cf3071000000000000000000000000000000000000000000000000000000008152600401611516929190613b96565b60405180910390fd5b61153061152b8461215e565b6121a0565b915050919050565b5f5f73ffffffffffffffffffffffffffffffffffffffff168473ffffffffffffffffffffffffffffffffffffffff16036115a9575f6040517f96c6fd1e0000000000000000000000000000000000000000000000000000000081526004016115a09190613b64565b60405180910390fd5b5f73ffffffffffffffffffffffffffffffffffffffff168373ffffffffffffffffffffffffffffffffffffffff1603611619575f6040517fec442f050000000000000000000000000000000000000000000000000000000081526004016116109190613b64565b60405180910390fd5b6116248484846117a5565b90509392505050565b606061166360097f000000000000000000000000000000000000000000000000000000000000000061223790919063ffffffff16565b905090565b606061169e600a7f000000000000000000000000000000000000000000000000000000000000000061223790919063ffffffff16565b905090565b5f73ea30c4b8b44078bbf8a6ef5b9f1ec1626c7848d973ffffffffffffffffffffffffffffffffffffffff16635faa299a84846040518363ffffffff1660e01b81526004016116f3929190613bbd565b6020604051808303815f875af115801561170f573d5f5f3e3d5ffd5b505050506040513d601f19601f820116820180604052508101906117339190613c0e565b905092915050565b5f5f611748878787611538565b90505f6117593389898589896122e4565b90505f611779888a6117748561176e5f611793565b88612421565b6117a5565b90506117858382612483565b935050505095945050505050565b5f61179e825f6124cc565b9050919050565b5f5f73ffffffffffffffffffffffffffffffffffffffff168473ffffffffffffffffffffffffffffffffffffffff16146118425761183b61182c60015f8773ffffffffffffffffffffffffffffffffffffffff1673ffffffffffffffffffffffffffffffffffffffff1681526020019081526020015f2054846124e690919063ffffffff16565b836118365f611793565b612421565b9050611846565b8190505b5f73ffffffffffffffffffffffffffffffffffffffff168473ffffffffffffffffffffffffffffffffffffffff16036118c35761189160035f9054906101000a900461ffff166124f9565b60035f6101000a81548161ffff021916908361ffff1602179055506118b860045482612535565b6004819055506119f3565b61190a60015f8673ffffffffffffffffffffffffffffffffffffffff1673ffffffffffffffffffffffffffffffffffffffff1681526020019081526020015f205482612483565b60015f8673ffffffffffffffffffffffffffffffffffffffff1673ffffffffffffffffffffffffffffffffffffffff1681526020019081526020015f208190555061199d5f5f8673ffffffffffffffffffffffffffffffffffffffff1673ffffffffffffffffffffffffffffffffffffffff1681526020019081526020015f205f9054906101000a900461ffff1661257e565b5f5f8673ffffffffffffffffffffffffffffffffffffffff1673ffffffffffffffffffffffffffffffffffffffff1681526020019081526020015f205f6101000a81548161ffff021916908361ffff1602179055505b5f73ffffffffffffffffffffffffffffffffffffffff168373ffffffffffffffffffffffffffffffffffffffff1603611a7057611a3e60035f9054906101000a900461ffff1661257e565b60035f6101000a81548161ffff021916908361ffff160217905550611a6560045482612483565b600481905550611ba0565b611ab760015f8573ffffffffffffffffffffffffffffffffffffffff1673ffffffffffffffffffffffffffffffffffffffff1681526020019081526020015f205482612535565b60015f8573ffffffffffffffffffffffffffffffffffffffff1673ffffffffffffffffffffffffffffffffffffffff1681526020019081526020015f2081905550611b4a5f5f8573ffffffffffffffffffffffffffffffffffffffff1673ffffffffffffffffffffffffffffffffffffffff1681526020019081526020015f205f9054906101000a900461ffff166124f9565b5f5f8573ffffffffffffffffffffffffffffffffffffffff1673ffffffffffffffffffffffffffffffffffffffff1681526020019081526020015f205f6101000a81548161ffff021916908361ffff1602179055505b5f60015f8673ffffffffffffffffffffffffffffffffffffffff1673ffffffffffffffffffffffffffffffffffffffff1681526020019081526020015f205414611c7c57611c2a60015f8673ffffffffffffffffffffffffffffffffffffffff1673ffffffffffffffffffffffffffffffffffffffff1681526020019081526020015f20546125b9565b611c7160015f8673ffffffffffffffffffffffffffffffffffffffff1673ffffffffffffffffffffffffffffffffffffffff1681526020019081526020015f205485612638565b611c7b8185612638565b5b5f60015f8573ffffffffffffffffffffffffffffffffffffffff1673ffffffffffffffffffffffffffffffffffffffff1681526020019081526020015f205414611d5857611d0660015f8573ffffffffffffffffffffffffffffffffffffffff1673ffffffffffffffffffffffffffffffffffffffff1681526020019081526020015f20546125b9565b611d4d60015f8573ffffffffffffffffffffffffffffffffffffffff1673ffffffffffffffffffffffffffffffffffffffff1681526020019081526020015f205484612638565b611d578184612638565b5b611d628133612638565b611d6d6004546125b9565b8273ffffffffffffffffffffffffffffffffffffffff168473ffffffffffffffffffffffffffffffffffffffff167fddf252ad1be2c89b69c2b068fc378daa952ba7f163c4a11628f55a4df523b3ef600854604051611dcc9190612f06565b60405180910390a38273ffffffffffffffffffffffffffffffffffffffff168473ffffffffffffffffffffffffffffffffffffffff167fdef6144e0f80e23ca465862f2f93a21f8526624729198aed904b46e005c943e483604051611e319190612f06565b60405180910390a39392505050565b5f6040517f190100000000000000000000000000000000000000000000000000000000000081528360028201528260228201526042812091505092915050565b5f5f5f7f7fffffffffffffffffffffffffffffff5d576e7357a4501ddfe92f46681b20a0845f1c1115611ebc575f600385925092509250611f5d565b5f6001888888886040515f8152602001604052604051611edf9493929190613c39565b6020604051602081039080840390855afa158015611eff573d5f5f3e3d5ffd5b5050506020604051035190505f73ffffffffffffffffffffffffffffffffffffffff168173ffffffffffffffffffffffffffffffffffffffff1603611f50575f60015f5f1b93509350935050611f5d565b805f5f5f1b935093509350505b9450945094915050565b5f6003811115611f7a57611f79613c7c565b5b826003811115611f8d57611f8c613c7c565b5b03156120c55760016003811115611fa757611fa6613c7c565b5b826003811115611fba57611fb9613c7c565b5b03611ff1576040517ff645eedf00000000000000000000000000000000000000000000000000000000815260040160405180910390fd5b6002600381111561200557612004613c7c565b5b82600381111561201857612017613c7c565b5b0361205c57805f1c6040517ffce698f70000000000000000000000000000000000000000000000000000000081526004016120539190612f06565b60405180910390fd5b60038081111561206f5761206e613c7c565b5b82600381111561208257612081613c7c565b5b036120c457806040517fd78bce0c0000000000000000000000000000000000000000000000000000000081526004016120bb91906131c6565b60405180910390fd5b5b5050565b5f7f8b73c3c69bb8fe3d512ecc4cf759cc79239f7b179b0ffacaa9a75d522b39400f7f00000000000000000000000000000000000000000000000000000000000000007f00000000000000000000000000000000000000000000000000000000000000004630604051602001612143959493929190613ca9565b60405160208183030381529060405280519060200120905090565b612166612cb2565b6040518060800160405280835f01518152602001836020015160ff168152602001600560ff16815260200183606001518152509050919050565b5f73020000000000000000000000000000000000008073ffffffffffffffffffffffffffffffffffffffff166327f9c76283336040518363ffffffff1660e01b81526004016121f0929190613dbb565b6020604051808303815f875af115801561220c573d5f5f3e3d5ffd5b505050506040513d601f19601f820116820180604052508101906122309190613dfd565b9050919050565b606060ff5f1b83146122535761224c836126b8565b90506122de565b81805461225f90613a0a565b80601f016020809104026020016040519081016040528092919081815260200182805461228b90613a0a565b80156122d65780601f106122ad576101008083540402835291602001916122d6565b820191905f5260205f20905b8154815290600101906020018083116122b957829003601f168201915b505050505090505b92915050565b5f5f8573ffffffffffffffffffffffffffffffffffffffff163b111561240a578473ffffffffffffffffffffffffffffffffffffffff1663944e3ddb88888787876040518663ffffffff1660e01b8152600401612345959493929190613e64565b6020604051808303815f875af192505050801561238057506040513d601f19601f8201168201806040525081019061237d9190613eda565b60015b612401573d805f81146123ae576040519150601f19603f3d011682016040523d82523d5f602084013e6123b3565b606091505b505f8151036123f957856040517f502133790000000000000000000000000000000000000000000000000000000081526004016123f09190613b64565b60405180910390fd5b805181602001fd5b80915050612417565b612414600161272a565b90505b9695505050505050565b5f61242b8461273c565b61243b576124385f61272a565b93505b6124448361274d565b612454576124515f611793565b92505b61245d8261274d565b61246d5761246a5f611793565b91505b61247a600585858561275e565b90509392505050565b5f61248d8361274d565b61249d5761249a5f611793565b92505b6124a68261274d565b6124b6576124b35f611793565b91505b6124c460058484600761284f565b905092915050565b5f5f6124da8460058561293e565b90508091505092915050565b5f6124f18383612a39565b905092915050565b5f5f8261ffff161480612511575061270f8261ffff16145b15612520576113899050612530565b60018261252d9190613f05565b90505b919050565b5f61253f8361274d565b61254f5761254c5f611793565b92505b6125588261274d565b612568576125655f611793565b91505b61257660058484600861284f565b905092915050565b5f5f8261ffff161480612595575060018261ffff16145b156125a45761138790506125b4565b6001826125b19190613f3a565b90505b919050565b73ea30c4b8b44078bbf8a6ef5b9f1ec1626c7848d973ffffffffffffffffffffffffffffffffffffffff166365d0509c82306040518363ffffffff1660e01b8152600401612608929190613bbd565b5f604051808303815f87803b15801561261f575f5ffd5b505af1158015612631573d5f5f3e3d5ffd5b5050505050565b73ea30c4b8b44078bbf8a6ef5b9f1ec1626c7848d973ffffffffffffffffffffffffffffffffffffffff166365d0509c83836040518363ffffffff1660e01b8152600401612687929190613bbd565b5f604051808303815f87803b15801561269e575f5ffd5b505af11580156126b0573d5f5f3e3d5ffd5b505050505050565b60605f6126c483612a82565b90505f602067ffffffffffffffff8111156126e2576126e1613221565b5b6040519080825280601f01601f1916602001820160405280156127145781602001600182028036833780820191505090505b5090508181528360208201528092505050919050565b5f612735825f612ad0565b9050919050565b5f61274682612af9565b9050919050565b5f61275782612af9565b9050919050565b5f73020000000000000000000000000000000000008073ffffffffffffffffffffffffffffffffffffffff16631888debd86600461279d888888612b05565b5f67ffffffffffffffff8111156127b7576127b6613221565b5b6040519080825280602002602001820160405280156127e55781602001602082028036833780820191505090505b506040518563ffffffff1660e01b81526004016128059493929190613fb5565b6020604051808303815f875af1158015612821573d5f5f3e3d5ffd5b505050506040513d601f19601f820116820180604052508101906128459190613dfd565b9050949350505050565b5f73020000000000000000000000000000000000008073ffffffffffffffffffffffffffffffffffffffff16631888debd868461288c8888612bc1565b5f67ffffffffffffffff8111156128a6576128a5613221565b5b6040519080825280602002602001820160405280156128d45781602001602082028036833780820191505090505b506040518563ffffffff1660e01b81526004016128f49493929190613fb5565b6020604051808303815f875af1158015612910573d5f5f3e3d5ffd5b505050506040513d601f19601f820116820180604052508101906129349190613dfd565b9050949350505050565b5f73020000000000000000000000000000000000008073ffffffffffffffffffffffffffffffffffffffff16631888debd84601a5f67ffffffffffffffff81111561298c5761298b613221565b5b6040519080825280602002602001820160405280156129ba5781602001602082028036833780820191505090505b506129d1898960ff166129cc8a612c5b565b612b05565b6040518563ffffffff1660e01b81526004016129f09493929190613fb5565b6020604051808303815f875af1158015612a0c573d5f5f3e3d5ffd5b505050506040513d601f19601f82011682018060405250810190612a309190613dfd565b90509392505050565b5f612a438361274d565b612a5357612a505f611793565b92505b612a5c8261274d565b612a6c57612a695f611793565b91505b612a7a60058484601361284f565b905092915050565b5f5f60ff835f1c169050601f811115612ac7576040517fb3512b0c00000000000000000000000000000000000000000000000000000000815260040160405180910390fd5b80915050919050565b5f5f5f90508315612ae057600190505b5f612aec825f8661293e565b9050809250505092915050565b5f5f8214159050919050565b60605f600367ffffffffffffffff811115612b2357612b22613221565b5b604051908082528060200260200182016040528015612b515781602001602082028036833780820191505090505b50905084815f81518110612b6857612b67614006565b5b6020026020010181815250508381600181518110612b8957612b88614006565b5b6020026020010181815250508281600281518110612baa57612ba9614006565b5b602002602001018181525050809150509392505050565b60605f600267ffffffffffffffff811115612bdf57612bde613221565b5b604051908082528060200260200182016040528015612c0d5781602001602082028036833780820191505090505b50905083815f81518110612c2457612c23614006565b5b6020026020010181815250508281600181518110612c4557612c44614006565b5b6020026020010181815250508091505092915050565b5f5f8260030b1215612ca457816040517f8f568bf8000000000000000000000000000000000000000000000000000000008152600401612c9b919061404e565b60405180910390fd5b8163ffffffff169050919050565b60405180608001604052805f81526020015f60ff1681526020015f60ff168152602001606081525090565b5f81519050919050565b5f82825260208201905092915050565b8281835e5f83830152505050565b5f601f19601f8301169050919050565b5f612d1f82612cdd565b612d298185612ce7565b9350612d39818560208601612cf7565b612d4281612d05565b840191505092915050565b5f6020820190508181035f830152612d658184612d15565b905092915050565b5f604051905090565b5f5ffd5b5f5ffd5b5f73ffffffffffffffffffffffffffffffffffffffff82169050919050565b5f612da782612d7e565b9050919050565b612db781612d9d565b8114612dc1575f5ffd5b50565b5f81359050612dd281612dae565b92915050565b5f819050919050565b612dea81612dd8565b8114612df4575f5ffd5b50565b5f81359050612e0581612de1565b92915050565b5f5f60408385031215612e2157612e20612d76565b5b5f612e2e85828601612dc4565b9250506020612e3f85828601612df7565b9150509250929050565b5f8115159050919050565b612e5d81612e49565b82525050565b5f602082019050612e765f830184612e54565b92915050565b5f67ffffffffffffffff82169050919050565b612e9881612e7c565b8114612ea2575f5ffd5b50565b5f81359050612eb381612e8f565b92915050565b5f5f60408385031215612ecf57612ece612d76565b5b5f612edc85828601612dc4565b9250506020612eed85828601612ea5565b9150509250929050565b612f0081612dd8565b82525050565b5f602082019050612f195f830184612ef7565b92915050565b5f65ffffffffffff82169050919050565b612f3981612f1f565b8114612f43575f5ffd5b50565b5f81359050612f5481612f30565b92915050565b5f60ff82169050919050565b612f6f81612f5a565b8114612f79575f5ffd5b50565b5f81359050612f8a81612f66565b92915050565b5f819050919050565b612fa281612f90565b8114612fac575f5ffd5b50565b5f81359050612fbd81612f99565b92915050565b5f5f5f5f5f5f5f60e0888a031215612fde57612fdd612d76565b5b5f612feb8a828b01612dc4565b9750506020612ffc8a828b01612dc4565b965050604061300d8a828b01612f46565b955050606061301e8a828b01612df7565b945050608061302f8a828b01612f7c565b93505060a06130408a828b01612faf565b92505060c06130518a828b01612faf565b91505092959891949750929550565b5f5f5f6060848603121561307757613076612d76565b5b5f61308486828701612dc4565b935050602061309586828701612dc4565b92505060406130a686828701612df7565b9150509250925092565b6130b981612f5a565b82525050565b5f6020820190506130d25f8301846130b0565b92915050565b5f602082840312156130ed576130ec612d76565b5b5f6130fa84828501612dc4565b91505092915050565b5f819050919050565b5f61312661312161311c84612dd8565b613103565b612dd8565b9050919050565b6131368161310c565b82525050565b5f60208201905061314f5f83018461312d565b92915050565b5f61ffff82169050919050565b61316b81613155565b8114613175575f5ffd5b50565b5f8135905061318681613162565b92915050565b5f602082840312156131a1576131a0612d76565b5b5f6131ae84828501613178565b91505092915050565b6131c081612f90565b82525050565b5f6020820190506131d95f8301846131b7565b92915050565b5f5f604083850312156131f5576131f4612d76565b5b5f61320285828601612dc4565b925050602061321385828601613178565b9150509250929050565b5f5ffd5b7f4e487b71000000000000000000000000000000000000000000000000000000005f52604160045260245ffd5b61325782612d05565b810181811067ffffffffffffffff8211171561327657613275613221565b5b80604052505050565b5f613288612d6d565b9050613294828261324e565b919050565b5f5ffd5b5f5ffd5b5f5ffd5b5f67ffffffffffffffff8211156132bf576132be613221565b5b6132c882612d05565b9050602081019050919050565b828183375f83830152505050565b5f6132f56132f0846132a5565b61327f565b905082815260208101848484011115613311576133106132a1565b5b61331c8482856132d5565b509392505050565b5f82601f8301126133385761333761329d565b5b81356133488482602086016132e3565b91505092915050565b5f608082840312156133665761336561321d565b5b613370608061327f565b90505f61337f84828501612df7565b5f83015250602061339284828501612f7c565b60208301525060406133a684828501612f7c565b604083015250606082013567ffffffffffffffff8111156133ca576133c9613299565b5b6133d684828501613324565b60608301525092915050565b5f5f5f606084860312156133f9576133f8612d76565b5b5f61340686828701612dc4565b935050602061341786828701612dc4565b925050604084013567ffffffffffffffff81111561343857613437612d7a565b5b61344486828701613351565b9150509250925092565b5f7fff0000000000000000000000000000000000000000000000000000000000000082169050919050565b6134828161344e565b82525050565b61349181612d9d565b82525050565b5f81519050919050565b5f82825260208201905092915050565b5f819050602082019050919050565b6134c981612dd8565b82525050565b5f6134da83836134c0565b60208301905092915050565b5f602082019050919050565b5f6134fc82613497565b61350681856134a1565b9350613511836134b1565b805f5b8381101561354157815161352888826134cf565b9750613533836134e6565b925050600181019050613514565b5085935050505092915050565b5f60e0820190506135615f83018a613479565b81810360208301526135738189612d15565b905081810360408301526135878188612d15565b90506135966060830187612ef7565b6135a36080830186613488565b6135b060a08301856131b7565b81810360c08301526135c281846134f2565b905098975050505050505050565b6135d981612dd8565b81146135e3575f5ffd5b50565b5f813590506135f4816135d0565b92915050565b5f5ffd5b5f5ffd5b5f5f83601f8401126136175761361661329d565b5b8235905067ffffffffffffffff811115613634576136336135fa565b5b6020830191508360018202830111156136505761364f6135fe565b5b9250929050565b5f5f5f5f5f608086880312156136705761366f612d76565b5b5f61367d88828901612dc4565b955050602061368e88828901612dc4565b945050604061369f888289016135e6565b935050606086013567ffffffffffffffff8111156136c0576136bf612d7a565b5b6136cc88828901613602565b92509250509295509295909350565b5f5f604083850312156136f1576136f0612d76565b5b5f6136fe85828601612dc4565b925050602083013567ffffffffffffffff81111561371f5761371e612d7a565b5b61372b85828601613351565b9150509250929050565b5f5f5f5f6060858703121561374d5761374c612d76565b5b5f61375a87828801612dc4565b945050602061376b878288016135e6565b935050604085013567ffffffffffffffff81111561378c5761378b612d7a565b5b61379887828801613602565b925092505092959194509250565b5f5f604083850312156137bc576137bb612d76565b5b5f6137c985828601612dc4565b92505060206137da85828601612dc4565b9150509250929050565b5f5f5f606084860312156137fb576137fa612d76565b5b5f61380886828701612dc4565b935050602061381986828701612dc4565b925050604061382a868287016135e6565b9150509250925092565b5f5f5f5f6060858703121561384c5761384b612d76565b5b5f61385987828801612dc4565b945050602085013567ffffffffffffffff81111561387a57613879612d7a565b5b61388687828801613351565b935050604085013567ffffffffffffffff8111156138a7576138a6612d7a565b5b6138b387828801613602565b925092505092959194509250565b5f5f604083850312156138d7576138d6612d76565b5b5f6138e485828601612dc4565b92505060206138f585828601612f46565b9150509250929050565b5f5f5f5f5f6080868803121561391857613917612d76565b5b5f61392588828901612dc4565b955050602061393688828901612dc4565b945050604086013567ffffffffffffffff81111561395757613956612d7a565b5b61396388828901613351565b935050606086013567ffffffffffffffff81111561398457613983612d7a565b5b61399088828901613602565b92509250509295509295909350565b5f5f604083850312156139b5576139b4612d76565b5b5f6139c285828601612dc4565b92505060206139d3858286016135e6565b9150509250929050565b7f4e487b71000000000000000000000000000000000000000000000000000000005f52602260045260245ffd5b5f6002820490506001821680613a2157607f821691505b602082108103613a3457613a336139dd565b5b50919050565b7f4e487b71000000000000000000000000000000000000000000000000000000005f52601160045260245ffd5b5f613a7182612dd8565b9150613a7c83612dd8565b9250828202613a8a81612dd8565b91508282048414831517613aa157613aa0613a3a565b5b5092915050565b613ab181612f1f565b82525050565b5f60c082019050613aca5f8301896131b7565b613ad76020830188613488565b613ae46040830187613488565b613af16060830186613aa8565b613afe6080830185612ef7565b613b0b60a0830184612ef7565b979650505050505050565b5f604082019050613b295f830185613488565b613b366020830184613488565b9392505050565b5f604082019050613b505f83018561312d565b613b5d6020830184613488565b9392505050565b5f602082019050613b775f830184613488565b92915050565b5f602082019050613b905f830184613aa8565b92915050565b5f604082019050613ba95f8301856130b0565b613bb660208301846130b0565b9392505050565b5f604082019050613bd05f830185612ef7565b613bdd6020830184613488565b9392505050565b613bed81612e49565b8114613bf7575f5ffd5b50565b5f81519050613c0881613be4565b92915050565b5f60208284031215613c2357613c22612d76565b5b5f613c3084828501613bfa565b91505092915050565b5f608082019050613c4c5f8301876131b7565b613c5960208301866130b0565b613c6660408301856131b7565b613c7360608301846131b7565b95945050505050565b7f4e487b71000000000000000000000000000000000000000000000000000000005f52602160045260245ffd5b5f60a082019050613cbc5f8301886131b7565b613cc960208301876131b7565b613cd660408301866131b7565b613ce36060830185612ef7565b613cf06080830184613488565b9695505050505050565b613d0381612f5a565b82525050565b5f81519050919050565b5f82825260208201905092915050565b5f613d2d82613d09565b613d378185613d13565b9350613d47818560208601612cf7565b613d5081612d05565b840191505092915050565b5f608083015f830151613d705f8601826134c0565b506020830151613d836020860182613cfa565b506040830151613d966040860182613cfa565b5060608301518482036060860152613dae8282613d23565b9150508091505092915050565b5f6040820190508181035f830152613dd38185613d5b565b9050613de26020830184613488565b9392505050565b5f81519050613df781612de1565b92915050565b5f60208284031215613e1257613e11612d76565b5b5f613e1f84828501613de9565b91505092915050565b5f82825260208201905092915050565b5f613e438385613e28565b9350613e508385846132d5565b613e5983612d05565b840190509392505050565b5f608082019050613e775f830188613488565b613e846020830187613488565b613e91604083018661312d565b8181036060830152613ea4818486613e38565b90509695505050505050565b613eb981612dd8565b8114613ec3575f5ffd5b50565b5f81519050613ed481613eb0565b92915050565b5f60208284031215613eef57613eee612d76565b5b5f613efc84828501613ec6565b91505092915050565b5f613f0f82613155565b9150613f1a83613155565b9250828201905061ffff811115613f3457613f33613a3a565b5b92915050565b5f613f4482613155565b9150613f4f83613155565b9250828203905061ffff811115613f6957613f68613a3a565b5b92915050565b60208110613f8057613f7f613c7c565b5b50565b5f819050613f9082613f6f565b919050565b5f613f9f82613f83565b9050919050565b613faf81613f95565b82525050565b5f608082019050613fc85f8301876130b0565b613fd56020830186613fa6565b8181036040830152613fe781856134f2565b90508181036060830152613ffb81846134f2565b905095945050505050565b7f4e487b71000000000000000000000000000000000000000000000000000000005f52603260045260245ffd5b5f8160030b9050919050565b61404881614033565b82525050565b5f6020820190506140615f83018461403f565b9291505056fea26469706673582212203fa568e140ee787bdaee9345ee73314fdade2fe68559ed2c7a6bb4ba741bb01964736f6c634300081b0033","linkReferences":{}},"methodIdentifiers":{"DOMAIN_SEPARATOR()":"3644e515","allowance(address,address)":"dd62ed3e","approve(address,uint256)":"095ea7b3","balanceOf(address)":"70a08231","balanceOfIsIndicator()":"a415f269","burn(address,uint64)":"13691c76","confidentialBalanceOf(address)":"344ff101","confidentialTotalSupply()":"54095227","confidentialTransfer(address,(uint256,uint8,uint8,bytes))":"a794ee95","confidentialTransfer(address,uint256)":"fe3f670d","confidentialTransferAndCall(address,(uint256,uint8,uint8,bytes),bytes)":"d174999a","confidentialTransferAndCall(address,uint256,bytes)":"a9fe9959","confidentialTransferFrom(address,address,(uint256,uint8,uint8,bytes))":"7edb0e7d","confidentialTransferFrom(address,address,uint256)":"ca49d7cd","confidentialTransferFromAndCall(address,address,(uint256,uint8,uint8,bytes),bytes)":"fca114d6","confidentialTransferFromAndCall(address,address,uint256,bytes)":"9645edd4","decimals()":"313ce567","eip712Domain()":"84b0196e","indicatorTick()":"490690f3","isFherc20()":"365ac002","isOperator(address,address)":"b6363cf2","mint(address,uint64)":"2893c5b0","name()":"06fdde03","nonces(address)":"7ecebe00","permit(address,address,uint48,uint256,uint8,bytes32,bytes32)":"1c5f75fd","resetIndicatedBalance()":"b4b20190","setOperator(address,uint48)":"d4febb96","setTotalIndicatedSupply(uint16)":"34e3e2ba","setUserIndicatedBalance(address,uint16)":"39ce5fdf","symbol()":"95d89b41","totalSupply()":"18160ddd","transfer(address,uint256)":"a9059cbb","transferFrom(address,address,uint256)":"23b872dd"},"id":10}