{"abi":[{"type":"constructor","inputs":[{"name":"name_","type":"string","internalType":"string"},{"name":"symbol_","type":"string","internalType":"string"},{"name":"decimals_","type":"uint8","internalType":"uint8"}],"stateMutability":"nonpayable"},{"type":"function","name":"allowance","inputs":[{"name":"","type":"address","internalType":"address"},{"name":"","type":"address","internalType":"address"}],"outputs":[{"name":"","type":"uint256","internalType":"uint256"}],"stateMutability":"pure"},{"type":"function","name":"approve","inputs":[{"name":"","type":"address","internalType":"address"},{"name":"","type":"uint256","internalType":"uint256"}],"outputs":[{"name":"","type":"bool","internalType":"bool"}],"stateMutability":"pure"},{"type":"function","name":"balanceOf","inputs":[{"name":"account","type":"address","internalType":"address"}],"outputs":[{"name":"","type":"uint256","internalType":"uint256"}],"stateMutability":"view"},{"type":"function","name":"balanceOfIsIndicator","inputs":[],"outputs":[{"name":"","type":"bool","internalType":"bool"}],"stateMutability":"view"},{"type":"function","name":"burn","inputs":[{"name":"account","type":"address","internalType":"address"},{"name":"value","type":"uint64","internalType":"uint64"}],"outputs":[],"stateMutability":"nonpayable"},{"type":"function","name":"confidentialBalanceOf","inputs":[{"name":"account","type":"address","internalType":"address"}],"outputs":[{"name":"","type":"uint256","internalType":"euint64"}],"stateMutability":"view"},{"type":"function","name":"confidentialTotalSupply","inputs":[],"outputs":[{"name":"","type":"uint256","internalType":"euint64"}],"stateMutability":"view"},{"type":"function","name":"confidentialTransfer","inputs":[{"name":"to","type":"address","internalType":"address"},{"name":"inValue","type":"tuple","internalType":"struct Euint64","components":[{"name":"ctHash","type":"uint256","internalType":"uint256"},{"name":"securityZone","type":"uint8","internalType":"uint8"},{"name":"utype","type":"uint8","internalType":"uint8"},{"name":"signature","type":"bytes","internalType":"bytes"}]}],"outputs":[{"name":"transferred","type":"uint256","internalType":"euint64"}],"stateMutability":"nonpayable"},{"type":"function","name":"confidentialTransfer","inputs":[{"name":"to","type":"address","internalType":"address"},{"name":"value","type":"uint256","internalType":"euint64"}],"outputs":[{"name":"transferred","type":"uint256","internalType":"euint64"}],"stateMutability":"nonpayable"},{"type":"function","name":"confidentialTransferAndCall","inputs":[{"name":"to","type":"address","internalType":"address"},{"name":"value","type":"uint256","internalType":"euint64"},{"name":"data","type":"bytes","internalType":"bytes"}],"outputs":[{"name":"transferred","type":"uint256","internalType":"euint64"}],"stateMutability":"nonpayable"},{"type":"function","name":"confidentialTransferAndCall","inputs":[{"name":"to","type":"address","internalType":"address"},{"name":"inValue","type":"tuple","internalType":"struct Euint64","components":[{"name":"ctHash","type":"uint256","internalType":"uint256"},{"name":"securityZone","type":"uint8","internalType":"uint8"},{"name":"utype","type":"uint8","internalType":"uint8"},{"name":"signature","type":"bytes","internalType":"bytes"}]},{"name":"data","type":"bytes","internalType":"bytes"}],"outputs":[{"name":"transferred","type":"uint256","internalType":"euint64"}],"stateMutability":"nonpayable"},{"type":"function","name":"confidentialTransferFrom","inputs":[{"name":"from","type":"address","internalType":"address"},{"name":"to","type":"address","internalType":"address"},{"name":"inValue","type":"tuple","internalType":"struct Euint64","components":[{"name":"ctHash","type":"uint256","internalType":"uint256"},{"name":"securityZone","type":"uint8","internalType":"uint8"},{"name":"utype","type":"uint8","internalType":"uint8"},{"name":"signature","type":"bytes","internalType":"bytes"}]}],"outputs":[{"name":"transferred","type":"uint256","internalType":"euint64"}],"stateMutability":"nonpayable"},{"type":"function","name":"confidentialTransferFrom","inputs":[{"name":"from","type":"address","internalType":"address"},{"name":"to","type":"address","internalType":"address"},{"name":"value","type":"uint256","internalType":"euint64"}],"outputs":[{"name":"transferred","type":"uint256","internalType":"euint64"}],"stateMutability":"nonpayable"},{"type":"function","name":"confidentialTransferFromAndCall","inputs":[{"name":"from","type":"address","internalType":"address"},{"name":"to","type":"address","internalType":"address"},{"name":"value","type":"uint256","internalType":"euint64"},{"name":"data","type":"bytes","internalType":"bytes"}],"outputs":[{"name":"transferred","type":"uint256","internalType":"euint64"}],"stateMutability":"nonpayable"},{"type":"function","name":"confidentialTransferFromAndCall","inputs":[{"name":"from","type":"address","internalType":"address"},{"name":"to","type":"address","internalType":"address"},{"name":"inValue","type":"tuple","internalType":"struct Euint64","components":[{"name":"ctHash","type":"uint256","internalType":"uint256"},{"name":"securityZone","type":"uint8","internalType":"uint8"},{"name":"utype","type":"uint8","internalType":"uint8"},{"name":"signature","type":"bytes","internalType":"bytes"}]},{"name":"data","type":"bytes","internalType":"bytes"}],"outputs":[{"name":"transferred","type":"uint256","internalType":"euint64"}],"stateMutability":"nonpayable"},{"type":"function","name":"decimals","inputs":[],"outputs":[{"name":"","type":"uint8","internalType":"uint8"}],"stateMutability":"view"},{"type":"function","name":"indicatorTick","inputs":[],"outputs":[{"name":"","type":"uint256","internalType":"uint256"}],"stateMutability":"view"},{"type":"function","name":"isFherc20","inputs":[],"outputs":[{"name":"","type":"bool","internalType":"bool"}],"stateMutability":"view"},{"type":"function","name":"isOperator","inputs":[{"name":"holder","type":"address","internalType":"address"},{"name":"spender","type":"address","internalType":"address"}],"outputs":[{"name":"","type":"bool","internalType":"bool"}],"stateMutability":"view"},{"type":"function","name":"mint","inputs":[{"name":"account","type":"address","internalType":"address"},{"name":"value","type":"uint64","internalType":"uint64"}],"outputs":[],"stateMutability":"nonpayable"},{"type":"function","name":"name","inputs":[],"outputs":[{"name":"","type":"string","internalType":"string"}],"stateMutability":"view"},{"type":"function","name":"resetIndicatedBalance","inputs":[],"outputs":[],"stateMutability":"nonpayable"},{"type":"function","name":"setOperator","inputs":[{"name":"operator","type":"address","internalType":"address"},{"name":"until","type":"uint48","internalType":"uint48"}],"outputs":[],"stateMutability":"nonpayable"},{"type":"function","name":"setTotalIndicatedSupply","inputs":[{"name":"value","type":"uint16","internalType":"uint16"}],"outputs":[],"stateMutability":"nonpayable"},{"type":"function","name":"setUserIndicatedBalance","inputs":[{"name":"account","type":"address","internalType":"address"},{"name":"value","type":"uint16","internalType":"uint16"}],"outputs":[],"stateMutability":"nonpayable"},{"type":"function","name":"symbol","inputs":[],"outputs":[{"name":"","type":"string","internalType":"string"}],"stateMutability":"view"},{"type":"function","name":"totalSupply","inputs":[],"outputs":[{"name":"","type":"uint256","internalType":"uint256"}],"stateMutability":"view"},{"type":"function","name":"transfer","inputs":[{"name":"","type":"address","internalType":"address"},{"name":"","type":"uint256","internalType":"uint256"}],"outputs":[{"name":"","type":"bool","internalType":"bool"}],"stateMutability":"pure"},{"type":"function","name":"transferFrom","inputs":[{"name":"","type":"address","internalType":"address"},{"name":"","type":"address","internalType":"address"},{"name":"","type":"uint256","internalType":"uint256"}],"outputs":[{"name":"","type":"bool","internalType":"bool"}],"stateMutability":"pure"},{"type":"event","name":"Approval","inputs":[{"name":"owner","type":"address","indexed":true,"internalType":"address"},{"name":"spender","type":"address","indexed":true,"internalType":"address"},{"name":"value","type":"uint256","indexed":false,"internalType":"uint256"}],"anonymous":false},{"type":"event","name":"ConfidentialTransfer","inputs":[{"name":"from","type":"address","indexed":true,"internalType":"address"},{"name":"to","type":"address","indexed":true,"internalType":"address"},{"name":"value_hash","type":"uint256","indexed":false,"internalType":"uint256"}],"anonymous":false},{"type":"event","name":"OperatorSet","inputs":[{"name":"holder","type":"address","indexed":true,"internalType":"address"},{"name":"operator","type":"address","indexed":true,"internalType":"address"},{"name":"until","type":"uint48","indexed":false,"internalType":"uint48"}],"anonymous":false},{"type":"event","name":"Transfer","inputs":[{"name":"from","type":"address","indexed":true,"internalType":"address"},{"name":"to","type":"address","indexed":true,"internalType":"address"},{"name":"value","type":"uint256","indexed":false,"internalType":"uint256"}],"anonymous":false},{"type":"error","name":"ERC20InsufficientAllowance","inputs":[{"name":"spender","type":"address","internalType":"address"},{"name":"allowance","type":"uint256","internalType":"uint256"},{"name":"needed","type":"uint256","internalType":"uint256"}]},{"type":"error","name":"ERC20InsufficientBalance","inputs":[{"name":"sender","type":"address","internalType":"address"},{"name":"balance","type":"uint256","internalType":"uint256"},{"name":"needed","type":"uint256","internalType":"uint256"}]},{"type":"error","name":"ERC20InvalidApprover","inputs":[{"name":"approver","type":"address","internalType":"address"}]},{"type":"error","name":"ERC20InvalidReceiver","inputs":[{"name":"receiver","type":"address","internalType":"address"}]},{"type":"error","name":"ERC20InvalidSender","inputs":[{"name":"sender","type":"address","internalType":"address"}]},{"type":"error","name":"ERC20InvalidSpender","inputs":[{"name":"spender","type":"address","internalType":"address"}]},{"type":"error","name":"FHERC20ConfidentialTransferFromOwnerMismatch","inputs":[{"name":"from","type":"address","internalType":"address"},{"name":"permitOwner","type":"address","internalType":"address"}]},{"type":"error","name":"FHERC20ConfidentialTransferFromSpenderMismatch","inputs":[{"name":"to","type":"address","internalType":"address"},{"name":"permitSpender","type":"address","internalType":"address"}]},{"type":"error","name":"FHERC20ConfidentialTransferFromValueHashMismatch","inputs":[{"name":"inValueHash","type":"uint256","internalType":"uint256"},{"name":"permitValueHash","type":"uint256","internalType":"uint256"}]},{"type":"error","name":"FHERC20IncompatibleFunction","inputs":[]},{"type":"error","name":"FHERC20InvalidReceiver","inputs":[{"name":"receiver","type":"address","internalType":"address"}]},{"type":"error","name":"FHERC20UnauthorizedSpender","inputs":[{"name":"from","type":"address","internalType":"address"},{"name":"spender","type":"address","internalType":"address"}]},{"type":"error","name":"FHERC20UnauthorizedUseOfEncryptedAmount","inputs":[{"name":"value","type":"uint256","internalType":"euint64"},{"name":"owner","type":"address","internalType":"address"}]},{"type":"error","name":"InvalidEncryptedInput","inputs":[{"name":"got","type":"uint8","internalType":"uint8"},{"name":"expected","type":"uint8","internalType":"uint8"}]},{"type":"error","name":"SecurityZoneOutOfBounds","inputs":[{"name":"value","type":"int32","internalType":"int32"}]}],"bytecode":{"object":"0x608060405234801561000f575f5ffd5b50604051613c19380380613c198339818101604052810190610031919061022f565b828282826005908161004391906104c7565b50816006908161005391906104c7565b508060075f6101000a81548160ff021916908360ff16021790555060048160ff1611156100985760048161008791906105c3565b600a6100939190610726565b61009b565b60015b600881905550505050505050610770565b5f604051905090565b5f5ffd5b5f5ffd5b5f5ffd5b5f5ffd5b5f601f19601f8301169050919050565b7f4e487b71000000000000000000000000000000000000000000000000000000005f52604160045260245ffd5b61010b826100c5565b810181811067ffffffffffffffff8211171561012a576101296100d5565b5b80604052505050565b5f61013c6100ac565b90506101488282610102565b919050565b5f67ffffffffffffffff821115610167576101666100d5565b5b610170826100c5565b9050602081019050919050565b8281835e5f83830152505050565b5f61019d6101988461014d565b610133565b9050828152602081018484840111156101b9576101b86100c1565b5b6101c484828561017d565b509392505050565b5f82601f8301126101e0576101df6100bd565b5b81516101f084826020860161018b565b91505092915050565b5f60ff82169050919050565b61020e816101f9565b8114610218575f5ffd5b50565b5f8151905061022981610205565b92915050565b5f5f5f60608486031215610246576102456100b5565b5b5f84015167ffffffffffffffff811115610263576102626100b9565b5b61026f868287016101cc565b935050602084015167ffffffffffffffff8111156102905761028f6100b9565b5b61029c868287016101cc565b92505060406102ad8682870161021b565b9150509250925092565b5f81519050919050565b7f4e487b71000000000000000000000000000000000000000000000000000000005f52602260045260245ffd5b5f600282049050600182168061030557607f821691505b602082108103610318576103176102c1565b5b50919050565b5f819050815f5260205f209050919050565b5f6020601f8301049050919050565b5f82821b905092915050565b5f6008830261037a7fffffffffffffffffffffffffffffffffffffffffffffffffffffffffffffffff8261033f565b610384868361033f565b95508019841693508086168417925050509392505050565b5f819050919050565b5f819050919050565b5f6103c86103c36103be8461039c565b6103a5565b61039c565b9050919050565b5f819050919050565b6103e1836103ae565b6103f56103ed826103cf565b84845461034b565b825550505050565b5f5f905090565b61040c6103fd565b6104178184846103d8565b505050565b5b8181101561043a5761042f5f82610404565b60018101905061041d565b5050565b601f82111561047f576104508161031e565b61045984610330565b81016020851015610468578190505b61047c61047485610330565b83018261041c565b50505b505050565b5f82821c905092915050565b5f61049f5f1984600802610484565b1980831691505092915050565b5f6104b78383610490565b9150826002028217905092915050565b6104d0826102b7565b67ffffffffffffffff8111156104e9576104e86100d5565b5b6104f382546102ee565b6104fe82828561043e565b5f60209050601f83116001811461052f575f841561051d578287015190505b61052785826104ac565b86555061058e565b601f19841661053d8661031e565b5f5b828110156105645784890151825560018201915060208501945060208101905061053f565b86831015610581578489015161057d601f891682610490565b8355505b6001600288020188555050505b505050505050565b7f4e487b71000000000000000000000000000000000000000000000000000000005f52601160045260245ffd5b5f6105cd826101f9565b91506105d8836101f9565b9250828203905060ff8111156105f1576105f0610596565b5b92915050565b5f8160011c9050919050565b5f5f8291508390505b600185111561064c5780860481111561062857610627610596565b5b60018516156106375780820291505b8081029050610645856105f7565b945061060c565b94509492505050565b5f82610664576001905061071f565b81610671575f905061071f565b81600181146106875760028114610691576106c0565b600191505061071f565b60ff8411156106a3576106a2610596565b5b8360020a9150848211156106ba576106b9610596565b5b5061071f565b5060208310610133831016604e8410600b84101617156106f55782820a9050838111156106f0576106ef610596565b5b61071f565b6107028484846001610603565b9250905081840481111561071957610718610596565b5b81810290505b9392505050565b5f6107308261039c565b915061073b836101f9565b92506107687fffffffffffffffffffffffffffffffffffffffffffffffffffffffffffffffff8484610655565b905092915050565b61349c8061077d5f395ff3fe608060405234801561000f575f5ffd5b50600436106101cd575f3560e01c80637edb0e7d11610102578063b4b20190116100a0578063d4febb961161006f578063d4febb961461057b578063dd62ed3e14610597578063fca114d6146105c7578063fe3f670d146105f7576101cd565b8063b4b20190146104e1578063b6363cf2146104eb578063ca49d7cd1461051b578063d174999a1461054b576101cd565b8063a415f269116100dc578063a415f26914610433578063a794ee9514610451578063a9059cbb14610481578063a9fe9959146104b1576101cd565b80637edb0e7d146103b557806395d89b41146103e55780639645edd414610403576101cd565b8063344ff1011161016f57806339ce5fdf1161014957806339ce5fdf1461032d578063490690f314610349578063540952271461036757806370a0823114610385576101cd565b8063344ff101146102c357806334e3e2ba146102f3578063365ac0021461030f576101cd565b806318160ddd116101ab57806318160ddd1461023b57806323b872dd146102595780632893c5b014610289578063313ce567146102a5576101cd565b806306fdde03146101d1578063095ea7b3146101ef57806313691c761461021f575b5f5ffd5b6101d9610627565b6040516101e691906123f3565b60405180910390f35b610209600480360381019061020491906124b1565b6106b7565b6040516102169190612509565b60405180910390f35b6102396004803603810190610234919061255f565b6106ea565b005b6102436106f9565b60405161025091906125ac565b60405180910390f35b610273600480360381019061026e91906125c5565b610720565b6040516102809190612509565b60405180910390f35b6102a3600480360381019061029e919061255f565b610753565b005b6102ad610762565b6040516102ba9190612630565b60405180910390f35b6102dd60048036038101906102d89190612649565b610777565b6040516102ea91906126ad565b60405180910390f35b61030d600480360381019061030891906126fd565b6107bd565b005b6103176107dc565b6040516103249190612509565b60405180910390f35b61034760048036038101906103429190612728565b6107e4565b005b61035161083e565b60405161035e91906125ac565b60405180910390f35b61036f610847565b60405161037c91906126ad565b60405180910390f35b61039f600480360381019061039a9190612649565b610850565b6040516103ac91906125ac565b60405180910390f35b6103cf60048036038101906103ca9190612955565b6108b3565b6040516103dc91906126ad565b60405180910390f35b6103ed610922565b6040516103fa91906123f3565b60405180910390f35b61041d60048036038101906104189190612a48565b6109b2565b60405161042a91906126ad565b60405180910390f35b61043b610a65565b6040516104489190612509565b60405180910390f35b61046b60048036038101906104669190612acc565b610a6d565b60405161047891906126ad565b60405180910390f35b61049b600480360381019061049691906124b1565b610a8e565b6040516104a89190612509565b60405180910390f35b6104cb60048036038101906104c69190612b26565b610ac1565b6040516104d891906126ad565b60405180910390f35b6104e9610b26565b005b61050560048036038101906105009190612b97565b610b7e565b6040516105129190612509565b60405180910390f35b61053560048036038101906105309190612bd5565b610c52565b60405161054291906126ad565b60405180910390f35b61056560048036038101906105609190612c25565b610d01565b60405161057291906126ad565b60405180910390f35b61059560048036038101906105909190612ced565b610d26565b005b6105b160048036038101906105ac9190612b97565b610d35565b6040516105be91906125ac565b60405180910390f35b6105e160048036038101906105dc9190612d2b565b610d68565b6040516105ee91906126ad565b60405180910390f35b610611600480360381019061060c9190612dcb565b610ddb565b60405161061e91906126ad565b60405180910390f35b60606005805461063690612e36565b80601f016020809104026020016040519081016040528092919081815260200182805461066290612e36565b80156106ad5780601f10610684576101008083540402835291602001916106ad565b820191905f5260205f20905b81548152906001019060200180831161069057829003601f168201915b5050505050905090565b5f6040517fd411f9a900000000000000000000000000000000000000000000000000000000815260040160405180910390fd5b6106f48282610e3c565b505050565b5f60085460035f9054906101000a900461ffff1661ffff1661071b9190612e93565b905090565b5f6040517fd411f9a900000000000000000000000000000000000000000000000000000000815260040160405180910390fd5b61075d8282610ed2565b505050565b5f60075f9054906101000a900460ff16905090565b5f60015f8373ffffffffffffffffffffffffffffffffffffffff1673ffffffffffffffffffffffffffffffffffffffff1681526020019081526020015f20549050919050565b8060035f6101000a81548161ffff021916908361ffff16021790555050565b5f6001905090565b805f5f8473ffffffffffffffffffffffffffffffffffffffff1673ffffffffffffffffffffffffffffffffffffffff1681526020019081526020015f205f6101000a81548161ffff021916908361ffff1602179055505050565b5f600854905090565b5f600454905090565b5f6008545f5f8473ffffffffffffffffffffffffffffffffffffffff1673ffffffffffffffffffffffffffffffffffffffff1681526020019081526020015f205f9054906101000a900461ffff1661ffff166108ac9190612e93565b9050919050565b5f6108be8433610b7e565b6109015783336040517fd2251dd50000000000000000000000000000000000000000000000000000000081526004016108f8929190612ee3565b60405180910390fd5b5f61090b83610f68565b9050610918858583610fdb565b9150509392505050565b60606006805461093190612e36565b80601f016020809104026020016040519081016040528092919081815260200182805461095d90612e36565b80156109a85780601f1061097f576101008083540402835291602001916109a8565b820191905f5260205f20905b81548152906001019060200180831161098b57829003601f168201915b5050505050905090565b5f6109bd84336110d0565b610a005783336040517fd5fdb3f00000000000000000000000000000000000000000000000000000000081526004016109f7929190612f0a565b60405180910390fd5b610a0a8633610b7e565b610a4d5785336040517fd2251dd5000000000000000000000000000000000000000000000000000000008152600401610a44929190612ee3565b60405180910390fd5b610a5a8686868686611168565b905095945050505050565b5f6001905090565b5f5f610a7883610f68565b9050610a85338583610fdb565b91505092915050565b5f6040517fd411f9a900000000000000000000000000000000000000000000000000000000815260040160405180910390fd5b5f610acc84336110d0565b610b0f5783336040517fd5fdb3f0000000000000000000000000000000000000000000000000000000008152600401610b06929190612f0a565b60405180910390fd5b610b1c3386868686611168565b9050949350505050565b5f5f5f3373ffffffffffffffffffffffffffffffffffffffff1673ffffffffffffffffffffffffffffffffffffffff1681526020019081526020015f205f6101000a81548161ffff021916908361ffff160217905550565b5f8173ffffffffffffffffffffffffffffffffffffffff168373ffffffffffffffffffffffffffffffffffffffff161480610c4a575060025f8473ffffffffffffffffffffffffffffffffffffffff1673ffffffffffffffffffffffffffffffffffffffff1681526020019081526020015f205f8373ffffffffffffffffffffffffffffffffffffffff1673ffffffffffffffffffffffffffffffffffffffff1681526020019081526020015f205f9054906101000a900465ffffffffffff1665ffffffffffff164211155b905092915050565b5f610c5d82336110d0565b610ca05781336040517fd5fdb3f0000000000000000000000000000000000000000000000000000000008152600401610c97929190612f0a565b60405180910390fd5b610caa8433610b7e565b610ced5783336040517fd2251dd5000000000000000000000000000000000000000000000000000000008152600401610ce4929190612ee3565b60405180910390fd5b610cf8848484610fdb565b90509392505050565b5f5f610d0c85610f68565b9050610d1b3387838787611168565b915050949350505050565b610d313383836111c0565b5050565b5f6040517fd411f9a900000000000000000000000000000000000000000000000000000000815260040160405180910390fd5b5f610d738633610b7e565b610db65785336040517fd2251dd5000000000000000000000000000000000000000000000000000000008152600401610dad929190612ee3565b60405180910390fd5b5f610dc085610f68565b9050610dcf8787838787611168565b91505095945050505050565b5f610de682336110d0565b610e295781336040517fd5fdb3f0000000000000000000000000000000000000000000000000000000008152600401610e20929190612f0a565b60405180910390fd5b610e34338484610fdb565b905092915050565b5f5f73ffffffffffffffffffffffffffffffffffffffff168373ffffffffffffffffffffffffffffffffffffffff1603610ead575f6040517f96c6fd1e000000000000000000000000000000000000000000000000000000008152600401610ea49190612f31565b60405180910390fd5b610eca835f610ec58567ffffffffffffffff166112c4565b6112d6565b905092915050565b5f5f73ffffffffffffffffffffffffffffffffffffffff168373ffffffffffffffffffffffffffffffffffffffff1603610f43575f6040517fec442f05000000000000000000000000000000000000000000000000000000008152600401610f3a9190612f31565b60405180910390fd5b610f605f84610f5b8567ffffffffffffffff166112c4565b6112d6565b905092915050565b5f5f600590508060ff16836040015160ff1614610fc2578260400151816040517f67cf3071000000000000000000000000000000000000000000000000000000008152600401610fb9929190612f4a565b60405180910390fd5b610fd3610fce84611971565b6119b3565b915050919050565b5f5f73ffffffffffffffffffffffffffffffffffffffff168473ffffffffffffffffffffffffffffffffffffffff160361104c575f6040517f96c6fd1e0000000000000000000000000000000000000000000000000000000081526004016110439190612f31565b60405180910390fd5b5f73ffffffffffffffffffffffffffffffffffffffff168373ffffffffffffffffffffffffffffffffffffffff16036110bc575f6040517fec442f050000000000000000000000000000000000000000000000000000000081526004016110b39190612f31565b60405180910390fd5b6110c78484846112d6565b90509392505050565b5f73ea30c4b8b44078bbf8a6ef5b9f1ec1626c7848d973ffffffffffffffffffffffffffffffffffffffff16635faa299a84846040518363ffffffff1660e01b8152600401611120929190612f71565b6020604051808303815f875af115801561113c573d5f5f3e3d5ffd5b505050506040513d601f19601f820116820180604052508101906111609190612fc2565b905092915050565b5f5f611175878787610fdb565b90505f611186338989858989611a4a565b90505f6111a6888a6111a18561119b5f6112c4565b88611b87565b6112d6565b90506111b28382611be9565b935050505095945050505050565b8060025f8573ffffffffffffffffffffffffffffffffffffffff1673ffffffffffffffffffffffffffffffffffffffff1681526020019081526020015f205f8473ffffffffffffffffffffffffffffffffffffffff1673ffffffffffffffffffffffffffffffffffffffff1681526020019081526020015f205f6101000a81548165ffffffffffff021916908365ffffffffffff1602179055508173ffffffffffffffffffffffffffffffffffffffff168373ffffffffffffffffffffffffffffffffffffffff167f921a218a75d18e8ec5704851e6b234a85725b21a2521ce889622c35dedc1fa12836040516112b79190612ffc565b60405180910390a3505050565b5f6112cf825f611c32565b9050919050565b5f5f73ffffffffffffffffffffffffffffffffffffffff168473ffffffffffffffffffffffffffffffffffffffff16146113735761136c61135d60015f8773ffffffffffffffffffffffffffffffffffffffff1673ffffffffffffffffffffffffffffffffffffffff1681526020019081526020015f205484611c4c90919063ffffffff16565b836113675f6112c4565b611b87565b9050611377565b8190505b5f73ffffffffffffffffffffffffffffffffffffffff168473ffffffffffffffffffffffffffffffffffffffff16036113f4576113c260035f9054906101000a900461ffff16611c5f565b60035f6101000a81548161ffff021916908361ffff1602179055506113e960045482611c9b565b600481905550611524565b61143b60015f8673ffffffffffffffffffffffffffffffffffffffff1673ffffffffffffffffffffffffffffffffffffffff1681526020019081526020015f205482611be9565b60015f8673ffffffffffffffffffffffffffffffffffffffff1673ffffffffffffffffffffffffffffffffffffffff1681526020019081526020015f20819055506114ce5f5f8673ffffffffffffffffffffffffffffffffffffffff1673ffffffffffffffffffffffffffffffffffffffff1681526020019081526020015f205f9054906101000a900461ffff16611ce4565b5f5f8673ffffffffffffffffffffffffffffffffffffffff1673ffffffffffffffffffffffffffffffffffffffff1681526020019081526020015f205f6101000a81548161ffff021916908361ffff1602179055505b5f73ffffffffffffffffffffffffffffffffffffffff168373ffffffffffffffffffffffffffffffffffffffff16036115a15761156f60035f9054906101000a900461ffff16611ce4565b60035f6101000a81548161ffff021916908361ffff16021790555061159660045482611be9565b6004819055506116d1565b6115e860015f8573ffffffffffffffffffffffffffffffffffffffff1673ffffffffffffffffffffffffffffffffffffffff1681526020019081526020015f205482611c9b565b60015f8573ffffffffffffffffffffffffffffffffffffffff1673ffffffffffffffffffffffffffffffffffffffff1681526020019081526020015f208190555061167b5f5f8573ffffffffffffffffffffffffffffffffffffffff1673ffffffffffffffffffffffffffffffffffffffff1681526020019081526020015f205f9054906101000a900461ffff16611c5f565b5f5f8573ffffffffffffffffffffffffffffffffffffffff1673ffffffffffffffffffffffffffffffffffffffff1681526020019081526020015f205f6101000a81548161ffff021916908361ffff1602179055505b5f60015f8673ffffffffffffffffffffffffffffffffffffffff1673ffffffffffffffffffffffffffffffffffffffff1681526020019081526020015f2054146117ad5761175b60015f8673ffffffffffffffffffffffffffffffffffffffff1673ffffffffffffffffffffffffffffffffffffffff1681526020019081526020015f2054611d1f565b6117a260015f8673ffffffffffffffffffffffffffffffffffffffff1673ffffffffffffffffffffffffffffffffffffffff1681526020019081526020015f205485611d9e565b6117ac8185611d9e565b5b5f60015f8573ffffffffffffffffffffffffffffffffffffffff1673ffffffffffffffffffffffffffffffffffffffff1681526020019081526020015f2054146118895761183760015f8573ffffffffffffffffffffffffffffffffffffffff1673ffffffffffffffffffffffffffffffffffffffff1681526020019081526020015f2054611d1f565b61187e60015f8573ffffffffffffffffffffffffffffffffffffffff1673ffffffffffffffffffffffffffffffffffffffff1681526020019081526020015f205484611d9e565b6118888184611d9e565b5b6118938133611d9e565b61189e600454611d1f565b8273ffffffffffffffffffffffffffffffffffffffff168473ffffffffffffffffffffffffffffffffffffffff167fddf252ad1be2c89b69c2b068fc378daa952ba7f163c4a11628f55a4df523b3ef6008546040516118fd91906125ac565b60405180910390a38273ffffffffffffffffffffffffffffffffffffffff168473ffffffffffffffffffffffffffffffffffffffff167fdef6144e0f80e23ca465862f2f93a21f8526624729198aed904b46e005c943e48360405161196291906125ac565b60405180910390a39392505050565b611979612358565b6040518060800160405280835f01518152602001836020015160ff168152602001600560ff16815260200183606001518152509050919050565b5f73020000000000000000000000000000000000008073ffffffffffffffffffffffffffffffffffffffff166327f9c76283336040518363ffffffff1660e01b8152600401611a039291906130e5565b6020604051808303815f875af1158015611a1f573d5f5f3e3d5ffd5b505050506040513d601f19601f82011682018060405250810190611a439190613127565b9050919050565b5f5f8573ffffffffffffffffffffffffffffffffffffffff163b1115611b70578473ffffffffffffffffffffffffffffffffffffffff1663944e3ddb88888787876040518663ffffffff1660e01b8152600401611aab95949392919061318e565b6020604051808303815f875af1925050508015611ae657506040513d601f19601f82011682018060405250810190611ae39190613204565b60015b611b67573d805f8114611b14576040519150601f19603f3d011682016040523d82523d5f602084013e611b19565b606091505b505f815103611b5f57856040517f50213379000000000000000000000000000000000000000000000000000000008152600401611b569190612f31565b60405180910390fd5b805181602001fd5b80915050611b7d565b611b7a6001611e1e565b90505b9695505050505050565b5f611b9184611e30565b611ba157611b9e5f611e1e565b93505b611baa83611e41565b611bba57611bb75f6112c4565b92505b611bc382611e41565b611bd357611bd05f6112c4565b91505b611be06005858585611e52565b90509392505050565b5f611bf383611e41565b611c0357611c005f6112c4565b92505b611c0c82611e41565b611c1c57611c195f6112c4565b91505b611c2a600584846007611f43565b905092915050565b5f5f611c4084600585612032565b90508091505092915050565b5f611c57838361212d565b905092915050565b5f5f8261ffff161480611c77575061270f8261ffff16145b15611c86576113899050611c96565b600182611c93919061322f565b90505b919050565b5f611ca583611e41565b611cb557611cb25f6112c4565b92505b611cbe82611e41565b611cce57611ccb5f6112c4565b91505b611cdc600584846008611f43565b905092915050565b5f5f8261ffff161480611cfb575060018261ffff16145b15611d0a576113879050611d1a565b600182611d179190613264565b90505b919050565b73ea30c4b8b44078bbf8a6ef5b9f1ec1626c7848d973ffffffffffffffffffffffffffffffffffffffff166365d0509c82306040518363ffffffff1660e01b8152600401611d6e929190612f71565b5f604051808303815f87803b158015611d85575f5ffd5b505af1158015611d97573d5f5f3e3d5ffd5b5050505050565b73ea30c4b8b44078bbf8a6ef5b9f1ec1626c7848d973ffffffffffffffffffffffffffffffffffffffff166365d0509c83836040518363ffffffff1660e01b8152600401611ded929190612f71565b5f604051808303815f87803b158015611e04575f5ffd5b505af1158015611e16573d5f5f3e3d5ffd5b505050505050565b5f611e29825f612176565b9050919050565b5f611e3a8261219f565b9050919050565b5f611e4b8261219f565b9050919050565b5f73020000000000000000000000000000000000008073ffffffffffffffffffffffffffffffffffffffff16631888debd866004611e918888886121ab565b5f67ffffffffffffffff811115611eab57611eaa61276a565b5b604051908082528060200260200182016040528015611ed95781602001602082028036833780820191505090505b506040518563ffffffff1660e01b8152600401611ef994939291906133b4565b6020604051808303815f875af1158015611f15573d5f5f3e3d5ffd5b505050506040513d601f19601f82011682018060405250810190611f399190613127565b9050949350505050565b5f73020000000000000000000000000000000000008073ffffffffffffffffffffffffffffffffffffffff16631888debd8684611f808888612267565b5f67ffffffffffffffff811115611f9a57611f9961276a565b5b604051908082528060200260200182016040528015611fc85781602001602082028036833780820191505090505b506040518563ffffffff1660e01b8152600401611fe894939291906133b4565b6020604051808303815f875af1158015612004573d5f5f3e3d5ffd5b505050506040513d601f19601f820116820180604052508101906120289190613127565b9050949350505050565b5f73020000000000000000000000000000000000008073ffffffffffffffffffffffffffffffffffffffff16631888debd84601a5f67ffffffffffffffff8111156120805761207f61276a565b5b6040519080825280602002602001820160405280156120ae5781602001602082028036833780820191505090505b506120c5898960ff166120c08a612301565b6121ab565b6040518563ffffffff1660e01b81526004016120e494939291906133b4565b6020604051808303815f875af1158015612100573d5f5f3e3d5ffd5b505050506040513d601f19601f820116820180604052508101906121249190613127565b90509392505050565b5f61213783611e41565b612147576121445f6112c4565b92505b61215082611e41565b6121605761215d5f6112c4565b91505b61216e600584846013611f43565b905092915050565b5f5f5f9050831561218657600190505b5f612192825f86612032565b9050809250505092915050565b5f5f8214159050919050565b60605f600367ffffffffffffffff8111156121c9576121c861276a565b5b6040519080825280602002602001820160405280156121f75781602001602082028036833780820191505090505b50905084815f8151811061220e5761220d613405565b5b602002602001018181525050838160018151811061222f5761222e613405565b5b60200260200101818152505082816002815181106122505761224f613405565b5b602002602001018181525050809150509392505050565b60605f600267ffffffffffffffff8111156122855761228461276a565b5b6040519080825280602002602001820160405280156122b35781602001602082028036833780820191505090505b50905083815f815181106122ca576122c9613405565b5b60200260200101818152505082816001815181106122eb576122ea613405565b5b6020026020010181815250508091505092915050565b5f5f8260030b121561234a57816040517f8f568bf8000000000000000000000000000000000000000000000000000000008152600401612341919061344d565b60405180910390fd5b8163ffffffff169050919050565b60405180608001604052805f81526020015f60ff1681526020015f60ff168152602001606081525090565b5f81519050919050565b5f82825260208201905092915050565b8281835e5f83830152505050565b5f601f19601f8301169050919050565b5f6123c582612383565b6123cf818561238d565b93506123df81856020860161239d565b6123e8816123ab565b840191505092915050565b5f6020820190508181035f83015261240b81846123bb565b905092915050565b5f604051905090565b5f5ffd5b5f5ffd5b5f73ffffffffffffffffffffffffffffffffffffffff82169050919050565b5f61244d82612424565b9050919050565b61245d81612443565b8114612467575f5ffd5b50565b5f8135905061247881612454565b92915050565b5f819050919050565b6124908161247e565b811461249a575f5ffd5b50565b5f813590506124ab81612487565b92915050565b5f5f604083850312156124c7576124c661241c565b5b5f6124d48582860161246a565b92505060206124e58582860161249d565b9150509250929050565b5f8115159050919050565b612503816124ef565b82525050565b5f60208201905061251c5f8301846124fa565b92915050565b5f67ffffffffffffffff82169050919050565b61253e81612522565b8114612548575f5ffd5b50565b5f8135905061255981612535565b92915050565b5f5f604083850312156125755761257461241c565b5b5f6125828582860161246a565b92505060206125938582860161254b565b9150509250929050565b6125a68161247e565b82525050565b5f6020820190506125bf5f83018461259d565b92915050565b5f5f5f606084860312156125dc576125db61241c565b5b5f6125e98682870161246a565b93505060206125fa8682870161246a565b925050604061260b8682870161249d565b9150509250925092565b5f60ff82169050919050565b61262a81612615565b82525050565b5f6020820190506126435f830184612621565b92915050565b5f6020828403121561265e5761265d61241c565b5b5f61266b8482850161246a565b91505092915050565b5f819050919050565b5f61269761269261268d8461247e565b612674565b61247e565b9050919050565b6126a78161267d565b82525050565b5f6020820190506126c05f83018461269e565b92915050565b5f61ffff82169050919050565b6126dc816126c6565b81146126e6575f5ffd5b50565b5f813590506126f7816126d3565b92915050565b5f602082840312156127125761271161241c565b5b5f61271f848285016126e9565b91505092915050565b5f5f6040838503121561273e5761273d61241c565b5b5f61274b8582860161246a565b925050602061275c858286016126e9565b9150509250929050565b5f5ffd5b7f4e487b71000000000000000000000000000000000000000000000000000000005f52604160045260245ffd5b6127a0826123ab565b810181811067ffffffffffffffff821117156127bf576127be61276a565b5b80604052505050565b5f6127d1612413565b90506127dd8282612797565b919050565b5f5ffd5b6127ef81612615565b81146127f9575f5ffd5b50565b5f8135905061280a816127e6565b92915050565b5f5ffd5b5f5ffd5b5f67ffffffffffffffff8211156128325761283161276a565b5b61283b826123ab565b9050602081019050919050565b828183375f83830152505050565b5f61286861286384612818565b6127c8565b90508281526020810184848401111561288457612883612814565b5b61288f848285612848565b509392505050565b5f82601f8301126128ab576128aa612810565b5b81356128bb848260208601612856565b91505092915050565b5f608082840312156128d9576128d8612766565b5b6128e360806127c8565b90505f6128f28482850161249d565b5f830152506020612905848285016127fc565b6020830152506040612919848285016127fc565b604083015250606082013567ffffffffffffffff81111561293d5761293c6127e2565b5b61294984828501612897565b60608301525092915050565b5f5f5f6060848603121561296c5761296b61241c565b5b5f6129798682870161246a565b935050602061298a8682870161246a565b925050604084013567ffffffffffffffff8111156129ab576129aa612420565b5b6129b7868287016128c4565b9150509250925092565b6129ca8161247e565b81146129d4575f5ffd5b50565b5f813590506129e5816129c1565b92915050565b5f5ffd5b5f5ffd5b5f5f83601f840112612a0857612a07612810565b5b8235905067ffffffffffffffff811115612a2557612a246129eb565b5b602083019150836001820283011115612a4157612a406129ef565b5b9250929050565b5f5f5f5f5f60808688031215612a6157612a6061241c565b5b5f612a6e8882890161246a565b9550506020612a7f8882890161246a565b9450506040612a90888289016129d7565b935050606086013567ffffffffffffffff811115612ab157612ab0612420565b5b612abd888289016129f3565b92509250509295509295909350565b5f5f60408385031215612ae257612ae161241c565b5b5f612aef8582860161246a565b925050602083013567ffffffffffffffff811115612b1057612b0f612420565b5b612b1c858286016128c4565b9150509250929050565b5f5f5f5f60608587031215612b3e57612b3d61241c565b5b5f612b4b8782880161246a565b9450506020612b5c878288016129d7565b935050604085013567ffffffffffffffff811115612b7d57612b7c612420565b5b612b89878288016129f3565b925092505092959194509250565b5f5f60408385031215612bad57612bac61241c565b5b5f612bba8582860161246a565b9250506020612bcb8582860161246a565b9150509250929050565b5f5f5f60608486031215612bec57612beb61241c565b5b5f612bf98682870161246a565b9350506020612c0a8682870161246a565b9250506040612c1b868287016129d7565b9150509250925092565b5f5f5f5f60608587031215612c3d57612c3c61241c565b5b5f612c4a8782880161246a565b945050602085013567ffffffffffffffff811115612c6b57612c6a612420565b5b612c77878288016128c4565b935050604085013567ffffffffffffffff811115612c9857612c97612420565b5b612ca4878288016129f3565b925092505092959194509250565b5f65ffffffffffff82169050919050565b612ccc81612cb2565b8114612cd6575f5ffd5b50565b5f81359050612ce781612cc3565b92915050565b5f5f60408385031215612d0357612d0261241c565b5b5f612d108582860161246a565b9250506020612d2185828601612cd9565b9150509250929050565b5f5f5f5f5f60808688031215612d4457612d4361241c565b5b5f612d518882890161246a565b9550506020612d628882890161246a565b945050604086013567ffffffffffffffff811115612d8357612d82612420565b5b612d8f888289016128c4565b935050606086013567ffffffffffffffff811115612db057612daf612420565b5b612dbc888289016129f3565b92509250509295509295909350565b5f5f60408385031215612de157612de061241c565b5b5f612dee8582860161246a565b9250506020612dff858286016129d7565b9150509250929050565b7f4e487b71000000000000000000000000000000000000000000000000000000005f52602260045260245ffd5b5f6002820490506001821680612e4d57607f821691505b602082108103612e6057612e5f612e09565b5b50919050565b7f4e487b71000000000000000000000000000000000000000000000000000000005f52601160045260245ffd5b5f612e9d8261247e565b9150612ea88361247e565b9250828202612eb68161247e565b91508282048414831517612ecd57612ecc612e66565b5b5092915050565b612edd81612443565b82525050565b5f604082019050612ef65f830185612ed4565b612f036020830184612ed4565b9392505050565b5f604082019050612f1d5f83018561269e565b612f2a6020830184612ed4565b9392505050565b5f602082019050612f445f830184612ed4565b92915050565b5f604082019050612f5d5f830185612621565b612f6a6020830184612621565b9392505050565b5f604082019050612f845f83018561259d565b612f916020830184612ed4565b9392505050565b612fa1816124ef565b8114612fab575f5ffd5b50565b5f81519050612fbc81612f98565b92915050565b5f60208284031215612fd757612fd661241c565b5b5f612fe484828501612fae565b91505092915050565b612ff681612cb2565b82525050565b5f60208201905061300f5f830184612fed565b92915050565b61301e8161247e565b82525050565b61302d81612615565b82525050565b5f81519050919050565b5f82825260208201905092915050565b5f61305782613033565b613061818561303d565b935061307181856020860161239d565b61307a816123ab565b840191505092915050565b5f608083015f83015161309a5f860182613015565b5060208301516130ad6020860182613024565b5060408301516130c06040860182613024565b50606083015184820360608601526130d8828261304d565b9150508091505092915050565b5f6040820190508181035f8301526130fd8185613085565b905061310c6020830184612ed4565b9392505050565b5f8151905061312181612487565b92915050565b5f6020828403121561313c5761313b61241c565b5b5f61314984828501613113565b91505092915050565b5f82825260208201905092915050565b5f61316d8385613152565b935061317a838584612848565b613183836123ab565b840190509392505050565b5f6080820190506131a15f830188612ed4565b6131ae6020830187612ed4565b6131bb604083018661269e565b81810360608301526131ce818486613162565b90509695505050505050565b6131e38161247e565b81146131ed575f5ffd5b50565b5f815190506131fe816131da565b92915050565b5f602082840312156132195761321861241c565b5b5f613226848285016131f0565b91505092915050565b5f613239826126c6565b9150613244836126c6565b9250828201905061ffff81111561325e5761325d612e66565b5b92915050565b5f61326e826126c6565b9150613279836126c6565b9250828203905061ffff81111561329357613292612e66565b5b92915050565b7f4e487b71000000000000000000000000000000000000000000000000000000005f52602160045260245ffd5b602081106132d7576132d6613299565b5b50565b5f8190506132e7826132c6565b919050565b5f6132f6826132da565b9050919050565b613306816132ec565b82525050565b5f81519050919050565b5f82825260208201905092915050565b5f819050602082019050919050565b5f6133408383613015565b60208301905092915050565b5f602082019050919050565b5f6133628261330c565b61336c8185613316565b935061337783613326565b805f5b838110156133a757815161338e8882613335565b97506133998361334c565b92505060018101905061337a565b5085935050505092915050565b5f6080820190506133c75f830187612621565b6133d460208301866132fd565b81810360408301526133e68185613358565b905081810360608301526133fa8184613358565b905095945050505050565b7f4e487b71000000000000000000000000000000000000000000000000000000005f52603260045260245ffd5b5f8160030b9050919050565b61344781613432565b82525050565b5f6020820190506134605f83018461343e565b9291505056fea26469706673582212200f211225ea5291a75775139820be5fec324d53eaa8384a2357c3af6179f5548c64736f6c634300081b0033","linkReferences":{}},"methodIdentifiers":{"allowance(address,address)":"dd62ed3e","approve(address,uint256)":"095ea7b3","balanceOf(address)":"70a08231","balanceOfIsIndicator()":"a415f269","burn(address,uint64)":"13691c76","confidentialBalanceOf(address)":"344ff101","confidentialTotalSupply()":"54095227","confidentialTransfer(address,(uint256,uint8,uint8,bytes))":"a794ee95","confidentialTransfer(address,uint256)":"fe3f670d","confidentialTransferAndCall(address,(uint256,uint8,uint8,bytes),bytes)":"d174999a","confidentialTransferAndCall(address,uint256,bytes)":"a9fe9959","confidentialTransferFrom(address,address,(uint256,uint8,uint8,bytes))":"7edb0e7d","confidentialTransferFrom(address,address,uint256)":"ca49d7cd","confidentialTransferFromAndCall(address,address,(uint256,uint8,uint8,bytes),bytes)":"fca114d6","confidentialTransferFromAndCall(address,address,uint256,bytes)":"9645edd4","decimals()":"313ce567","indicatorTick()":"490690f3","isFherc20()":"365ac002","isOperator(address,address)":"b6363cf2","mint(address,uint64)":"2893c5b0","name()":"06fdde03","resetIndicatedBalance()":"b4b20190","setOperator(address,uint48)":"d4febb96","setTotalIndicatedSupply(uint16)":"34e3e2ba","setUserIndicatedBalance(address,uint16)":"39ce5fdf","symbol()":"95d89b41","totalSupply()":"18160ddd","transfer(address,uint256)":"a9059cbb","transferFrom(address,address,uint256)":"23b872dd"},"id":11}