{"abi":[{"type":"constructor","inputs":[{"name":"erc20_","type":"address","internalType":"contract IERC20"},{"name":"symbolOverride_","type":"string","internalType":"string"}],"stateMutability":"nonpayable"},{"type":"function","name":"allowance","inputs":[{"name":"","type":"address","internalType":"address"},{"name":"","type":"address","internalType":"address"}],"outputs":[{"name":"","type":"uint256","internalType":"uint256"}],"stateMutability":"pure"},{"type":"function","name":"approve","inputs":[{"name":"","type":"address","internalType":"address"},{"name":"","type":"uint256","internalType":"uint256"}],"outputs":[{"name":"","type":"bool","internalType":"bool"}],"stateMutability":"pure"},{"type":"function","name":"balanceOf","inputs":[{"name":"account","type":"address","internalType":"address"}],"outputs":[{"name":"","type":"uint256","internalType":"uint256"}],"stateMutability":"view"},{"type":"function","name":"balanceOfIsIndicator","inputs":[],"outputs":[{"name":"","type":"bool","internalType":"bool"}],"stateMutability":"view"},{"type":"function","name":"claimAllUnwrapped","inputs":[],"outputs":[],"stateMutability":"nonpayable"},{"type":"function","name":"claimUnwrapped","inputs":[{"name":"ctHash","type":"uint256","internalType":"uint256"}],"outputs":[],"stateMutability":"nonpayable"},{"type":"function","name":"confidentialBalanceOf","inputs":[{"name":"account","type":"address","internalType":"address"}],"outputs":[{"name":"","type":"uint256","internalType":"euint64"}],"stateMutability":"view"},{"type":"function","name":"confidentialTotalSupply","inputs":[],"outputs":[{"name":"","type":"uint256","internalType":"euint64"}],"stateMutability":"view"},{"type":"function","name":"confidentialTransfer","inputs":[{"name":"to","type":"address","internalType":"address"},{"name":"inValue","type":"tuple","internalType":"struct Euint64","components":[{"name":"ctHash","type":"uint256","internalType":"uint256"},{"name":"securityZone","type":"uint8","internalType":"uint8"},{"name":"utype","type":"uint8","internalType":"uint8"},{"name":"signature","type":"bytes","internalType":"bytes"}]}],"outputs":[{"name":"transferred","type":"uint256","internalType":"euint64"}],"stateMutability":"nonpayable"},{"type":"function","name":"confidentialTransfer","inputs":[{"name":"to","type":"address","internalType":"address"},{"name":"value","type":"uint256","internalType":"euint64"}],"outputs":[{"name":"transferred","type":"uint256","internalType":"euint64"}],"stateMutability":"nonpayable"},{"type":"function","name":"confidentialTransferAndCall","inputs":[{"name":"to","type":"address","internalType":"address"},{"name":"value","type":"uint256","internalType":"euint64"},{"name":"data","type":"bytes","internalType":"bytes"}],"outputs":[{"name":"transferred","type":"uint256","internalType":"euint64"}],"stateMutability":"nonpayable"},{"type":"function","name":"confidentialTransferAndCall","inputs":[{"name":"to","type":"address","internalType":"address"},{"name":"inValue","type":"tuple","internalType":"struct Euint64","components":[{"name":"ctHash","type":"uint256","internalType":"uint256"},{"name":"securityZone","type":"uint8","internalType":"uint8"},{"name":"utype","type":"uint8","internalType":"uint8"},{"name":"signature","type":"bytes","internalType":"bytes"}]},{"name":"data","type":"bytes","internalType":"bytes"}],"outputs":[{"name":"transferred","type":"uint256","internalType":"euint64"}],"stateMutability":"nonpayable"},{"type":"function","name":"confidentialTransferFrom","inputs":[{"name":"from","type":"address","internalType":"address"},{"name":"to","type":"address","internalType":"address"},{"name":"inValue","type":"tuple","internalType":"struct Euint64","components":[{"name":"ctHash","type":"uint256","internalType":"uint256"},{"name":"securityZone","type":"uint8","internalType":"uint8"},{"name":"utype","type":"uint8","internalType":"uint8"},{"name":"signature","type":"bytes","internalType":"bytes"}]}],"outputs":[{"name":"transferred","type":"uint256","internalType":"euint64"}],"stateMutability":"nonpayable"},{"type":"function","name":"confidentialTransferFrom","inputs":[{"name":"from","type":"address","internalType":"address"},{"name":"to","type":"address","internalType":"address"},{"name":"value","type":"uint256","internalType":"euint64"}],"outputs":[{"name":"transferred","type":"uint256","internalType":"euint64"}],"stateMutability":"nonpayable"},{"type":"function","name":"confidentialTransferFromAndCall","inputs":[{"name":"from","type":"address","internalType":"address"},{"name":"to","type":"address","internalType":"address"},{"name":"value","type":"uint256","internalType":"euint64"},{"name":"data","type":"bytes","internalType":"bytes"}],"outputs":[{"name":"transferred","type":"uint256","internalType":"euint64"}],"stateMutability":"nonpayable"},{"type":"function","name":"confidentialTransferFromAndCall","inputs":[{"name":"from","type":"address","internalType":"address"},{"name":"to","type":"address","internalType":"address"},{"name":"inValue","type":"tuple","internalType":"struct Euint64","components":[{"name":"ctHash","type":"uint256","internalType":"uint256"},{"name":"securityZone","type":"uint8","internalType":"uint8"},{"name":"utype","type":"uint8","internalType":"uint8"},{"name":"signature","type":"bytes","internalType":"bytes"}]},{"name":"data","type":"bytes","internalType":"bytes"}],"outputs":[{"name":"transferred","type":"uint256","internalType":"euint64"}],"stateMutability":"nonpayable"},{"type":"function","name":"decimals","inputs":[],"outputs":[{"name":"","type":"uint8","internalType":"uint8"}],"stateMutability":"view"},{"type":"function","name":"erc20","inputs":[],"outputs":[{"name":"","type":"address","internalType":"contract IERC20"}],"stateMutability":"view"},{"type":"function","name":"getClaim","inputs":[{"name":"ctHash","type":"uint256","internalType":"uint256"}],"outputs":[{"name":"","type":"tuple","internalType":"struct FHERC20UnwrapClaim.Claim","components":[{"name":"ctHash","type":"uint256","internalType":"uint256"},{"name":"requestedAmount","type":"uint64","internalType":"uint64"},{"name":"decryptedAmount","type":"uint64","internalType":"uint64"},{"name":"decrypted","type":"bool","internalType":"bool"},{"name":"to","type":"address","internalType":"address"},{"name":"claimed","type":"bool","internalType":"bool"}]}],"stateMutability":"view"},{"type":"function","name":"getUserClaims","inputs":[{"name":"user","type":"address","internalType":"address"}],"outputs":[{"name":"","type":"tuple[]","internalType":"struct FHERC20UnwrapClaim.Claim[]","components":[{"name":"ctHash","type":"uint256","internalType":"uint256"},{"name":"requestedAmount","type":"uint64","internalType":"uint64"},{"name":"decryptedAmount","type":"uint64","internalType":"uint64"},{"name":"decrypted","type":"bool","internalType":"bool"},{"name":"to","type":"address","internalType":"address"},{"name":"claimed","type":"bool","internalType":"bool"}]}],"stateMutability":"view"},{"type":"function","name":"indicatorTick","inputs":[],"outputs":[{"name":"","type":"uint256","internalType":"uint256"}],"stateMutability":"view"},{"type":"function","name":"isFherc20","inputs":[],"outputs":[{"name":"","type":"bool","internalType":"bool"}],"stateMutability":"view"},{"type":"function","name":"isOperator","inputs":[{"name":"holder","type":"address","internalType":"address"},{"name":"spender","type":"address","internalType":"address"}],"outputs":[{"name":"","type":"bool","internalType":"bool"}],"stateMutability":"view"},{"type":"function","name":"name","inputs":[],"outputs":[{"name":"","type":"string","internalType":"string"}],"stateMutability":"view"},{"type":"function","name":"owner","inputs":[],"outputs":[{"name":"","type":"address","internalType":"address"}],"stateMutability":"view"},{"type":"function","name":"renounceOwnership","inputs":[],"outputs":[],"stateMutability":"nonpayable"},{"type":"function","name":"resetIndicatedBalance","inputs":[],"outputs":[],"stateMutability":"nonpayable"},{"type":"function","name":"setOperator","inputs":[{"name":"operator","type":"address","internalType":"address"},{"name":"until","type":"uint48","internalType":"uint48"}],"outputs":[],"stateMutability":"nonpayable"},{"type":"function","name":"symbol","inputs":[],"outputs":[{"name":"","type":"string","internalType":"string"}],"stateMutability":"view"},{"type":"function","name":"totalSupply","inputs":[],"outputs":[{"name":"","type":"uint256","internalType":"uint256"}],"stateMutability":"view"},{"type":"function","name":"transfer","inputs":[{"name":"","type":"address","internalType":"address"},{"name":"","type":"uint256","internalType":"uint256"}],"outputs":[{"name":"","type":"bool","internalType":"bool"}],"stateMutability":"pure"},{"type":"function","name":"transferFrom","inputs":[{"name":"","type":"address","internalType":"address"},{"name":"","type":"address","internalType":"address"},{"name":"","type":"uint256","internalType":"uint256"}],"outputs":[{"name":"","type":"bool","internalType":"bool"}],"stateMutability":"pure"},{"type":"function","name":"transferOwnership","inputs":[{"name":"newOwner","type":"address","internalType":"address"}],"outputs":[],"stateMutability":"nonpayable"},{"type":"function","name":"unwrap","inputs":[{"name":"to","type":"address","internalType":"address"},{"name":"value","type":"uint64","internalType":"uint64"}],"outputs":[],"stateMutability":"nonpayable"},{"type":"function","name":"updateSymbol","inputs":[{"name":"updatedSymbol","type":"string","internalType":"string"}],"outputs":[],"stateMutability":"nonpayable"},{"type":"function","name":"wrap","inputs":[{"name":"to","type":"address","internalType":"address"},{"name":"value","type":"uint64","internalType":"uint64"}],"outputs":[],"stateMutability":"nonpayable"},{"type":"event","name":"Approval","inputs":[{"name":"owner","type":"address","indexed":true,"internalType":"address"},{"name":"spender","type":"address","indexed":true,"internalType":"address"},{"name":"value","type":"uint256","indexed":false,"internalType":"uint256"}],"anonymous":false},{"type":"event","name":"ClaimedUnwrappedERC20","inputs":[{"name":"from","type":"address","indexed":true,"internalType":"address"},{"name":"to","type":"address","indexed":true,"internalType":"address"},{"name":"value","type":"uint64","indexed":false,"internalType":"uint64"}],"anonymous":false},{"type":"event","name":"ConfidentialTransfer","inputs":[{"name":"from","type":"address","indexed":true,"internalType":"address"},{"name":"to","type":"address","indexed":true,"internalType":"address"},{"name":"value_hash","type":"uint256","indexed":false,"internalType":"uint256"}],"anonymous":false},{"type":"event","name":"OperatorSet","inputs":[{"name":"holder","type":"address","indexed":true,"internalType":"address"},{"name":"operator","type":"address","indexed":true,"internalType":"address"},{"name":"until","type":"uint48","indexed":false,"internalType":"uint48"}],"anonymous":false},{"type":"event","name":"OwnershipTransferred","inputs":[{"name":"previousOwner","type":"address","indexed":true,"internalType":"address"},{"name":"newOwner","type":"address","indexed":true,"internalType":"address"}],"anonymous":false},{"type":"event","name":"SymbolUpdated","inputs":[{"name":"symbol","type":"string","indexed":false,"internalType":"string"}],"anonymous":false},{"type":"event","name":"Transfer","inputs":[{"name":"from","type":"address","indexed":true,"internalType":"address"},{"name":"to","type":"address","indexed":true,"internalType":"address"},{"name":"value","type":"uint256","indexed":false,"internalType":"uint256"}],"anonymous":false},{"type":"event","name":"UnwrappedERC20","inputs":[{"name":"from","type":"address","indexed":true,"internalType":"address"},{"name":"to","type":"address","indexed":true,"internalType":"address"},{"name":"value","type":"uint64","indexed":false,"internalType":"uint64"}],"anonymous":false},{"type":"event","name":"WrappedERC20","inputs":[{"name":"from","type":"address","indexed":true,"internalType":"address"},{"name":"to","type":"address","indexed":true,"internalType":"address"},{"name":"value","type":"uint64","indexed":false,"internalType":"uint64"}],"anonymous":false},{"type":"error","name":"AlreadyClaimed","inputs":[]},{"type":"error","name":"ClaimNotFound","inputs":[]},{"type":"error","name":"ERC20InsufficientAllowance","inputs":[{"name":"spender","type":"address","internalType":"address"},{"name":"allowance","type":"uint256","internalType":"uint256"},{"name":"needed","type":"uint256","internalType":"uint256"}]},{"type":"error","name":"ERC20InsufficientBalance","inputs":[{"name":"sender","type":"address","internalType":"address"},{"name":"balance","type":"uint256","internalType":"uint256"},{"name":"needed","type":"uint256","internalType":"uint256"}]},{"type":"error","name":"ERC20InvalidApprover","inputs":[{"name":"approver","type":"address","internalType":"address"}]},{"type":"error","name":"ERC20InvalidReceiver","inputs":[{"name":"receiver","type":"address","internalType":"address"}]},{"type":"error","name":"ERC20InvalidSender","inputs":[{"name":"sender","type":"address","internalType":"address"}]},{"type":"error","name":"ERC20InvalidSpender","inputs":[{"name":"spender","type":"address","internalType":"address"}]},{"type":"error","name":"FHERC20ConfidentialTransferFromOwnerMismatch","inputs":[{"name":"from","type":"address","internalType":"address"},{"name":"permitOwner","type":"address","internalType":"address"}]},{"type":"error","name":"FHERC20ConfidentialTransferFromSpenderMismatch","inputs":[{"name":"to","type":"address","internalType":"address"},{"name":"permitSpender","type":"address","internalType":"address"}]},{"type":"error","name":"FHERC20ConfidentialTransferFromValueHashMismatch","inputs":[{"name":"inValueHash","type":"uint256","internalType":"uint256"},{"name":"permitValueHash","type":"uint256","internalType":"uint256"}]},{"type":"error","name":"FHERC20IncompatibleFunction","inputs":[]},{"type":"error","name":"FHERC20InvalidErc20","inputs":[{"name":"token","type":"address","internalType":"address"}]},{"type":"error","name":"FHERC20InvalidReceiver","inputs":[{"name":"receiver","type":"address","internalType":"address"}]},{"type":"error","name":"FHERC20UnauthorizedSpender","inputs":[{"name":"from","type":"address","internalType":"address"},{"name":"spender","type":"address","internalType":"address"}]},{"type":"error","name":"FHERC20UnauthorizedUseOfEncryptedAmount","inputs":[{"name":"value","type":"uint256","internalType":"euint64"},{"name":"owner","type":"address","internalType":"address"}]},{"type":"error","name":"InvalidEncryptedInput","inputs":[{"name":"got","type":"uint8","internalType":"uint8"},{"name":"expected","type":"uint8","internalType":"uint8"}]},{"type":"error","name":"InvalidRecipient","inputs":[]},{"type":"error","name":"OwnableInvalidOwner","inputs":[{"name":"owner","type":"address","internalType":"address"}]},{"type":"error","name":"OwnableUnauthorizedAccount","inputs":[{"name":"account","type":"address","internalType":"address"}]},{"type":"error","name":"SafeCastOverflowedUintDowncast","inputs":[{"name":"bits","type":"uint8","internalType":"uint8"},{"name":"value","type":"uint256","internalType":"uint256"}]},{"type":"error","name":"SafeERC20FailedOperation","inputs":[{"name":"token","type":"address","internalType":"address"}]},{"type":"error","name":"SecurityZoneOutOfBounds","inputs":[{"name":"value","type":"int32","internalType":"int32"}]}],"bytecode":{"object":"0x60a060405234801561000f575f5ffd5b50604051616185380380616185833981810160405281019061003191906106d1565b338273ffffffffffffffffffffffffffffffffffffffff166306fdde036040518163ffffffff1660e01b81526004015f60405180830381865afa15801561007a573d5f5f3e3d5ffd5b505050506040513d5f823e3d601f19601f820116820180604052508101906100a2919061072b565b6040516020016100b291906107dc565b6040516020818303038152906040525f8351146100cf578261015f565b8373ffffffffffffffffffffffffffffffffffffffff166395d89b416040518163ffffffff1660e01b81526004015f60405180830381865afa158015610117573d5f5f3e3d5ffd5b505050506040513d5f823e3d601f19601f8201168201806040525081019061013f919061072b565b60405160200161014f9190610827565b6040516020818303038152906040525b8473ffffffffffffffffffffffffffffffffffffffff1663313ce5676040518163ffffffff1660e01b8152600401602060405180830381865afa1580156101a8573d5f5f3e3d5ffd5b505050506040513d601f19601f820116820180604052508101906101cc9190610882565b82600590816101db9190610ab3565b5081600690816101eb9190610ab3565b508060075f6101000a81548160ff021916908360ff16021790555060048160ff1611156102305760048161021f9190610baf565b600a61022b9190610d12565b610233565b60015b6008819055505050505f73ffffffffffffffffffffffffffffffffffffffff168173ffffffffffffffffffffffffffffffffffffffff16036102ac575f6040517f1e4fbdf70000000000000000000000000000000000000000000000000000000081526004016102a39190610d6b565b60405180910390fd5b6102bb8161045660201b60201c565b508173ffffffffffffffffffffffffffffffffffffffff1663365ac0026040518163ffffffff1660e01b8152600401602060405180830381865afa92505050801561032457506040513d601f19601f820116820180604052508101906103219190610db9565b60015b1561036e57801561036c57826040517f265db7930000000000000000000000000000000000000000000000000000000081526004016103639190610d6b565b60405180910390fd5b505b8173ffffffffffffffffffffffffffffffffffffffff1660808173ffffffffffffffffffffffffffffffffffffffff16815250505f8151146103b05780610440565b8173ffffffffffffffffffffffffffffffffffffffff166395d89b416040518163ffffffff1660e01b81526004015f60405180830381865afa1580156103f8573d5f5f3e3d5ffd5b505050506040513d5f823e3d601f19601f82011682018060405250810190610420919061072b565b6040516020016104309190610827565b6040516020818303038152906040525b600c908161044e9190610ab3565b505050610de4565b5f60095f9054906101000a900473ffffffffffffffffffffffffffffffffffffffff1690508160095f6101000a81548173ffffffffffffffffffffffffffffffffffffffff021916908373ffffffffffffffffffffffffffffffffffffffff1602179055508173ffffffffffffffffffffffffffffffffffffffff168173ffffffffffffffffffffffffffffffffffffffff167f8be0079c531659141344cd1fd0a4f28419497f9722a3daafe3b4186f6b6457e060405160405180910390a35050565b5f604051905090565b5f5ffd5b5f5ffd5b5f73ffffffffffffffffffffffffffffffffffffffff82169050919050565b5f6105538261052a565b9050919050565b5f61056482610549565b9050919050565b6105748161055a565b811461057e575f5ffd5b50565b5f8151905061058f8161056b565b92915050565b5f5ffd5b5f5ffd5b5f601f19601f8301169050919050565b7f4e487b71000000000000000000000000000000000000000000000000000000005f52604160045260245ffd5b6105e38261059d565b810181811067ffffffffffffffff82111715610602576106016105ad565b5b80604052505050565b5f610614610519565b905061062082826105da565b919050565b5f67ffffffffffffffff82111561063f5761063e6105ad565b5b6106488261059d565b9050602081019050919050565b8281835e5f83830152505050565b5f61067561067084610625565b61060b565b90508281526020810184848401111561069157610690610599565b5b61069c848285610655565b509392505050565b5f82601f8301126106b8576106b7610595565b5b81516106c8848260208601610663565b91505092915050565b5f5f604083850312156106e7576106e6610522565b5b5f6106f485828601610581565b925050602083015167ffffffffffffffff81111561071557610714610526565b5b610721858286016106a4565b9150509250929050565b5f602082840312156107405761073f610522565b5b5f82015167ffffffffffffffff81111561075d5761075c610526565b5b610769848285016106a4565b91505092915050565b7f4648455243323020577261707065642000000000000000000000000000000000815250565b5f81519050919050565b5f81905092915050565b5f6107b682610798565b6107c081856107a2565b93506107d0818560208601610655565b80840191505092915050565b5f6107e682610772565b6010820191506107f682846107ac565b915081905092915050565b7f6500000000000000000000000000000000000000000000000000000000000000815250565b5f61083182610801565b60018201915061084182846107ac565b915081905092915050565b5f60ff82169050919050565b6108618161084c565b811461086b575f5ffd5b50565b5f8151905061087c81610858565b92915050565b5f6020828403121561089757610896610522565b5b5f6108a48482850161086e565b91505092915050565b7f4e487b71000000000000000000000000000000000000000000000000000000005f52602260045260245ffd5b5f60028204905060018216806108f157607f821691505b602082108103610904576109036108ad565b5b50919050565b5f819050815f5260205f209050919050565b5f6020601f8301049050919050565b5f82821b905092915050565b5f600883026109667fffffffffffffffffffffffffffffffffffffffffffffffffffffffffffffffff8261092b565b610970868361092b565b95508019841693508086168417925050509392505050565b5f819050919050565b5f819050919050565b5f6109b46109af6109aa84610988565b610991565b610988565b9050919050565b5f819050919050565b6109cd8361099a565b6109e16109d9826109bb565b848454610937565b825550505050565b5f5f905090565b6109f86109e9565b610a038184846109c4565b505050565b5b81811015610a2657610a1b5f826109f0565b600181019050610a09565b5050565b601f821115610a6b57610a3c8161090a565b610a458461091c565b81016020851015610a54578190505b610a68610a608561091c565b830182610a08565b50505b505050565b5f82821c905092915050565b5f610a8b5f1984600802610a70565b1980831691505092915050565b5f610aa38383610a7c565b9150826002028217905092915050565b610abc82610798565b67ffffffffffffffff811115610ad557610ad46105ad565b5b610adf82546108da565b610aea828285610a2a565b5f60209050601f831160018114610b1b575f8415610b09578287015190505b610b138582610a98565b865550610b7a565b601f198416610b298661090a565b5f5b82811015610b5057848901518255600182019150602085019450602081019050610b2b565b86831015610b6d5784890151610b69601f891682610a7c565b8355505b6001600288020188555050505b505050505050565b7f4e487b71000000000000000000000000000000000000000000000000000000005f52601160045260245ffd5b5f610bb98261084c565b9150610bc48361084c565b9250828203905060ff811115610bdd57610bdc610b82565b5b92915050565b5f8160011c9050919050565b5f5f8291508390505b6001851115610c3857808604811115610c1457610c13610b82565b5b6001851615610c235780820291505b8081029050610c3185610be3565b9450610bf8565b94509492505050565b5f82610c505760019050610d0b565b81610c5d575f9050610d0b565b8160018114610c735760028114610c7d57610cac565b6001915050610d0b565b60ff841115610c8f57610c8e610b82565b5b8360020a915084821115610ca657610ca5610b82565b5b50610d0b565b5060208310610133831016604e8410600b8410161715610ce15782820a905083811115610cdc57610cdb610b82565b5b610d0b565b610cee8484846001610bef565b92509050818404811115610d0557610d04610b82565b5b81810290505b9392505050565b5f610d1c82610988565b9150610d278361084c565b9250610d547fffffffffffffffffffffffffffffffffffffffffffffffffffffffffffffffff8484610c41565b905092915050565b610d6581610549565b82525050565b5f602082019050610d7e5f830184610d5c565b92915050565b5f8115159050919050565b610d9881610d84565b8114610da2575f5ffd5b50565b5f81519050610db381610d8f565b92915050565b5f60208284031215610dce57610dcd610522565b5b5f610ddb84828501610da5565b91505092915050565b608051615374610e115f395f818161092601528181610d2b0152818161120001526114e301526153745ff3fe608060405234801561000f575f5ffd5b506004361061021a575f3560e01c80638da5cb5b11610123578063b6363cf2116100ab578063d4febb961161007a578063d4febb9614610678578063dd62ed3e14610694578063f2fde38b146106c4578063fca114d6146106e0578063fe3f670d146107105761021a565b8063b6363cf2146105cc578063b8914978146105fc578063ca49d7cd14610618578063d174999a146106485761021a565b8063a703bd3c116100f2578063a703bd3c14610516578063a794ee9514610532578063a9059cbb14610562578063a9fe995914610592578063b4b20190146105c25761021a565b80638da5cb5b1461048c57806395d89b41146104aa5780639645edd4146104c8578063a415f269146104f85761021a565b80634c4c029c116101a657806370a082311161017557806370a08231146103d4578063715018a614610404578063785e9e861461040e5780637bcb4a641461042c5780637edb0e7d1461045c5761021a565b80634c4c029c1461034e578063537f53121461036a57806354095227146103865780635aef2447146103a45761021a565b8063313ce567116101ed578063313ce567146102ba578063344ff101146102d8578063365ac0021461030857806338bffe4a14610326578063490690f3146103305761021a565b806306fdde031461021e578063095ea7b31461023c57806318160ddd1461026c57806323b872dd1461028a575b5f5ffd5b610226610740565b6040516102339190613c1c565b60405180910390f35b61025660048036038101906102519190613cda565b6107d0565b6040516102639190613d32565b60405180910390f35b610274610803565b6040516102819190613d5a565b60405180910390f35b6102a4600480360381019061029f9190613d73565b61082a565b6040516102b19190613d32565b60405180910390f35b6102c261085d565b6040516102cf9190613dde565b60405180910390f35b6102f260048036038101906102ed9190613df7565b610872565b6040516102ff9190613e5b565b60405180910390f35b6103106108b8565b60405161031d9190613d32565b60405180910390f35b61032e6108c0565b005b610338610a1c565b6040516103459190613d5a565b60405180910390f35b61036860048036038101906103639190613eb1565b610a25565b005b610384600480360381019061037f919061401b565b610ae7565b005b61038e610b39565b60405161039b9190613e5b565b60405180910390f35b6103be60048036038101906103b99190614062565b610b42565b6040516103cb9190614142565b60405180910390f35b6103ee60048036038101906103e99190613df7565b610cb2565b6040516103fb9190613d5a565b60405180910390f35b61040c610d15565b005b610416610d28565b60405161042391906141ad565b60405180910390f35b61044660048036038101906104419190613df7565b610d4f565b60405161045391906142e7565b60405180910390f35b61047660048036038101906104719190614468565b610ff9565b6040516104839190613e5b565b60405180910390f35b610494611068565b6040516104a191906144e3565b60405180910390f35b6104b2611090565b6040516104bf9190613c1c565b60405180910390f35b6104e260048036038101906104dd9190614583565b611120565b6040516104ef9190613e5b565b60405180910390f35b6105006111d3565b60405161050d9190613d32565b60405180910390f35b610530600480360381019061052b9190614062565b6111db565b005b61054c60048036038101906105479190614607565b6112b5565b6040516105599190613e5b565b60405180910390f35b61057c60048036038101906105779190613cda565b6112d6565b6040516105899190613d32565b60405180910390f35b6105ac60048036038101906105a79190614661565b611309565b6040516105b99190613e5b565b60405180910390f35b6105ca61136e565b005b6105e660048036038101906105e191906146d2565b6113c6565b6040516105f39190613d32565b60405180910390f35b61061660048036038101906106119190613eb1565b61149a565b005b610632600480360381019061062d9190614710565b61159c565b60405161063f9190613e5b565b60405180910390f35b610662600480360381019061065d9190614760565b61164b565b60405161066f9190613e5b565b60405180910390f35b610692600480360381019061068d9190614828565b611670565b005b6106ae60048036038101906106a991906146d2565b61167f565b6040516106bb9190613d5a565b60405180910390f35b6106de60048036038101906106d99190613df7565b6116b2565b005b6106fa60048036038101906106f59190614866565b611736565b6040516107079190613e5b565b60405180910390f35b61072a60048036038101906107259190614906565b6117a9565b6040516107379190613e5b565b60405180910390f35b60606005805461074f90614971565b80601f016020809104026020016040519081016040528092919081815260200182805461077b90614971565b80156107c65780601f1061079d576101008083540402835291602001916107c6565b820191905f5260205f20905b8154815290600101906020018083116107a957829003601f168201915b5050505050905090565b5f6040517fd411f9a900000000000000000000000000000000000000000000000000000000815260040160405180910390fd5b5f60085460035f9054906101000a900461ffff1661ffff1661082591906149ce565b905090565b5f6040517fd411f9a900000000000000000000000000000000000000000000000000000000815260040160405180910390fd5b5f60075f9054906101000a900460ff16905090565b5f60015f8373ffffffffffffffffffffffffffffffffffffffff1673ffffffffffffffffffffffffffffffffffffffff1681526020019081526020015f20549050919050565b5f6001905090565b5f6108c961180a565b90505f5f90505b8151811015610a185761096a8282815181106108ef576108ee614a0f565b5b60200260200101516080015183838151811061090e5761090d614a0f565b5b60200260200101516040015167ffffffffffffffff167f000000000000000000000000000000000000000000000000000000000000000073ffffffffffffffffffffffffffffffffffffffff1661194f9092919063ffffffff16565b81818151811061097d5761097c614a0f565b5b60200260200101516080015173ffffffffffffffffffffffffffffffffffffffff163373ffffffffffffffffffffffffffffffffffffffff167fcce47647859af432879c08cb693cb4e857d22a96e7cf791a6f0c320cd2b0c2958484815181106109ea576109e9614a0f565b5b602002602001015160400151604051610a039190614a4b565b60405180910390a380806001019150506108d0565b5050565b5f600854905090565b5f73ffffffffffffffffffffffffffffffffffffffff168273ffffffffffffffffffffffffffffffffffffffff1603610a5c573391505b5f610a6733836119ce565b9050610a7281611a64565b610a7d838383611a8a565b8273ffffffffffffffffffffffffffffffffffffffff163373ffffffffffffffffffffffffffffffffffffffff167f54d4532be0719d93fd7a9306d3ae756df7d4436c6d88d6552eb036f048d0327f84604051610ada9190614a4b565b60405180910390a3505050565b610aef611c39565b80600c9081610afe9190614bda565b507fee007fd2e1891a2f6c8408b57ade5b0550dea71a5a06cc4df7ded4646a4584a581604051610b2e9190613c1c565b60405180910390a150565b5f600454905090565b610b4a613b23565b5f600a5f8481526020019081526020015f206040518060c00160405290815f8201548152602001600182015f9054906101000a900467ffffffffffffffff1667ffffffffffffffff1667ffffffffffffffff1681526020016001820160089054906101000a900467ffffffffffffffff1667ffffffffffffffff1667ffffffffffffffff1681526020016001820160109054906101000a900460ff16151515158152602001600282015f9054906101000a900473ffffffffffffffffffffffffffffffffffffffff1673ffffffffffffffffffffffffffffffffffffffff1673ffffffffffffffffffffffffffffffffffffffff1681526020016002820160149054906101000a900460ff16151515158152505090505f5f610c6b85611cc0565b91509150610c7882611cde565b836040019067ffffffffffffffff16908167ffffffffffffffff168152505080836060019015159081151581525050829350505050919050565b5f6008545f5f8473ffffffffffffffffffffffffffffffffffffffff1673ffffffffffffffffffffffffffffffffffffffff1681526020019081526020015f205f9054906101000a900461ffff1661ffff16610d0e91906149ce565b9050919050565b610d1d611c39565b610d265f611d39565b565b5f7f0000000000000000000000000000000000000000000000000000000000000000905090565b60605f610d97600b5f8573ffffffffffffffffffffffffffffffffffffffff1673ffffffffffffffffffffffffffffffffffffffff1681526020019081526020015f20611dfc565b90505f815167ffffffffffffffff811115610db557610db4613ef7565b5b604051908082528060200260200182016040528015610dee57816020015b610ddb613b23565b815260200190600190039081610dd35790505b5090505f5f90505b8251811015610fee57600a5f848381518110610e1557610e14614a0f565b5b602002602001015181526020019081526020015f206040518060c00160405290815f8201548152602001600182015f9054906101000a900467ffffffffffffffff1667ffffffffffffffff1667ffffffffffffffff1681526020016001820160089054906101000a900467ffffffffffffffff1667ffffffffffffffff1667ffffffffffffffff1681526020016001820160109054906101000a900460ff16151515158152602001600282015f9054906101000a900473ffffffffffffffffffffffffffffffffffffffff1673ffffffffffffffffffffffffffffffffffffffff1673ffffffffffffffffffffffffffffffffffffffff1681526020016002820160149054906101000a900460ff161515151581525050828281518110610f3f57610f3e614a0f565b5b60200260200101819052505f5f610f6f858481518110610f6257610f61614a0f565b5b6020026020010151611cc0565b91509150610f7c82611cde565b848481518110610f8f57610f8e614a0f565b5b60200260200101516040019067ffffffffffffffff16908167ffffffffffffffff168152505080848481518110610fc957610fc8614a0f565b5b6020026020010151606001901515908115158152505050508080600101915050610df6565b508092505050919050565b5f61100484336113c6565b6110475783336040517fd2251dd500000000000000000000000000000000000000000000000000000000815260040161103e929190614ca9565b60405180910390fd5b5f61105183611e1b565b905061105e858583611e8e565b9150509392505050565b5f60095f9054906101000a900473ffffffffffffffffffffffffffffffffffffffff16905090565b6060600c805461109f90614971565b80601f01602080910402602001604051908101604052809291908181526020018280546110cb90614971565b80156111165780601f106110ed57610100808354040283529160200191611116565b820191905f5260205f20905b8154815290600101906020018083116110f957829003601f168201915b5050505050905090565b5f61112b8433611f83565b61116e5783336040517fd5fdb3f0000000000000000000000000000000000000000000000000000000008152600401611165929190614cd0565b60405180910390fd5b61117886336113c6565b6111bb5785336040517fd2251dd50000000000000000000000000000000000000000000000000000000081526004016111b2929190614ca9565b60405180910390fd5b6111c8868686868661201b565b905095945050505050565b5f6001905090565b5f6111e582612073565b90506112448160800151826040015167ffffffffffffffff167f000000000000000000000000000000000000000000000000000000000000000073ffffffffffffffffffffffffffffffffffffffff1661194f9092919063ffffffff16565b806080015173ffffffffffffffffffffffffffffffffffffffff163373ffffffffffffffffffffffffffffffffffffffff167fcce47647859af432879c08cb693cb4e857d22a96e7cf791a6f0c320cd2b0c29583604001516040516112a99190614a4b565b60405180910390a35050565b5f5f6112c083611e1b565b90506112cd338583611e8e565b91505092915050565b5f6040517fd411f9a900000000000000000000000000000000000000000000000000000000815260040160405180910390fd5b5f6113148433611f83565b6113575783336040517fd5fdb3f000000000000000000000000000000000000000000000000000000000815260040161134e929190614cd0565b60405180910390fd5b611364338686868661201b565b9050949350505050565b5f5f5f3373ffffffffffffffffffffffffffffffffffffffff1673ffffffffffffffffffffffffffffffffffffffff1681526020019081526020015f205f6101000a81548161ffff021916908361ffff160217905550565b5f8173ffffffffffffffffffffffffffffffffffffffff168373ffffffffffffffffffffffffffffffffffffffff161480611492575060025f8473ffffffffffffffffffffffffffffffffffffffff1673ffffffffffffffffffffffffffffffffffffffff1681526020019081526020015f205f8373ffffffffffffffffffffffffffffffffffffffff1673ffffffffffffffffffffffffffffffffffffffff1681526020019081526020015f205f9054906101000a900465ffffffffffff1665ffffffffffff164211155b905092915050565b5f73ffffffffffffffffffffffffffffffffffffffff168273ffffffffffffffffffffffffffffffffffffffff16036114d1573391505b61152833308367ffffffffffffffff167f000000000000000000000000000000000000000000000000000000000000000073ffffffffffffffffffffffffffffffffffffffff166123e5909392919063ffffffff16565b6115328282612467565b508173ffffffffffffffffffffffffffffffffffffffff163373ffffffffffffffffffffffffffffffffffffffff167faf330407999440460da44ffb06565dfc77fa9d13c37ae750cb7175945b8cad7d836040516115909190614a4b565b60405180910390a35050565b5f6115a78233611f83565b6115ea5781336040517fd5fdb3f00000000000000000000000000000000000000000000000000000000081526004016115e1929190614cd0565b60405180910390fd5b6115f484336113c6565b6116375783336040517fd2251dd500000000000000000000000000000000000000000000000000000000815260040161162e929190614ca9565b60405180910390fd5b611642848484611e8e565b90509392505050565b5f5f61165685611e1b565b9050611665338783878761201b565b915050949350505050565b61167b3383836124fd565b5050565b5f6040517fd411f9a900000000000000000000000000000000000000000000000000000000815260040160405180910390fd5b6116ba611c39565b5f73ffffffffffffffffffffffffffffffffffffffff168173ffffffffffffffffffffffffffffffffffffffff160361172a575f6040517f1e4fbdf700000000000000000000000000000000000000000000000000000000815260040161172191906144e3565b60405180910390fd5b61173381611d39565b50565b5f61174186336113c6565b6117845785336040517fd2251dd500000000000000000000000000000000000000000000000000000000815260040161177b929190614ca9565b60405180910390fd5b5f61178e85611e1b565b905061179d878783878761201b565b91505095945050505050565b5f6117b48233611f83565b6117f75781336040517fd5fdb3f00000000000000000000000000000000000000000000000000000000081526004016117ee929190614cd0565b60405180910390fd5b611802338484611e8e565b905092915050565b6060611851600b5f3373ffffffffffffffffffffffffffffffffffffffff1673ffffffffffffffffffffffffffffffffffffffff1681526020019081526020015f20612601565b67ffffffffffffffff81111561186a57611869613ef7565b5b6040519080825280602002602001820160405280156118a357816020015b611890613b23565b8152602001906001900390816118885790505b5090505f6118ec600b5f3373ffffffffffffffffffffffffffffffffffffffff1673ffffffffffffffffffffffffffffffffffffffff1681526020019081526020015f20611dfc565b90505f5f90505b815181101561194a5761191f82828151811061191257611911614a0f565b5b6020026020010151612073565b83828151811061193257611931614a0f565b5b602002602001018190525080806001019150506118f3565b505090565b6119c9838473ffffffffffffffffffffffffffffffffffffffff1663a9059cbb8585604051602401611982929190614cf7565b604051602081830303815290604052915060e01b6020820180517bffffffffffffffffffffffffffffffffffffffffffffffffffffffff8381831617835250505050612614565b505050565b5f5f73ffffffffffffffffffffffffffffffffffffffff168373ffffffffffffffffffffffffffffffffffffffff1603611a3f575f6040517f96c6fd1e000000000000000000000000000000000000000000000000000000008152600401611a3691906144e3565b60405180910390fd5b611a5c835f611a578567ffffffffffffffff166126af565b6126c1565b905092915050565b611a6d81612d5c565b611a7d57611a7a5f6126af565b90505b611a8681612d6d565b5050565b6040518060c001604052808281526020018367ffffffffffffffff1681526020015f67ffffffffffffffff1681526020015f151581526020018473ffffffffffffffffffffffffffffffffffffffff1681526020015f1515815250600a5f8381526020019081526020015f205f820151815f01556020820151816001015f6101000a81548167ffffffffffffffff021916908367ffffffffffffffff16021790555060408201518160010160086101000a81548167ffffffffffffffff021916908367ffffffffffffffff16021790555060608201518160010160106101000a81548160ff0219169083151502179055506080820151816002015f6101000a81548173ffffffffffffffffffffffffffffffffffffffff021916908373ffffffffffffffffffffffffffffffffffffffff16021790555060a08201518160020160146101000a81548160ff021916908315150217905550905050611c3381600b5f8673ffffffffffffffffffffffffffffffffffffffff1673ffffffffffffffffffffffffffffffffffffffff1681526020019081526020015f20612df290919063ffffffff16565b50505050565b611c41612e09565b73ffffffffffffffffffffffffffffffffffffffff16611c5f611068565b73ffffffffffffffffffffffffffffffffffffffff1614611cbe57611c82612e09565b6040517f118cdaa7000000000000000000000000000000000000000000000000000000008152600401611cb591906144e3565b60405180910390fd5b565b5f5f5f5f611ccd85612e10565b915091508181935093505050915091565b5f67ffffffffffffffff8016821115611d31576040826040517f6dfcc650000000000000000000000000000000000000000000000000000000008152600401611d28929190614d57565b60405180910390fd5b819050919050565b5f60095f9054906101000a900473ffffffffffffffffffffffffffffffffffffffff1690508160095f6101000a81548173ffffffffffffffffffffffffffffffffffffffff021916908373ffffffffffffffffffffffffffffffffffffffff1602179055508173ffffffffffffffffffffffffffffffffffffffff168173ffffffffffffffffffffffffffffffffffffffff167f8be0079c531659141344cd1fd0a4f28419497f9722a3daafe3b4186f6b6457e060405160405180910390a35050565b60605f611e0a835f01612ea6565b905060608190508092505050919050565b5f5f600590508060ff16836040015160ff1614611e75578260400151816040517f67cf3071000000000000000000000000000000000000000000000000000000008152600401611e6c929190614d7e565b60405180910390fd5b611e86611e8184612eff565b612f41565b915050919050565b5f5f73ffffffffffffffffffffffffffffffffffffffff168473ffffffffffffffffffffffffffffffffffffffff1603611eff575f6040517f96c6fd1e000000000000000000000000000000000000000000000000000000008152600401611ef691906144e3565b60405180910390fd5b5f73ffffffffffffffffffffffffffffffffffffffff168373ffffffffffffffffffffffffffffffffffffffff1603611f6f575f6040517fec442f05000000000000000000000000000000000000000000000000000000008152600401611f6691906144e3565b60405180910390fd5b611f7a8484846126c1565b90509392505050565b5f73ea30c4b8b44078bbf8a6ef5b9f1ec1626c7848d973ffffffffffffffffffffffffffffffffffffffff16635faa299a84846040518363ffffffff1660e01b8152600401611fd3929190614da5565b6020604051808303815f875af1158015611fef573d5f5f3e3d5ffd5b505050506040513d601f19601f820116820180604052508101906120139190614df6565b905092915050565b5f5f612028878787611e8e565b90505f612039338989858989612fd8565b90505f612059888a6120548561204e5f6126af565b88613115565b6126c1565b90506120658382613177565b935050505095945050505050565b61207b613b23565b600a5f8381526020019081526020015f206040518060c00160405290815f8201548152602001600182015f9054906101000a900467ffffffffffffffff1667ffffffffffffffff1667ffffffffffffffff1681526020016001820160089054906101000a900467ffffffffffffffff1667ffffffffffffffff1667ffffffffffffffff1681526020016001820160109054906101000a900460ff16151515158152602001600282015f9054906101000a900473ffffffffffffffffffffffffffffffffffffffff1673ffffffffffffffffffffffffffffffffffffffff1673ffffffffffffffffffffffffffffffffffffffff1681526020016002820160149054906101000a900460ff16151515158152505090505f73ffffffffffffffffffffffffffffffffffffffff16816080015173ffffffffffffffffffffffffffffffffffffffff16036121f9576040517f0455eeee00000000000000000000000000000000000000000000000000000000815260040160405180910390fd5b8060a0015115612235576040517f646cf55800000000000000000000000000000000000000000000000000000000815260040160405180910390fd5b5f612247612242846131c0565b611cde565b905080826040019067ffffffffffffffff16908167ffffffffffffffff1681525050600182606001901515908115158152505060018260a001901515908115158152505081600a5f8581526020019081526020015f205f820151815f01556020820151816001015f6101000a81548167ffffffffffffffff021916908367ffffffffffffffff16021790555060408201518160010160086101000a81548167ffffffffffffffff021916908367ffffffffffffffff16021790555060608201518160010160106101000a81548160ff0219169083151502179055506080820151816002015f6101000a81548173ffffffffffffffffffffffffffffffffffffffff021916908373ffffffffffffffffffffffffffffffffffffffff16021790555060a08201518160020160146101000a81548160ff0219169083151502179055509050506123de83600b5f856080015173ffffffffffffffffffffffffffffffffffffffff1673ffffffffffffffffffffffffffffffffffffffff1681526020019081526020015f206131d190919063ffffffff16565b5050919050565b612461848573ffffffffffffffffffffffffffffffffffffffff166323b872dd86868660405160240161241a93929190614e21565b604051602081830303815290604052915060e01b6020820180517bffffffffffffffffffffffffffffffffffffffffffffffffffffffff8381831617835250505050612614565b50505050565b5f5f73ffffffffffffffffffffffffffffffffffffffff168373ffffffffffffffffffffffffffffffffffffffff16036124d8575f6040517fec442f050000000000000000000000000000000000000000000000000000000081526004016124cf91906144e3565b60405180910390fd5b6124f55f846124f08567ffffffffffffffff166126af565b6126c1565b905092915050565b8060025f8573ffffffffffffffffffffffffffffffffffffffff1673ffffffffffffffffffffffffffffffffffffffff1681526020019081526020015f205f8473ffffffffffffffffffffffffffffffffffffffff1673ffffffffffffffffffffffffffffffffffffffff1681526020019081526020015f205f6101000a81548165ffffffffffff021916908365ffffffffffff1602179055508173ffffffffffffffffffffffffffffffffffffffff168373ffffffffffffffffffffffffffffffffffffffff167f921a218a75d18e8ec5704851e6b234a85725b21a2521ce889622c35dedc1fa12836040516125f49190614e65565b60405180910390a3505050565b5f61260d825f016131e8565b9050919050565b5f5f60205f8451602086015f885af180612633576040513d5f823e3d81fd5b3d92505f519150505f821461264c576001811415612667565b5f8473ffffffffffffffffffffffffffffffffffffffff163b145b156126a957836040517f5274afe70000000000000000000000000000000000000000000000000000000081526004016126a091906144e3565b60405180910390fd5b50505050565b5f6126ba825f6131f7565b9050919050565b5f5f73ffffffffffffffffffffffffffffffffffffffff168473ffffffffffffffffffffffffffffffffffffffff161461275e5761275761274860015f8773ffffffffffffffffffffffffffffffffffffffff1673ffffffffffffffffffffffffffffffffffffffff1681526020019081526020015f20548461321190919063ffffffff16565b836127525f6126af565b613115565b9050612762565b8190505b5f73ffffffffffffffffffffffffffffffffffffffff168473ffffffffffffffffffffffffffffffffffffffff16036127df576127ad60035f9054906101000a900461ffff16613224565b60035f6101000a81548161ffff021916908361ffff1602179055506127d460045482613260565b60048190555061290f565b61282660015f8673ffffffffffffffffffffffffffffffffffffffff1673ffffffffffffffffffffffffffffffffffffffff1681526020019081526020015f205482613177565b60015f8673ffffffffffffffffffffffffffffffffffffffff1673ffffffffffffffffffffffffffffffffffffffff1681526020019081526020015f20819055506128b95f5f8673ffffffffffffffffffffffffffffffffffffffff1673ffffffffffffffffffffffffffffffffffffffff1681526020019081526020015f205f9054906101000a900461ffff166132a9565b5f5f8673ffffffffffffffffffffffffffffffffffffffff1673ffffffffffffffffffffffffffffffffffffffff1681526020019081526020015f205f6101000a81548161ffff021916908361ffff1602179055505b5f73ffffffffffffffffffffffffffffffffffffffff168373ffffffffffffffffffffffffffffffffffffffff160361298c5761295a60035f9054906101000a900461ffff166132a9565b60035f6101000a81548161ffff021916908361ffff16021790555061298160045482613177565b600481905550612abc565b6129d360015f8573ffffffffffffffffffffffffffffffffffffffff1673ffffffffffffffffffffffffffffffffffffffff1681526020019081526020015f205482613260565b60015f8573ffffffffffffffffffffffffffffffffffffffff1673ffffffffffffffffffffffffffffffffffffffff1681526020019081526020015f2081905550612a665f5f8573ffffffffffffffffffffffffffffffffffffffff1673ffffffffffffffffffffffffffffffffffffffff1681526020019081526020015f205f9054906101000a900461ffff16613224565b5f5f8573ffffffffffffffffffffffffffffffffffffffff1673ffffffffffffffffffffffffffffffffffffffff1681526020019081526020015f205f6101000a81548161ffff021916908361ffff1602179055505b5f60015f8673ffffffffffffffffffffffffffffffffffffffff1673ffffffffffffffffffffffffffffffffffffffff1681526020019081526020015f205414612b9857612b4660015f8673ffffffffffffffffffffffffffffffffffffffff1673ffffffffffffffffffffffffffffffffffffffff1681526020019081526020015f20546132e4565b612b8d60015f8673ffffffffffffffffffffffffffffffffffffffff1673ffffffffffffffffffffffffffffffffffffffff1681526020019081526020015f205485613363565b612b978185613363565b5b5f60015f8573ffffffffffffffffffffffffffffffffffffffff1673ffffffffffffffffffffffffffffffffffffffff1681526020019081526020015f205414612c7457612c2260015f8573ffffffffffffffffffffffffffffffffffffffff1673ffffffffffffffffffffffffffffffffffffffff1681526020019081526020015f20546132e4565b612c6960015f8573ffffffffffffffffffffffffffffffffffffffff1673ffffffffffffffffffffffffffffffffffffffff1681526020019081526020015f205484613363565b612c738184613363565b5b612c7e8133613363565b612c896004546132e4565b8273ffffffffffffffffffffffffffffffffffffffff168473ffffffffffffffffffffffffffffffffffffffff167fddf252ad1be2c89b69c2b068fc378daa952ba7f163c4a11628f55a4df523b3ef600854604051612ce89190613d5a565b60405180910390a38273ffffffffffffffffffffffffffffffffffffffff168473ffffffffffffffffffffffffffffffffffffffff167fdef6144e0f80e23ca465862f2f93a21f8526624729198aed904b46e005c943e483604051612d4d9190613d5a565b60405180910390a39392505050565b5f612d66826133e3565b9050919050565b5f73020000000000000000000000000000000000008073ffffffffffffffffffffffffffffffffffffffff16630828982783336040518363ffffffff1660e01b8152600401612dbd929190614da5565b5f604051808303815f87803b158015612dd4575f5ffd5b505af1158015612de6573d5f5f3e3d5ffd5b50505050819050919050565b5f612e01835f01835f1b6133ef565b905092915050565b5f33905090565b5f5f73020000000000000000000000000000000000008073ffffffffffffffffffffffffffffffffffffffff1663458693c9846040518263ffffffff1660e01b8152600401612e5f9190613d5a565b6040805180830381865afa158015612e79573d5f5f3e3d5ffd5b505050506040513d601f19601f82011682018060405250810190612e9d9190614e92565b91509150915091565b6060815f01805480602002602001604051908101604052809291908181526020018280548015612ef357602002820191905f5260205f20905b815481526020019060010190808311612edf575b50505050509050919050565b612f07613b81565b6040518060800160405280835f01518152602001836020015160ff168152602001600560ff16815260200183606001518152509050919050565b5f73020000000000000000000000000000000000008073ffffffffffffffffffffffffffffffffffffffff166327f9c76283336040518363ffffffff1660e01b8152600401612f91929190614f91565b6020604051808303815f875af1158015612fad573d5f5f3e3d5ffd5b505050506040513d601f19601f82011682018060405250810190612fd19190614fbf565b9050919050565b5f5f8573ffffffffffffffffffffffffffffffffffffffff163b11156130fe578473ffffffffffffffffffffffffffffffffffffffff1663944e3ddb88888787876040518663ffffffff1660e01b8152600401613039959493929190615026565b6020604051808303815f875af192505050801561307457506040513d601f19601f82011682018060405250810190613071919061509c565b60015b6130f5573d805f81146130a2576040519150601f19603f3d011682016040523d82523d5f602084013e6130a7565b606091505b505f8151036130ed57856040517f502133790000000000000000000000000000000000000000000000000000000081526004016130e491906144e3565b60405180910390fd5b805181602001fd5b8091505061310b565b6131086001613456565b90505b9695505050505050565b5f61311f84613468565b61312f5761312c5f613456565b93505b61313883612d5c565b613148576131455f6126af565b92505b61315182612d5c565b6131615761315e5f6126af565b91505b61316e6005858585613479565b90509392505050565b5f61318183612d5c565b6131915761318e5f6126af565b92505b61319a82612d5c565b6131aa576131a75f6126af565b91505b6131b860058484600761356a565b905092915050565b5f6131ca82613659565b9050919050565b5f6131e0835f01835f1b6136ed565b905092915050565b5f815f01805490509050919050565b5f5f613205846005856137e9565b90508091505092915050565b5f61321c83836138e4565b905092915050565b5f5f8261ffff16148061323c575061270f8261ffff16145b1561324b57611389905061325b565b60018261325891906150d4565b90505b919050565b5f61326a83612d5c565b61327a576132775f6126af565b92505b61328382612d5c565b613293576132905f6126af565b91505b6132a160058484600861356a565b905092915050565b5f5f8261ffff1614806132c0575060018261ffff16145b156132cf5761138790506132df565b6001826132dc9190615109565b90505b919050565b73ea30c4b8b44078bbf8a6ef5b9f1ec1626c7848d973ffffffffffffffffffffffffffffffffffffffff166365d0509c82306040518363ffffffff1660e01b8152600401613333929190614da5565b5f604051808303815f87803b15801561334a575f5ffd5b505af115801561335c573d5f5f3e3d5ffd5b5050505050565b73ea30c4b8b44078bbf8a6ef5b9f1ec1626c7848d973ffffffffffffffffffffffffffffffffffffffff166365d0509c83836040518363ffffffff1660e01b81526004016133b2929190614da5565b5f604051808303815f87803b1580156133c9575f5ffd5b505af11580156133db573d5f5f3e3d5ffd5b505050505050565b5f5f8214159050919050565b5f6133fa838361392d565b61344c57825f0182908060018154018082558091505060019003905f5260205f20015f9091909190915055825f0180549050836001015f8481526020019081526020015f208190555060019050613450565b5f90505b92915050565b5f613461825f61394d565b9050919050565b5f613472826133e3565b9050919050565b5f73020000000000000000000000000000000000008073ffffffffffffffffffffffffffffffffffffffff16631888debd8660046134b8888888613976565b5f67ffffffffffffffff8111156134d2576134d1613ef7565b5b6040519080825280602002602001820160405280156135005781602001602082028036833780820191505090505b506040518563ffffffff1660e01b81526004016135209493929190615259565b6020604051808303815f875af115801561353c573d5f5f3e3d5ffd5b505050506040513d601f19601f820116820180604052508101906135609190614fbf565b9050949350505050565b5f73020000000000000000000000000000000000008073ffffffffffffffffffffffffffffffffffffffff16631888debd86846135a78888613a32565b5f67ffffffffffffffff8111156135c1576135c0613ef7565b5b6040519080825280602002602001820160405280156135ef5781602001602082028036833780820191505090505b506040518563ffffffff1660e01b815260040161360f9493929190615259565b6020604051808303815f875af115801561362b573d5f5f3e3d5ffd5b505050506040513d601f19601f8201168201806040525081019061364f9190614fbf565b9050949350505050565b5f73020000000000000000000000000000000000008073ffffffffffffffffffffffffffffffffffffffff1663f6bc7f3f836040518263ffffffff1660e01b81526004016136a79190613d5a565b602060405180830381865afa1580156136c2573d5f5f3e3d5ffd5b505050506040513d601f19601f820116820180604052508101906136e69190614fbf565b9050919050565b5f5f836001015f8481526020019081526020015f205490505f81146137de575f60018261371a91906152aa565b90505f6001865f018054905061373091906152aa565b9050808214613796575f865f01828154811061374f5761374e614a0f565b5b905f5260205f200154905080875f0184815481106137705761376f614a0f565b5b905f5260205f20018190555083876001015f8381526020019081526020015f2081905550505b855f018054806137a9576137a86152dd565b5b600190038181905f5260205f20015f90559055856001015f8681526020019081526020015f205f9055600193505050506137e3565b5f9150505b92915050565b5f73020000000000000000000000000000000000008073ffffffffffffffffffffffffffffffffffffffff16631888debd84601a5f67ffffffffffffffff81111561383757613836613ef7565b5b6040519080825280602002602001820160405280156138655781602001602082028036833780820191505090505b5061387c898960ff166138778a613acc565b613976565b6040518563ffffffff1660e01b815260040161389b9493929190615259565b6020604051808303815f875af11580156138b7573d5f5f3e3d5ffd5b505050506040513d601f19601f820116820180604052508101906138db9190614fbf565b90509392505050565b5f6138ee83612d5c565b6138fe576138fb5f6126af565b92505b61390782612d5c565b613917576139145f6126af565b91505b61392560058484601361356a565b905092915050565b5f5f836001015f8481526020019081526020015f20541415905092915050565b5f5f5f9050831561395d57600190505b5f613969825f866137e9565b9050809250505092915050565b60605f600367ffffffffffffffff81111561399457613993613ef7565b5b6040519080825280602002602001820160405280156139c25781602001602082028036833780820191505090505b50905084815f815181106139d9576139d8614a0f565b5b60200260200101818152505083816001815181106139fa576139f9614a0f565b5b6020026020010181815250508281600281518110613a1b57613a1a614a0f565b5b602002602001018181525050809150509392505050565b60605f600267ffffffffffffffff811115613a5057613a4f613ef7565b5b604051908082528060200260200182016040528015613a7e5781602001602082028036833780820191505090505b50905083815f81518110613a9557613a94614a0f565b5b6020026020010181815250508281600181518110613ab657613ab5614a0f565b5b6020026020010181815250508091505092915050565b5f5f8260030b1215613b1557816040517f8f568bf8000000000000000000000000000000000000000000000000000000008152600401613b0c9190615325565b60405180910390fd5b8163ffffffff169050919050565b6040518060c001604052805f81526020015f67ffffffffffffffff1681526020015f67ffffffffffffffff1681526020015f151581526020015f73ffffffffffffffffffffffffffffffffffffffff1681526020015f151581525090565b60405180608001604052805f81526020015f60ff1681526020015f60ff168152602001606081525090565b5f81519050919050565b5f82825260208201905092915050565b8281835e5f83830152505050565b5f601f19601f8301169050919050565b5f613bee82613bac565b613bf88185613bb6565b9350613c08818560208601613bc6565b613c1181613bd4565b840191505092915050565b5f6020820190508181035f830152613c348184613be4565b905092915050565b5f604051905090565b5f5ffd5b5f5ffd5b5f73ffffffffffffffffffffffffffffffffffffffff82169050919050565b5f613c7682613c4d565b9050919050565b613c8681613c6c565b8114613c90575f5ffd5b50565b5f81359050613ca181613c7d565b92915050565b5f819050919050565b613cb981613ca7565b8114613cc3575f5ffd5b50565b5f81359050613cd481613cb0565b92915050565b5f5f60408385031215613cf057613cef613c45565b5b5f613cfd85828601613c93565b9250506020613d0e85828601613cc6565b9150509250929050565b5f8115159050919050565b613d2c81613d18565b82525050565b5f602082019050613d455f830184613d23565b92915050565b613d5481613ca7565b82525050565b5f602082019050613d6d5f830184613d4b565b92915050565b5f5f5f60608486031215613d8a57613d89613c45565b5b5f613d9786828701613c93565b9350506020613da886828701613c93565b9250506040613db986828701613cc6565b9150509250925092565b5f60ff82169050919050565b613dd881613dc3565b82525050565b5f602082019050613df15f830184613dcf565b92915050565b5f60208284031215613e0c57613e0b613c45565b5b5f613e1984828501613c93565b91505092915050565b5f819050919050565b5f613e45613e40613e3b84613ca7565b613e22565b613ca7565b9050919050565b613e5581613e2b565b82525050565b5f602082019050613e6e5f830184613e4c565b92915050565b5f67ffffffffffffffff82169050919050565b613e9081613e74565b8114613e9a575f5ffd5b50565b5f81359050613eab81613e87565b92915050565b5f5f60408385031215613ec757613ec6613c45565b5b5f613ed485828601613c93565b9250506020613ee585828601613e9d565b9150509250929050565b5f5ffd5b5f5ffd5b7f4e487b71000000000000000000000000000000000000000000000000000000005f52604160045260245ffd5b613f2d82613bd4565b810181811067ffffffffffffffff82111715613f4c57613f4b613ef7565b5b80604052505050565b5f613f5e613c3c565b9050613f6a8282613f24565b919050565b5f67ffffffffffffffff821115613f8957613f88613ef7565b5b613f9282613bd4565b9050602081019050919050565b828183375f83830152505050565b5f613fbf613fba84613f6f565b613f55565b905082815260208101848484011115613fdb57613fda613ef3565b5b613fe6848285613f9f565b509392505050565b5f82601f83011261400257614001613eef565b5b8135614012848260208601613fad565b91505092915050565b5f602082840312156140305761402f613c45565b5b5f82013567ffffffffffffffff81111561404d5761404c613c49565b5b61405984828501613fee565b91505092915050565b5f6020828403121561407757614076613c45565b5b5f61408484828501613cc6565b91505092915050565b61409681613ca7565b82525050565b6140a581613e74565b82525050565b6140b481613d18565b82525050565b6140c381613c6c565b82525050565b60c082015f8201516140dd5f85018261408d565b5060208201516140f0602085018261409c565b506040820151614103604085018261409c565b50606082015161411660608501826140ab565b50608082015161412960808501826140ba565b5060a082015161413c60a08501826140ab565b50505050565b5f60c0820190506141555f8301846140c9565b92915050565b5f61417561417061416b84613c4d565b613e22565b613c4d565b9050919050565b5f6141868261415b565b9050919050565b5f6141978261417c565b9050919050565b6141a78161418d565b82525050565b5f6020820190506141c05f83018461419e565b92915050565b5f81519050919050565b5f82825260208201905092915050565b5f819050602082019050919050565b60c082015f8201516142035f85018261408d565b506020820151614216602085018261409c565b506040820151614229604085018261409c565b50606082015161423c60608501826140ab565b50608082015161424f60808501826140ba565b5060a082015161426260a08501826140ab565b50505050565b5f61427383836141ef565b60c08301905092915050565b5f602082019050919050565b5f614295826141c6565b61429f81856141d0565b93506142aa836141e0565b805f5b838110156142da5781516142c18882614268565b97506142cc8361427f565b9250506001810190506142ad565b5085935050505092915050565b5f6020820190508181035f8301526142ff818461428b565b905092915050565b5f5ffd5b5f5ffd5b61431881613dc3565b8114614322575f5ffd5b50565b5f813590506143338161430f565b92915050565b5f67ffffffffffffffff82111561435357614352613ef7565b5b61435c82613bd4565b9050602081019050919050565b5f61437b61437684614339565b613f55565b90508281526020810184848401111561439757614396613ef3565b5b6143a2848285613f9f565b509392505050565b5f82601f8301126143be576143bd613eef565b5b81356143ce848260208601614369565b91505092915050565b5f608082840312156143ec576143eb614307565b5b6143f66080613f55565b90505f61440584828501613cc6565b5f83015250602061441884828501614325565b602083015250604061442c84828501614325565b604083015250606082013567ffffffffffffffff8111156144505761444f61430b565b5b61445c848285016143aa565b60608301525092915050565b5f5f5f6060848603121561447f5761447e613c45565b5b5f61448c86828701613c93565b935050602061449d86828701613c93565b925050604084013567ffffffffffffffff8111156144be576144bd613c49565b5b6144ca868287016143d7565b9150509250925092565b6144dd81613c6c565b82525050565b5f6020820190506144f65f8301846144d4565b92915050565b61450581613ca7565b811461450f575f5ffd5b50565b5f81359050614520816144fc565b92915050565b5f5ffd5b5f5ffd5b5f5f83601f84011261454357614542613eef565b5b8235905067ffffffffffffffff8111156145605761455f614526565b5b60208301915083600182028301111561457c5761457b61452a565b5b9250929050565b5f5f5f5f5f6080868803121561459c5761459b613c45565b5b5f6145a988828901613c93565b95505060206145ba88828901613c93565b94505060406145cb88828901614512565b935050606086013567ffffffffffffffff8111156145ec576145eb613c49565b5b6145f88882890161452e565b92509250509295509295909350565b5f5f6040838503121561461d5761461c613c45565b5b5f61462a85828601613c93565b925050602083013567ffffffffffffffff81111561464b5761464a613c49565b5b614657858286016143d7565b9150509250929050565b5f5f5f5f6060858703121561467957614678613c45565b5b5f61468687828801613c93565b945050602061469787828801614512565b935050604085013567ffffffffffffffff8111156146b8576146b7613c49565b5b6146c48782880161452e565b925092505092959194509250565b5f5f604083850312156146e8576146e7613c45565b5b5f6146f585828601613c93565b925050602061470685828601613c93565b9150509250929050565b5f5f5f6060848603121561472757614726613c45565b5b5f61473486828701613c93565b935050602061474586828701613c93565b925050604061475686828701614512565b9150509250925092565b5f5f5f5f6060858703121561477857614777613c45565b5b5f61478587828801613c93565b945050602085013567ffffffffffffffff8111156147a6576147a5613c49565b5b6147b2878288016143d7565b935050604085013567ffffffffffffffff8111156147d3576147d2613c49565b5b6147df8782880161452e565b925092505092959194509250565b5f65ffffffffffff82169050919050565b614807816147ed565b8114614811575f5ffd5b50565b5f81359050614822816147fe565b92915050565b5f5f6040838503121561483e5761483d613c45565b5b5f61484b85828601613c93565b925050602061485c85828601614814565b9150509250929050565b5f5f5f5f5f6080868803121561487f5761487e613c45565b5b5f61488c88828901613c93565b955050602061489d88828901613c93565b945050604086013567ffffffffffffffff8111156148be576148bd613c49565b5b6148ca888289016143d7565b935050606086013567ffffffffffffffff8111156148eb576148ea613c49565b5b6148f78882890161452e565b92509250509295509295909350565b5f5f6040838503121561491c5761491b613c45565b5b5f61492985828601613c93565b925050602061493a85828601614512565b9150509250929050565b7f4e487b71000000000000000000000000000000000000000000000000000000005f52602260045260245ffd5b5f600282049050600182168061498857607f821691505b60208210810361499b5761499a614944565b5b50919050565b7f4e487b71000000000000000000000000000000000000000000000000000000005f52601160045260245ffd5b5f6149d882613ca7565b91506149e383613ca7565b92508282026149f181613ca7565b91508282048414831517614a0857614a076149a1565b5b5092915050565b7f4e487b71000000000000000000000000000000000000000000000000000000005f52603260045260245ffd5b614a4581613e74565b82525050565b5f602082019050614a5e5f830184614a3c565b92915050565b5f819050815f5260205f209050919050565b5f6020601f8301049050919050565b5f82821b905092915050565b5f60088302614ac07fffffffffffffffffffffffffffffffffffffffffffffffffffffffffffffffff82614a85565b614aca8683614a85565b95508019841693508086168417925050509392505050565b5f819050919050565b614af483613e2b565b614b08614b0082614ae2565b848454614a91565b825550505050565b5f5f905090565b614b1f614b10565b614b2a818484614aeb565b505050565b5b81811015614b4d57614b425f82614b17565b600181019050614b30565b5050565b601f821115614b9257614b6381614a64565b614b6c84614a76565b81016020851015614b7b578190505b614b8f614b8785614a76565b830182614b2f565b50505b505050565b5f82821c905092915050565b5f614bb25f1984600802614b97565b1980831691505092915050565b5f614bca8383614ba3565b9150826002028217905092915050565b614be382613bac565b67ffffffffffffffff811115614bfc57614bfb613ef7565b5b614c068254614971565b614c11828285614b51565b5f60209050601f831160018114614c42575f8415614c30578287015190505b614c3a8582614bbf565b865550614ca1565b601f198416614c5086614a64565b5f5b82811015614c7757848901518255600182019150602085019450602081019050614c52565b86831015614c945784890151614c90601f891682614ba3565b8355505b6001600288020188555050505b505050505050565b5f604082019050614cbc5f8301856144d4565b614cc960208301846144d4565b9392505050565b5f604082019050614ce35f830185613e4c565b614cf060208301846144d4565b9392505050565b5f604082019050614d0a5f8301856144d4565b614d176020830184613d4b565b9392505050565b5f819050919050565b5f614d41614d3c614d3784614d1e565b613e22565b613dc3565b9050919050565b614d5181614d27565b82525050565b5f604082019050614d6a5f830185614d48565b614d776020830184613d4b565b9392505050565b5f604082019050614d915f830185613dcf565b614d9e6020830184613dcf565b9392505050565b5f604082019050614db85f830185613d4b565b614dc560208301846144d4565b9392505050565b614dd581613d18565b8114614ddf575f5ffd5b50565b5f81519050614df081614dcc565b92915050565b5f60208284031215614e0b57614e0a613c45565b5b5f614e1884828501614de2565b91505092915050565b5f606082019050614e345f8301866144d4565b614e4160208301856144d4565b614e4e6040830184613d4b565b949350505050565b614e5f816147ed565b82525050565b5f602082019050614e785f830184614e56565b92915050565b5f81519050614e8c81613cb0565b92915050565b5f5f60408385031215614ea857614ea7613c45565b5b5f614eb585828601614e7e565b9250506020614ec685828601614de2565b9150509250929050565b614ed981613dc3565b82525050565b5f81519050919050565b5f82825260208201905092915050565b5f614f0382614edf565b614f0d8185614ee9565b9350614f1d818560208601613bc6565b614f2681613bd4565b840191505092915050565b5f608083015f830151614f465f86018261408d565b506020830151614f596020860182614ed0565b506040830151614f6c6040860182614ed0565b5060608301518482036060860152614f848282614ef9565b9150508091505092915050565b5f6040820190508181035f830152614fa98185614f31565b9050614fb860208301846144d4565b9392505050565b5f60208284031215614fd457614fd3613c45565b5b5f614fe184828501614e7e565b91505092915050565b5f82825260208201905092915050565b5f6150058385614fea565b9350615012838584613f9f565b61501b83613bd4565b840190509392505050565b5f6080820190506150395f8301886144d4565b61504660208301876144d4565b6150536040830186613e4c565b8181036060830152615066818486614ffa565b90509695505050505050565b61507b81613ca7565b8114615085575f5ffd5b50565b5f8151905061509681615072565b92915050565b5f602082840312156150b1576150b0613c45565b5b5f6150be84828501615088565b91505092915050565b5f61ffff82169050919050565b5f6150de826150c7565b91506150e9836150c7565b9250828201905061ffff811115615103576151026149a1565b5b92915050565b5f615113826150c7565b915061511e836150c7565b9250828203905061ffff811115615138576151376149a1565b5b92915050565b7f4e487b71000000000000000000000000000000000000000000000000000000005f52602160045260245ffd5b6020811061517c5761517b61513e565b5b50565b5f81905061518c8261516b565b919050565b5f61519b8261517f565b9050919050565b6151ab81615191565b82525050565b5f81519050919050565b5f82825260208201905092915050565b5f819050602082019050919050565b5f6151e5838361408d565b60208301905092915050565b5f602082019050919050565b5f615207826151b1565b61521181856151bb565b935061521c836151cb565b805f5b8381101561524c57815161523388826151da565b975061523e836151f1565b92505060018101905061521f565b5085935050505092915050565b5f60808201905061526c5f830187613dcf565b61527960208301866151a2565b818103604083015261528b81856151fd565b9050818103606083015261529f81846151fd565b905095945050505050565b5f6152b482613ca7565b91506152bf83613ca7565b92508282039050818111156152d7576152d66149a1565b5b92915050565b7f4e487b71000000000000000000000000000000000000000000000000000000005f52603160045260245ffd5b5f8160030b9050919050565b61531f8161530a565b82525050565b5f6020820190506153385f830184615316565b9291505056fea26469706673582212207020036b74efc313aeebb9a762fc147718547d4cc6f8a93545cc13ed937f117764736f6c634300081b0033","linkReferences":{}},"methodIdentifiers":{"allowance(address,address)":"dd62ed3e","approve(address,uint256)":"095ea7b3","balanceOf(address)":"70a08231","balanceOfIsIndicator()":"a415f269","claimAllUnwrapped()":"38bffe4a","claimUnwrapped(uint256)":"a703bd3c","confidentialBalanceOf(address)":"344ff101","confidentialTotalSupply()":"54095227","confidentialTransfer(address,(uint256,uint8,uint8,bytes))":"a794ee95","confidentialTransfer(address,uint256)":"fe3f670d","confidentialTransferAndCall(address,(uint256,uint8,uint8,bytes),bytes)":"d174999a","confidentialTransferAndCall(address,uint256,bytes)":"a9fe9959","confidentialTransferFrom(address,address,(uint256,uint8,uint8,bytes))":"7edb0e7d","confidentialTransferFrom(address,address,uint256)":"ca49d7cd","confidentialTransferFromAndCall(address,address,(uint256,uint8,uint8,bytes),bytes)":"fca114d6","confidentialTransferFromAndCall(address,address,uint256,bytes)":"9645edd4","decimals()":"313ce567","erc20()":"785e9e86","getClaim(uint256)":"5aef2447","getUserClaims(address)":"7bcb4a64","indicatorTick()":"490690f3","isFherc20()":"365ac002","isOperator(address,address)":"b6363cf2","name()":"06fdde03","owner()":"8da5cb5b","renounceOwnership()":"715018a6","resetIndicatedBalance()":"b4b20190","setOperator(address,uint48)":"d4febb96","symbol()":"95d89b41","totalSupply()":"18160ddd","transfer(address,uint256)":"a9059cbb","transferFrom(address,address,uint256)":"23b872dd","transferOwnership(address)":"f2fde38b","unwrap(address,uint64)":"4c4c029c","updateSymbol(string)":"537f5312","wrap(address,uint64)":"b8914978"},"id":3}