{"abi":[{"type":"function","name":"addEaddressMetadata","inputs":[{"name":"inAddress","type":"tuple","internalType":"struct Eaddress","components":[{"name":"ctHash","type":"uint256","internalType":"uint256"},{"name":"securityZone","type":"uint8","internalType":"uint8"},{"name":"utype","type":"uint8","internalType":"uint8"},{"name":"signature","type":"bytes","internalType":"bytes"}]}],"outputs":[],"stateMutability":"nonpayable"},{"type":"function","name":"addEboolMetadata","inputs":[{"name":"inBool","type":"tuple","internalType":"struct Ebool","components":[{"name":"ctHash","type":"uint256","internalType":"uint256"},{"name":"securityZone","type":"uint8","internalType":"uint8"},{"name":"utype","type":"uint8","internalType":"uint8"},{"name":"signature","type":"bytes","internalType":"bytes"}]}],"outputs":[],"stateMutability":"nonpayable"},{"type":"function","name":"addEuint128Metadata","inputs":[{"name":"in128","type":"tuple","internalType":"struct Euint128","components":[{"name":"ctHash","type":"uint256","internalType":"uint256"},{"name":"securityZone","type":"uint8","internalType":"uint8"},{"name":"utype","type":"uint8","internalType":"uint8"},{"name":"signature","type":"bytes","internalType":"bytes"}]}],"outputs":[],"stateMutability":"nonpayable"},{"type":"function","name":"addEuint16Metadata","inputs":[{"name":"in16","type":"tuple","internalType":"struct Euint16","components":[{"name":"ctHash","type":"uint256","internalType":"uint256"},{"name":"securityZone","type":"uint8","internalType":"uint8"},{"name":"utype","type":"uint8","internalType":"uint8"},{"name":"signature","type":"bytes","internalType":"bytes"}]}],"outputs":[],"stateMutability":"nonpayable"},{"type":"function","name":"addEuint32Metadata","inputs":[{"name":"in32","type":"tuple","internalType":"struct Euint32","components":[{"name":"ctHash","type":"uint256","internalType":"uint256"},{"name":"securityZone","type":"uint8","internalType":"uint8"},{"name":"utype","type":"uint8","internalType":"uint8"},{"name":"signature","type":"bytes","internalType":"bytes"}]}],"outputs":[],"stateMutability":"nonpayable"},{"type":"function","name":"addEuint64Metadata","inputs":[{"name":"in64","type":"tuple","internalType":"struct Euint64","components":[{"name":"ctHash","type":"uint256","internalType":"uint256"},{"name":"securityZone","type":"uint8","internalType":"uint8"},{"name":"utype","type":"uint8","internalType":"uint8"},{"name":"signature","type":"bytes","internalType":"bytes"}]}],"outputs":[],"stateMutability":"nonpayable"},{"type":"function","name":"addEuint8Metadata","inputs":[{"name":"in8","type":"tuple","internalType":"struct Euint8","components":[{"name":"ctHash","type":"uint256","internalType":"uint256"},{"name":"securityZone","type":"uint8","internalType":"uint8"},{"name":"utype","type":"uint8","internalType":"uint8"},{"name":"signature","type":"bytes","internalType":"bytes"}]}],"outputs":[],"stateMutability":"nonpayable"},{"type":"function","name":"metaMap","inputs":[{"name":"","type":"uint256","internalType":"uint256"}],"outputs":[{"name":"","type":"uint256","internalType":"uint256"}],"stateMutability":"view"},{"type":"error","name":"InvalidEncryptedInput","inputs":[{"name":"got","type":"uint8","internalType":"uint8"},{"name":"expected","type":"uint8","internalType":"uint8"}]}],"bytecode":{"object":"0x6080604052348015600e575f5ffd5b506112368061001c5f395ff3fe608060405234801561000f575f5ffd5b5060043610610086575f3560e01c80637b278400116100595780637b278400146100fa578063b034ba0c1461012a578063cf03f47c14610146578063ef738f0f1461016257610086565b8063023e9e551461008a5780633374901a146100a65780633bb0e136146100c2578063703558fd146100de575b5f5ffd5b6100a4600480360381019061009f9190610a96565b61017e565b005b6100c060048036038101906100bb9190610b6e565b6101a1565b005b6100dc60048036038101906100d79190610c46565b6101c4565b005b6100f860048036038101906100f39190610d1e565b6101f4565b005b610114600480360381019061010f9190610d65565b610217565b6040516101219190610d9f565b60405180910390f35b610144600480360381019061013f9190610e49565b61022b565b005b610160600480360381019061015b9190610f21565b61024e565b005b61017c60048036038101906101779190610ff9565b610271565b005b61018781610294565b5f5f835f015181526020019081526020015f208190555050565b6101aa81610307565b5f5f835f015181526020019081526020015f208190555050565b5f6101ce8261037a565b90506101d98261037a565b5f5f845f015181526020019081526020015f20819055505050565b6101fd816103ed565b5f5f835f015181526020019081526020015f208190555050565b5f602052805f5260405f205f915090505481565b61023481610460565b5f5f835f015181526020019081526020015f208190555050565b610257816104d3565b5f5f835f015181526020019081526020015f208190555050565b61027a81610546565b5f5f835f015181526020019081526020015f208190555050565b5f5f600390508060ff16836040015160ff16146102ee578260400151816040517f67cf30710000000000000000000000000000000000000000000000000000000081526004016102e592919061104f565b60405180910390fd5b6102ff6102fa846105b8565b6105fa565b915050919050565b5f5f600690508060ff16836040015160ff1614610361578260400151816040517f67cf307100000000000000000000000000000000000000000000000000000000815260040161035892919061104f565b60405180910390fd5b61037261036d84610691565b6105fa565b915050919050565b5f5f600290508060ff16836040015160ff16146103d4578260400151816040517f67cf30710000000000000000000000000000000000000000000000000000000081526004016103cb92919061104f565b60405180910390fd5b6103e56103e0846106d3565b6105fa565b915050919050565b5f5f600790508060ff16836040015160ff1614610447578260400151816040517f67cf307100000000000000000000000000000000000000000000000000000000815260040161043e92919061104f565b60405180910390fd5b61045861045384610715565b6105fa565b915050919050565b5f5f600590508060ff16836040015160ff16146104ba578260400151816040517f67cf30710000000000000000000000000000000000000000000000000000000081526004016104b192919061104f565b60405180910390fd5b6104cb6104c684610757565b6105fa565b915050919050565b5f5f600490508060ff16836040015160ff161461052d578260400151816040517f67cf307100000000000000000000000000000000000000000000000000000000815260040161052492919061104f565b60405180910390fd5b61053e61053984610799565b6105fa565b915050919050565b5f5f5f90508060ff16836040015160ff161461059f578260400151816040517f67cf307100000000000000000000000000000000000000000000000000000000815260040161059692919061104f565b60405180910390fd5b6105b06105ab846107db565b6105fa565b915050919050565b6105c061081c565b6040518060800160405280835f01518152602001836020015160ff168152602001600360ff16815260200183606001518152509050919050565b5f73020000000000000000000000000000000000008073ffffffffffffffffffffffffffffffffffffffff166327f9c76283336040518363ffffffff1660e01b815260040161064a929190611193565b6020604051808303815f875af1158015610666573d5f5f3e3d5ffd5b505050506040513d601f19601f8201168201806040525081019061068a91906111d5565b9050919050565b61069961081c565b6040518060800160405280835f01518152602001836020015160ff168152602001600660ff16815260200183606001518152509050919050565b6106db61081c565b6040518060800160405280835f01518152602001836020015160ff168152602001600260ff16815260200183606001518152509050919050565b61071d61081c565b6040518060800160405280835f01518152602001836020015160ff168152602001600760ff16815260200183606001518152509050919050565b61075f61081c565b6040518060800160405280835f01518152602001836020015160ff168152602001600560ff16815260200183606001518152509050919050565b6107a161081c565b6040518060800160405280835f01518152602001836020015160ff168152602001600460ff16815260200183606001518152509050919050565b6107e361081c565b6040518060800160405280835f01518152602001836020015160ff1681526020015f60ff16815260200183606001518152509050919050565b60405180608001604052805f81526020015f60ff1681526020015f60ff168152602001606081525090565b5f604051905090565b5f5ffd5b5f5ffd5b5f5ffd5b5f601f19601f8301169050919050565b7f4e487b71000000000000000000000000000000000000000000000000000000005f52604160045260245ffd5b6108a28261085c565b810181811067ffffffffffffffff821117156108c1576108c061086c565b5b80604052505050565b5f6108d3610847565b90506108df8282610899565b919050565b5f5ffd5b5f819050919050565b6108fa816108e8565b8114610904575f5ffd5b50565b5f81359050610915816108f1565b92915050565b5f60ff82169050919050565b6109308161091b565b811461093a575f5ffd5b50565b5f8135905061094b81610927565b92915050565b5f5ffd5b5f5ffd5b5f67ffffffffffffffff8211156109735761097261086c565b5b61097c8261085c565b9050602081019050919050565b828183375f83830152505050565b5f6109a96109a484610959565b6108ca565b9050828152602081018484840111156109c5576109c4610955565b5b6109d0848285610989565b509392505050565b5f82601f8301126109ec576109eb610951565b5b81356109fc848260208601610997565b91505092915050565b5f60808284031215610a1a57610a19610858565b5b610a2460806108ca565b90505f610a3384828501610907565b5f830152506020610a468482850161093d565b6020830152506040610a5a8482850161093d565b604083015250606082013567ffffffffffffffff811115610a7e57610a7d6108e4565b5b610a8a848285016109d8565b60608301525092915050565b5f60208284031215610aab57610aaa610850565b5b5f82013567ffffffffffffffff811115610ac857610ac7610854565b5b610ad484828501610a05565b91505092915050565b5f60808284031215610af257610af1610858565b5b610afc60806108ca565b90505f610b0b84828501610907565b5f830152506020610b1e8482850161093d565b6020830152506040610b328482850161093d565b604083015250606082013567ffffffffffffffff811115610b5657610b556108e4565b5b610b62848285016109d8565b60608301525092915050565b5f60208284031215610b8357610b82610850565b5b5f82013567ffffffffffffffff811115610ba057610b9f610854565b5b610bac84828501610add565b91505092915050565b5f60808284031215610bca57610bc9610858565b5b610bd460806108ca565b90505f610be384828501610907565b5f830152506020610bf68482850161093d565b6020830152506040610c0a8482850161093d565b604083015250606082013567ffffffffffffffff811115610c2e57610c2d6108e4565b5b610c3a848285016109d8565b60608301525092915050565b5f60208284031215610c5b57610c5a610850565b5b5f82013567ffffffffffffffff811115610c7857610c77610854565b5b610c8484828501610bb5565b91505092915050565b5f60808284031215610ca257610ca1610858565b5b610cac60806108ca565b90505f610cbb84828501610907565b5f830152506020610cce8482850161093d565b6020830152506040610ce28482850161093d565b604083015250606082013567ffffffffffffffff811115610d0657610d056108e4565b5b610d12848285016109d8565b60608301525092915050565b5f60208284031215610d3357610d32610850565b5b5f82013567ffffffffffffffff811115610d5057610d4f610854565b5b610d5c84828501610c8d565b91505092915050565b5f60208284031215610d7a57610d79610850565b5b5f610d8784828501610907565b91505092915050565b610d99816108e8565b82525050565b5f602082019050610db25f830184610d90565b92915050565b5f60808284031215610dcd57610dcc610858565b5b610dd760806108ca565b90505f610de684828501610907565b5f830152506020610df98482850161093d565b6020830152506040610e0d8482850161093d565b604083015250606082013567ffffffffffffffff811115610e3157610e306108e4565b5b610e3d848285016109d8565b60608301525092915050565b5f60208284031215610e5e57610e5d610850565b5b5f82013567ffffffffffffffff811115610e7b57610e7a610854565b5b610e8784828501610db8565b91505092915050565b5f60808284031215610ea557610ea4610858565b5b610eaf60806108ca565b90505f610ebe84828501610907565b5f830152506020610ed18482850161093d565b6020830152506040610ee58482850161093d565b604083015250606082013567ffffffffffffffff811115610f0957610f086108e4565b5b610f15848285016109d8565b60608301525092915050565b5f60208284031215610f3657610f35610850565b5b5f82013567ffffffffffffffff811115610f5357610f52610854565b5b610f5f84828501610e90565b91505092915050565b5f60808284031215610f7d57610f7c610858565b5b610f8760806108ca565b90505f610f9684828501610907565b5f830152506020610fa98482850161093d565b6020830152506040610fbd8482850161093d565b604083015250606082013567ffffffffffffffff811115610fe157610fe06108e4565b5b610fed848285016109d8565b60608301525092915050565b5f6020828403121561100e5761100d610850565b5b5f82013567ffffffffffffffff81111561102b5761102a610854565b5b61103784828501610f68565b91505092915050565b6110498161091b565b82525050565b5f6040820190506110625f830185611040565b61106f6020830184611040565b9392505050565b61107f816108e8565b82525050565b61108e8161091b565b82525050565b5f81519050919050565b5f82825260208201905092915050565b8281835e5f83830152505050565b5f6110c682611094565b6110d0818561109e565b93506110e08185602086016110ae565b6110e98161085c565b840191505092915050565b5f608083015f8301516111095f860182611076565b50602083015161111c6020860182611085565b50604083015161112f6040860182611085565b506060830151848203606086015261114782826110bc565b9150508091505092915050565b5f73ffffffffffffffffffffffffffffffffffffffff82169050919050565b5f61117d82611154565b9050919050565b61118d81611173565b82525050565b5f6040820190508181035f8301526111ab81856110f4565b90506111ba6020830184611184565b9392505050565b5f815190506111cf816108f1565b92915050565b5f602082840312156111ea576111e9610850565b5b5f6111f7848285016111c1565b9150509291505056fea2646970667358221220dd6e75dc1875d6d7b1459a4a1b5f5a855c279bd841b0d1a6443cc2ea82c3abe364736f6c634300081b0033","linkReferences":{}},"methodIdentifiers":{"addEaddressMetadata((uint256,uint8,uint8,bytes))":"703558fd","addEboolMetadata((uint256,uint8,uint8,bytes))":"ef738f0f","addEuint128Metadata((uint256,uint8,uint8,bytes))":"3374901a","addEuint16Metadata((uint256,uint8,uint8,bytes))":"023e9e55","addEuint32Metadata((uint256,uint8,uint8,bytes))":"cf03f47c","addEuint64Metadata((uint256,uint8,uint8,bytes))":"b034ba0c","addEuint8Metadata((uint256,uint8,uint8,bytes))":"3bb0e136","metaMap(uint256)":"7b278400"},"id":12}