{"abi":[{"type":"function","name":"onConfidentialTransferReceived","inputs":[{"name":"","type":"address","internalType":"address"},{"name":"","type":"address","internalType":"address"},{"name":"","type":"uint256","internalType":"euint64"},{"name":"data","type":"bytes","internalType":"bytes"}],"outputs":[{"name":"","type":"uint256","internalType":"ebool"}],"stateMutability":"nonpayable"},{"type":"event","name":"ConfidentialTransferCallback","inputs":[{"name":"success","type":"bool","indexed":false,"internalType":"bool"}],"anonymous":false},{"type":"error","name":"InvalidInput","inputs":[{"name":"input","type":"uint8","internalType":"uint8"}]},{"type":"error","name":"SecurityZoneOutOfBounds","inputs":[{"name":"value","type":"int32","internalType":"int32"}]}],"bytecode":{"object":"0x6080604052348015600e575f5ffd5b506109498061001c5f395ff3fe608060405234801561000f575f5ffd5b5060043610610029575f3560e01c8063944e3ddb1461002d575b5f5ffd5b610047600480360381019061004291906104de565b61005d565b604051610054919061059b565b60405180910390f35b5f5f838381019061006e91906105ea565b905060018160ff1611156100b957806040517fae58b8ae0000000000000000000000000000000000000000000000000000000081526004016100b09190610624565b60405180910390fd5b5f60018260ff161490507fd7208a261d71650939c611b2771051d71eaa3513b70ed3edaad852532f649a83816040516100f29190610657565b60405180910390a15f6101048261011f565b90506101108133610131565b80935050505095945050505050565b5f61012a825f6101b1565b9050919050565b73ea30c4b8b44078bbf8a6ef5b9f1ec1626c7848d973ffffffffffffffffffffffffffffffffffffffff16638d9c9c9283836040518363ffffffff1660e01b815260040161018092919061068e565b5f604051808303815f87803b158015610197575f5ffd5b505af11580156101a9573d5f5f3e3d5ffd5b505050505050565b5f5f5f905083156101c157600190505b5f6101cd825f866101da565b9050809250505092915050565b5f73020000000000000000000000000000000000008073ffffffffffffffffffffffffffffffffffffffff16631888debd84601a5f67ffffffffffffffff811115610228576102276106b5565b5b6040519080825280602002602001820160405280156102565781602001602082028036833780820191505090505b5061026d898960ff166102688a6102d5565b61032c565b6040518563ffffffff1660e01b815260040161028c949392919061080c565b6020604051808303815f875af11580156102a8573d5f5f3e3d5ffd5b505050506040513d601f19601f820116820180604052508101906102cc9190610887565b90509392505050565b5f5f8260030b121561031e57816040517f8f568bf800000000000000000000000000000000000000000000000000000000815260040161031591906108cd565b60405180910390fd5b8163ffffffff169050919050565b60605f600367ffffffffffffffff81111561034a576103496106b5565b5b6040519080825280602002602001820160405280156103785781602001602082028036833780820191505090505b50905084815f8151811061038f5761038e6108e6565b5b60200260200101818152505083816001815181106103b0576103af6108e6565b5b60200260200101818152505082816002815181106103d1576103d06108e6565b5b602002602001018181525050809150509392505050565b5f5ffd5b5f5ffd5b5f73ffffffffffffffffffffffffffffffffffffffff82169050919050565b5f610419826103f0565b9050919050565b6104298161040f565b8114610433575f5ffd5b50565b5f8135905061044481610420565b92915050565b5f819050919050565b61045c8161044a565b8114610466575f5ffd5b50565b5f8135905061047781610453565b92915050565b5f5ffd5b5f5ffd5b5f5ffd5b5f5f83601f84011261049e5761049d61047d565b5b8235905067ffffffffffffffff8111156104bb576104ba610481565b5b6020830191508360018202830111156104d7576104d6610485565b5b9250929050565b5f5f5f5f5f608086880312156104f7576104f66103e8565b5b5f61050488828901610436565b955050602061051588828901610436565b945050604061052688828901610469565b935050606086013567ffffffffffffffff811115610547576105466103ec565b5b61055388828901610489565b92509250509295509295909350565b5f819050919050565b5f61058561058061057b8461044a565b610562565b61044a565b9050919050565b6105958161056b565b82525050565b5f6020820190506105ae5f83018461058c565b92915050565b5f60ff82169050919050565b6105c9816105b4565b81146105d3575f5ffd5b50565b5f813590506105e4816105c0565b92915050565b5f602082840312156105ff576105fe6103e8565b5b5f61060c848285016105d6565b91505092915050565b61061e816105b4565b82525050565b5f6020820190506106375f830184610615565b92915050565b5f8115159050919050565b6106518161063d565b82525050565b5f60208201905061066a5f830184610648565b92915050565b6106798161044a565b82525050565b6106888161040f565b82525050565b5f6040820190506106a15f830185610670565b6106ae602083018461067f565b9392505050565b7f4e487b71000000000000000000000000000000000000000000000000000000005f52604160045260245ffd5b7f4e487b71000000000000000000000000000000000000000000000000000000005f52602160045260245ffd5b602081106107205761071f6106e2565b5b50565b5f8190506107308261070f565b919050565b5f61073f82610723565b9050919050565b61074f81610735565b82525050565b5f81519050919050565b5f82825260208201905092915050565b5f819050602082019050919050565b6107878161044a565b82525050565b5f610798838361077e565b60208301905092915050565b5f602082019050919050565b5f6107ba82610755565b6107c4818561075f565b93506107cf8361076f565b805f5b838110156107ff5781516107e6888261078d565b97506107f1836107a4565b9250506001810190506107d2565b5085935050505092915050565b5f60808201905061081f5f830187610615565b61082c6020830186610746565b818103604083015261083e81856107b0565b9050818103606083015261085281846107b0565b905095945050505050565b6108668161044a565b8114610870575f5ffd5b50565b5f815190506108818161085d565b92915050565b5f6020828403121561089c5761089b6103e8565b5b5f6108a984828501610873565b91505092915050565b5f8160030b9050919050565b6108c7816108b2565b82525050565b5f6020820190506108e05f8301846108be565b92915050565b7f4e487b71000000000000000000000000000000000000000000000000000000005f52603260045260245ffdfea2646970667358221220c32a342ccd7ec0d4278663886b763e91ce55a59901df17efded08209709e250e64736f6c634300081b0033","linkReferences":{}},"methodIdentifiers":{"onConfidentialTransferReceived(address,address,uint256,bytes)":"944e3ddb"},"id":13}