{"abi":[{"type":"constructor","inputs":[],"stateMutability":"nonpayable"},{"type":"function","name":"allowance","inputs":[{"name":"owner","type":"address","internalType":"address"},{"name":"spender","type":"address","internalType":"address"}],"outputs":[{"name":"","type":"uint256","internalType":"uint256"}],"stateMutability":"view"},{"type":"function","name":"approve","inputs":[{"name":"spender","type":"address","internalType":"address"},{"name":"value","type":"uint256","internalType":"uint256"}],"outputs":[{"name":"","type":"bool","internalType":"bool"}],"stateMutability":"nonpayable"},{"type":"function","name":"balanceOf","inputs":[{"name":"account","type":"address","internalType":"address"}],"outputs":[{"name":"","type":"uint256","internalType":"uint256"}],"stateMutability":"view"},{"type":"function","name":"burn","inputs":[{"name":"account","type":"address","internalType":"address"},{"name":"value","type":"uint256","internalType":"uint256"}],"outputs":[],"stateMutability":"nonpayable"},{"type":"function","name":"decimals","inputs":[],"outputs":[{"name":"","type":"uint8","internalType":"uint8"}],"stateMutability":"view"},{"type":"function","name":"deposit","inputs":[],"outputs":[],"stateMutability":"payable"},{"type":"function","name":"mint","inputs":[{"name":"account","type":"address","internalType":"address"},{"name":"value","type":"uint256","internalType":"uint256"}],"outputs":[],"stateMutability":"nonpayable"},{"type":"function","name":"name","inputs":[],"outputs":[{"name":"","type":"string","internalType":"string"}],"stateMutability":"view"},{"type":"function","name":"symbol","inputs":[],"outputs":[{"name":"","type":"string","internalType":"string"}],"stateMutability":"view"},{"type":"function","name":"totalSupply","inputs":[],"outputs":[{"name":"","type":"uint256","internalType":"uint256"}],"stateMutability":"view"},{"type":"function","name":"transfer","inputs":[{"name":"to","type":"address","internalType":"address"},{"name":"value","type":"uint256","internalType":"uint256"}],"outputs":[{"name":"","type":"bool","internalType":"bool"}],"stateMutability":"nonpayable"},{"type":"function","name":"transferFrom","inputs":[{"name":"from","type":"address","internalType":"address"},{"name":"to","type":"address","internalType":"address"},{"name":"value","type":"uint256","internalType":"uint256"}],"outputs":[{"name":"","type":"bool","internalType":"bool"}],"stateMutability":"nonpayable"},{"type":"function","name":"withdraw","inputs":[{"name":"amount","type":"uint256","internalType":"uint256"}],"outputs":[],"stateMutability":"nonpayable"},{"type":"event","name":"Approval","inputs":[{"name":"owner","type":"address","indexed":true,"internalType":"address"},{"name":"spender","type":"address","indexed":true,"internalType":"address"},{"name":"value","type":"uint256","indexed":false,"internalType":"uint256"}],"anonymous":false},{"type":"event","name":"Transfer","inputs":[{"name":"from","type":"address","indexed":true,"internalType":"address"},{"name":"to","type":"address","indexed":true,"internalType":"address"},{"name":"value","type":"uint256","indexed":false,"internalType":"uint256"}],"anonymous":false},{"type":"error","name":"ERC20InsufficientAllowance","inputs":[{"name":"spender","type":"address","internalType":"address"},{"name":"allowance","type":"uint256","internalType":"uint256"},{"name":"needed","type":"uint256","internalType":"uint256"}]},{"type":"error","name":"ERC20InsufficientBalance","inputs":[{"name":"sender","type":"address","internalType":"address"},{"name":"balance","type":"uint256","internalType":"uint256"},{"name":"needed","type":"uint256","internalType":"uint256"}]},{"type":"error","name":"ERC20InvalidApprover","inputs":[{"name":"approver","type":"address","internalType":"address"}]},{"type":"error","name":"ERC20InvalidReceiver","inputs":[{"name":"receiver","type":"address","internalType":"address"}]},{"type":"error","name":"ERC20InvalidSender","inputs":[{"name":"sender","type":"address","internalType":"address"}]},{"type":"error","name":"ERC20InvalidSpender","inputs":[{"name":"spender","type":"address","internalType":"address"}]}],"bytecode":{"object":"0x608060405234801561000f575f5ffd5b506040518060400160405280600b81526020017f57726170706564204554480000000000000000000000000000000000000000008152506040518060400160405280600481526020017f774554480000000000000000000000000000000000000000000000000000000081525060128282816003908161008f9190610301565b50806004908161009f9190610301565b5050508060055f6101000a81548160ff021916908360ff1602179055505050506103d0565b5f81519050919050565b7f4e487b71000000000000000000000000000000000000000000000000000000005f52604160045260245ffd5b7f4e487b71000000000000000000000000000000000000000000000000000000005f52602260045260245ffd5b5f600282049050600182168061013f57607f821691505b602082108103610152576101516100fb565b5b50919050565b5f819050815f5260205f209050919050565b5f6020601f8301049050919050565b5f82821b905092915050565b5f600883026101b47fffffffffffffffffffffffffffffffffffffffffffffffffffffffffffffffff82610179565b6101be8683610179565b95508019841693508086168417925050509392505050565b5f819050919050565b5f819050919050565b5f6102026101fd6101f8846101d6565b6101df565b6101d6565b9050919050565b5f819050919050565b61021b836101e8565b61022f61022782610209565b848454610185565b825550505050565b5f5f905090565b610246610237565b610251818484610212565b505050565b5b81811015610274576102695f8261023e565b600181019050610257565b5050565b601f8211156102b95761028a81610158565b6102938461016a565b810160208510156102a2578190505b6102b66102ae8561016a565b830182610256565b50505b505050565b5f82821c905092915050565b5f6102d95f19846008026102be565b1980831691505092915050565b5f6102f183836102ca565b9150826002028217905092915050565b61030a826100c4565b67ffffffffffffffff811115610323576103226100ce565b5b61032d8254610128565b610338828285610278565b5f60209050601f831160018114610369575f8415610357578287015190505b61036185826102e6565b8655506103c8565b601f19841661037786610158565b5f5b8281101561039e57848901518255600182019150602085019450602081019050610379565b868310156103bb57848901516103b7601f8916826102ca565b8355505b6001600288020188555050505b505050505050565b6110af806103dd5f395ff3fe6080604052600436106100c1575f3560e01c806340c10f191161007e5780639dc29fac116100585780639dc29fac14610271578063a9059cbb14610299578063d0e30db0146102d5578063dd62ed3e146102df576100c1565b806340c10f19146101e357806370a082311461020b57806395d89b4114610247576100c1565b806306fdde03146100c5578063095ea7b3146100ef57806318160ddd1461012b57806323b872dd146101555780632e1a7d4d14610191578063313ce567146101b9575b5f5ffd5b3480156100d0575f5ffd5b506100d961031b565b6040516100e69190610cfd565b60405180910390f35b3480156100fa575f5ffd5b5061011560048036038101906101109190610dae565b6103ab565b6040516101229190610e06565b60405180910390f35b348015610136575f5ffd5b5061013f6103cd565b60405161014c9190610e2e565b60405180910390f35b348015610160575f5ffd5b5061017b60048036038101906101769190610e47565b6103d6565b6040516101889190610e06565b60405180910390f35b34801561019c575f5ffd5b506101b760048036038101906101b29190610e97565b610404565b005b3480156101c4575f5ffd5b506101cd610455565b6040516101da9190610edd565b60405180910390f35b3480156101ee575f5ffd5b5061020960048036038101906102049190610dae565b61046a565b005b348015610216575f5ffd5b50610231600480360381019061022c9190610ef6565b610478565b60405161023e9190610e2e565b60405180910390f35b348015610252575f5ffd5b5061025b6104bd565b6040516102689190610cfd565b60405180910390f35b34801561027c575f5ffd5b5061029760048036038101906102929190610dae565b61054d565b005b3480156102a4575f5ffd5b506102bf60048036038101906102ba9190610dae565b61055b565b6040516102cc9190610e06565b60405180910390f35b6102dd61057d565b005b3480156102ea575f5ffd5b5061030560048036038101906103009190610f21565b610589565b6040516103129190610e2e565b60405180910390f35b60606003805461032a90610f8c565b80601f016020809104026020016040519081016040528092919081815260200182805461035690610f8c565b80156103a15780601f10610378576101008083540402835291602001916103a1565b820191905f5260205f20905b81548152906001019060200180831161038457829003601f168201915b5050505050905090565b5f5f6103b561060b565b90506103c2818585610612565b600191505092915050565b5f600254905090565b5f5f6103e061060b565b90506103ed858285610624565b6103f88585856106b7565b60019150509392505050565b61040e33826107a7565b3373ffffffffffffffffffffffffffffffffffffffff166108fc8290811502906040515f60405180830381858888f19350505050158015610451573d5f5f3e3d5ffd5b5050565b5f60055f9054906101000a900460ff16905090565b6104748282610826565b5050565b5f5f5f8373ffffffffffffffffffffffffffffffffffffffff1673ffffffffffffffffffffffffffffffffffffffff1681526020019081526020015f20549050919050565b6060600480546104cc90610f8c565b80601f01602080910402602001604051908101604052809291908181526020018280546104f890610f8c565b80156105435780601f1061051a57610100808354040283529160200191610543565b820191905f5260205f20905b81548152906001019060200180831161052657829003601f168201915b5050505050905090565b61055782826107a7565b5050565b5f5f61056561060b565b90506105728185856106b7565b600191505092915050565b6105873334610826565b565b5f60015f8473ffffffffffffffffffffffffffffffffffffffff1673ffffffffffffffffffffffffffffffffffffffff1681526020019081526020015f205f8373ffffffffffffffffffffffffffffffffffffffff1673ffffffffffffffffffffffffffffffffffffffff1681526020019081526020015f2054905092915050565b5f33905090565b61061f83838360016108a5565b505050565b5f61062f8484610589565b90507fffffffffffffffffffffffffffffffffffffffffffffffffffffffffffffffff8110156106b157818110156106a2578281836040517ffb8f41b200000000000000000000000000000000000000000000000000000000815260040161069993929190610fcb565b60405180910390fd5b6106b084848484035f6108a5565b5b50505050565b5f73ffffffffffffffffffffffffffffffffffffffff168373ffffffffffffffffffffffffffffffffffffffff1603610727575f6040517f96c6fd1e00000000000000000000000000000000000000000000000000000000815260040161071e9190611000565b60405180910390fd5b5f73ffffffffffffffffffffffffffffffffffffffff168273ffffffffffffffffffffffffffffffffffffffff1603610797575f6040517fec442f0500000000000000000000000000000000000000000000000000000000815260040161078e9190611000565b60405180910390fd5b6107a2838383610a74565b505050565b5f73ffffffffffffffffffffffffffffffffffffffff168273ffffffffffffffffffffffffffffffffffffffff1603610817575f6040517f96c6fd1e00000000000000000000000000000000000000000000000000000000815260040161080e9190611000565b60405180910390fd5b610822825f83610a74565b5050565b5f73ffffffffffffffffffffffffffffffffffffffff168273ffffffffffffffffffffffffffffffffffffffff1603610896575f6040517fec442f0500000000000000000000000000000000000000000000000000000000815260040161088d9190611000565b60405180910390fd5b6108a15f8383610a74565b5050565b5f73ffffffffffffffffffffffffffffffffffffffff168473ffffffffffffffffffffffffffffffffffffffff1603610915575f6040517fe602df0500000000000000000000000000000000000000000000000000000000815260040161090c9190611000565b60405180910390fd5b5f73ffffffffffffffffffffffffffffffffffffffff168373ffffffffffffffffffffffffffffffffffffffff1603610985575f6040517f94280d6200000000000000000000000000000000000000000000000000000000815260040161097c9190611000565b60405180910390fd5b8160015f8673ffffffffffffffffffffffffffffffffffffffff1673ffffffffffffffffffffffffffffffffffffffff1681526020019081526020015f205f8573ffffffffffffffffffffffffffffffffffffffff1673ffffffffffffffffffffffffffffffffffffffff1681526020019081526020015f20819055508015610a6e578273ffffffffffffffffffffffffffffffffffffffff168473ffffffffffffffffffffffffffffffffffffffff167f8c5be1e5ebec7d5bd14f71427d1e84f3dd0314c0f7b2291e5b200ac8c7c3b92584604051610a659190610e2e565b60405180910390a35b50505050565b5f73ffffffffffffffffffffffffffffffffffffffff168373ffffffffffffffffffffffffffffffffffffffff1603610ac4578060025f828254610ab89190611046565b92505081905550610b92565b5f5f5f8573ffffffffffffffffffffffffffffffffffffffff1673ffffffffffffffffffffffffffffffffffffffff1681526020019081526020015f2054905081811015610b4d578381836040517fe450d38c000000000000000000000000000000000000000000000000000000008152600401610b4493929190610fcb565b60405180910390fd5b8181035f5f8673ffffffffffffffffffffffffffffffffffffffff1673ffffffffffffffffffffffffffffffffffffffff1681526020019081526020015f2081905550505b5f73ffffffffffffffffffffffffffffffffffffffff168273ffffffffffffffffffffffffffffffffffffffff1603610bd9578060025f8282540392505081905550610c23565b805f5f8473ffffffffffffffffffffffffffffffffffffffff1673ffffffffffffffffffffffffffffffffffffffff1681526020019081526020015f205f82825401925050819055505b8173ffffffffffffffffffffffffffffffffffffffff168373ffffffffffffffffffffffffffffffffffffffff167fddf252ad1be2c89b69c2b068fc378daa952ba7f163c4a11628f55a4df523b3ef83604051610c809190610e2e565b60405180910390a3505050565b5f81519050919050565b5f82825260208201905092915050565b8281835e5f83830152505050565b5f601f19601f8301169050919050565b5f610ccf82610c8d565b610cd98185610c97565b9350610ce9818560208601610ca7565b610cf281610cb5565b840191505092915050565b5f6020820190508181035f830152610d158184610cc5565b905092915050565b5f5ffd5b5f73ffffffffffffffffffffffffffffffffffffffff82169050919050565b5f610d4a82610d21565b9050919050565b610d5a81610d40565b8114610d64575f5ffd5b50565b5f81359050610d7581610d51565b92915050565b5f819050919050565b610d8d81610d7b565b8114610d97575f5ffd5b50565b5f81359050610da881610d84565b92915050565b5f5f60408385031215610dc457610dc3610d1d565b5b5f610dd185828601610d67565b9250506020610de285828601610d9a565b9150509250929050565b5f8115159050919050565b610e0081610dec565b82525050565b5f602082019050610e195f830184610df7565b92915050565b610e2881610d7b565b82525050565b5f602082019050610e415f830184610e1f565b92915050565b5f5f5f60608486031215610e5e57610e5d610d1d565b5b5f610e6b86828701610d67565b9350506020610e7c86828701610d67565b9250506040610e8d86828701610d9a565b9150509250925092565b5f60208284031215610eac57610eab610d1d565b5b5f610eb984828501610d9a565b91505092915050565b5f60ff82169050919050565b610ed781610ec2565b82525050565b5f602082019050610ef05f830184610ece565b92915050565b5f60208284031215610f0b57610f0a610d1d565b5b5f610f1884828501610d67565b91505092915050565b5f5f60408385031215610f3757610f36610d1d565b5b5f610f4485828601610d67565b9250506020610f5585828601610d67565b9150509250929050565b7f4e487b71000000000000000000000000000000000000000000000000000000005f52602260045260245ffd5b5f6002820490506001821680610fa357607f821691505b602082108103610fb657610fb5610f5f565b5b50919050565b610fc581610d40565b82525050565b5f606082019050610fde5f830186610fbc565b610feb6020830185610e1f565b610ff86040830184610e1f565b949350505050565b5f6020820190506110135f830184610fbc565b92915050565b7f4e487b71000000000000000000000000000000000000000000000000000000005f52601160045260245ffd5b5f61105082610d7b565b915061105b83610d7b565b925082820190508082111561107357611072611019565b5b9291505056fea264697066735822122099031476fde8920f4ee3a58de2cb87f20196023c8d1ba6ce829eb929854353a064736f6c634300081b0033","linkReferences":{}},"methodIdentifiers":{"allowance(address,address)":"dd62ed3e","approve(address,uint256)":"095ea7b3","balanceOf(address)":"70a08231","burn(address,uint256)":"9dc29fac","decimals()":"313ce567","deposit()":"d0e30db0","mint(address,uint256)":"40c10f19","name()":"06fdde03","symbol()":"95d89b41","totalSupply()":"18160ddd","transfer(address,uint256)":"a9059cbb","transferFrom(address,address,uint256)":"23b872dd","withdraw(uint256)":"2e1a7d4d"},"id":9}