{"abi":[{"type":"constructor","inputs":[{"name":"_asset","type":"address","internalType":"address"}],"stateMutability":"nonpayable"},{"type":"function","name":"asset","inputs":[],"outputs":[{"name":"","type":"address","internalType":"contract FHERC20"}],"stateMutability":"view"},{"type":"function","name":"balances","inputs":[{"name":"","type":"address","internalType":"address"}],"outputs":[{"name":"","type":"uint256","internalType":"euint64"}],"stateMutability":"view"},{"type":"function","name":"deposit","inputs":[{"name":"inAmount","type":"tuple","internalType":"struct Euint64","components":[{"name":"ctHash","type":"uint256","internalType":"uint256"},{"name":"securityZone","type":"uint8","internalType":"uint8"},{"name":"utype","type":"uint8","internalType":"uint8"},{"name":"signature","type":"bytes","internalType":"bytes"}]}],"outputs":[],"stateMutability":"nonpayable"},{"type":"function","name":"withdraw","inputs":[{"name":"inAmount","type":"tuple","internalType":"struct Euint64","components":[{"name":"ctHash","type":"uint256","internalType":"uint256"},{"name":"securityZone","type":"uint8","internalType":"uint8"},{"name":"utype","type":"uint8","internalType":"uint8"},{"name":"signature","type":"bytes","internalType":"bytes"}]}],"outputs":[],"stateMutability":"nonpayable"},{"type":"error","name":"InvalidEncryptedInput","inputs":[{"name":"got","type":"uint8","internalType":"uint8"},{"name":"expected","type":"uint8","internalType":"uint8"}]},{"type":"error","name":"SecurityZoneOutOfBounds","inputs":[{"name":"value","type":"int32","internalType":"int32"}]}],"bytecode":{"object":"0x60a060405234801561000f575f5ffd5b5060405161164738038061164783398181016040528101906100319190610137565b5f73ffffffffffffffffffffffffffffffffffffffff168173ffffffffffffffffffffffffffffffffffffffff160361009f576040517f08c379a0000000000000000000000000000000000000000000000000000000008152600401610096906101bc565b60405180910390fd5b8073ffffffffffffffffffffffffffffffffffffffff1660808173ffffffffffffffffffffffffffffffffffffffff1681525050506101da565b5f5ffd5b5f73ffffffffffffffffffffffffffffffffffffffff82169050919050565b5f610106826100dd565b9050919050565b610116816100fc565b8114610120575f5ffd5b50565b5f815190506101318161010d565b92915050565b5f6020828403121561014c5761014b6100d9565b5b5f61015984828501610123565b91505092915050565b5f82825260208201905092915050565b7f496e76616c6964206173736574000000000000000000000000000000000000005f82015250565b5f6101a6600d83610162565b91506101b182610172565b602082019050919050565b5f6020820190508181035f8301526101d38161019a565b9050919050565b6080516114486101ff5f395f818160ea015281816101cc01526101f301526114485ff3fe608060405234801561000f575f5ffd5b506004361061004a575f3560e01c806327e235e31461004e57806338d52e0f1461007e57806369671bcd1461009c578063a8bbcc07146100b8575b5f5ffd5b61006860048036038101906100639190610c54565b6100d4565b6040516100759190610cc1565b60405180910390f35b6100866100e8565b6040516100939190610d2c565b60405180910390f35b6100b660048036038101906100b19190610d67565b61010c565b005b6100d260048036038101906100cd9190610d67565b6101b1565b005b5f602052805f5260405f205f915090505481565b7f000000000000000000000000000000000000000000000000000000000000000081565b5f61011f8261011a90610fe3565b610321565b90505f6101685f5f3373ffffffffffffffffffffffffffffffffffffffff1673ffffffffffffffffffffffffffffffffffffffff1681526020019081526020015f205483610394565b915050805f5f3373ffffffffffffffffffffffffffffffffffffffff1673ffffffffffffffffffffffffffffffffffffffff1681526020019081526020015f2081905550505050565b5f6101c4826101bf90610fe3565b610321565b90506101f0817f00000000000000000000000000000000000000000000000000000000000000006103bf565b5f7f000000000000000000000000000000000000000000000000000000000000000073ffffffffffffffffffffffffffffffffffffffff1663ca49d7cd3330856040518463ffffffff1660e01b815260040161024e93929190611004565b6020604051808303815f875af115801561026a573d5f5f3e3d5ffd5b505050506040513d601f19601f8201168201806040525081019061028e9190611063565b90505f6102d75f5f3373ffffffffffffffffffffffffffffffffffffffff1673ffffffffffffffffffffffffffffffffffffffff1681526020019081526020015f20548361043f565b915050805f5f3373ffffffffffffffffffffffffffffffffffffffff1673ffffffffffffffffffffffffffffffffffffffff1681526020019081526020015f208190555050505050565b5f5f600590508060ff16836040015160ff161461037b578260400151816040517f67cf307100000000000000000000000000000000000000000000000000000000815260040161037292919061109d565b60405180910390fd5b61038c6103878461048b565b6104cd565b915050919050565b5f5f6103a08484610564565b91506103b6826103b086866105ad565b866105f6565b90509250929050565b73ea30c4b8b44078bbf8a6ef5b9f1ec1626c7848d973ffffffffffffffffffffffffffffffffffffffff166365d0509c83836040518363ffffffff1660e01b815260040161040e9291906110d3565b5f604051808303815f87803b158015610425575f5ffd5b505af1158015610437573d5f5f3e3d5ffd5b505050505050565b5f5f5f840361045c576104526001610658565b9150829050610484565b5f610467858561066a565b90506104738186610564565b92506104808382876105f6565b9150505b9250929050565b610493610bbe565b6040518060800160405280835f01518152602001836020015160ff168152602001600560ff16815260200183606001518152509050919050565b5f73020000000000000000000000000000000000008073ffffffffffffffffffffffffffffffffffffffff166327f9c76283336040518363ffffffff1660e01b815260040161051d9291906111d8565b6020604051808303815f875af1158015610539573d5f5f3e3d5ffd5b505050506040513d601f19601f8201168201806040525081019061055d919061121a565b9050919050565b5f61056e836106b3565b61057e5761057b5f6106c4565b92505b610587826106b3565b610597576105945f6106c4565b91505b6105a56005848460126106d6565b905092915050565b5f6105b7836106b3565b6105c7576105c45f6106c4565b92505b6105d0826106b3565b6105e0576105dd5f6106c4565b91505b6105ee6005848460076106d6565b905092915050565b5f610600846107c5565b6106105761060d5f610658565b93505b610619836106b3565b610629576106265f6106c4565b92505b610632826106b3565b6106425761063f5f6106c4565b91505b61064f60058585856107d6565b90509392505050565b5f610663825f6108c7565b9050919050565b5f610674836106b3565b610684576106815f6106c4565b92505b61068d826106b3565b61069d5761069a5f6106c4565b91505b6106ab6005848460086106d6565b905092915050565b5f6106bd826108f0565b9050919050565b5f6106cf825f6108fc565b9050919050565b5f73020000000000000000000000000000000000008073ffffffffffffffffffffffffffffffffffffffff16631888debd86846107138888610916565b5f67ffffffffffffffff81111561072d5761072c610dc2565b5b60405190808252806020026020018201604052801561075b5781602001602082028036833780820191505090505b506040518563ffffffff1660e01b815260040161077b9493929190611360565b6020604051808303815f875af1158015610797573d5f5f3e3d5ffd5b505050506040513d601f19601f820116820180604052508101906107bb919061121a565b9050949350505050565b5f6107cf826108f0565b9050919050565b5f73020000000000000000000000000000000000008073ffffffffffffffffffffffffffffffffffffffff16631888debd8660046108158888886109b0565b5f67ffffffffffffffff81111561082f5761082e610dc2565b5b60405190808252806020026020018201604052801561085d5781602001602082028036833780820191505090505b506040518563ffffffff1660e01b815260040161087d9493929190611360565b6020604051808303815f875af1158015610899573d5f5f3e3d5ffd5b505050506040513d601f19601f820116820180604052508101906108bd919061121a565b9050949350505050565b5f5f5f905083156108d757600190505b5f6108e3825f86610a6c565b9050809250505092915050565b5f5f8214159050919050565b5f5f61090a84600585610a6c565b90508091505092915050565b60605f600267ffffffffffffffff81111561093457610933610dc2565b5b6040519080825280602002602001820160405280156109625781602001602082028036833780820191505090505b50905083815f81518110610979576109786113b1565b5b602002602001018181525050828160018151811061099a576109996113b1565b5b6020026020010181815250508091505092915050565b60605f600367ffffffffffffffff8111156109ce576109cd610dc2565b5b6040519080825280602002602001820160405280156109fc5781602001602082028036833780820191505090505b50905084815f81518110610a1357610a126113b1565b5b6020026020010181815250508381600181518110610a3457610a336113b1565b5b6020026020010181815250508281600281518110610a5557610a546113b1565b5b602002602001018181525050809150509392505050565b5f73020000000000000000000000000000000000008073ffffffffffffffffffffffffffffffffffffffff16631888debd84601a5f67ffffffffffffffff811115610aba57610ab9610dc2565b5b604051908082528060200260200182016040528015610ae85781602001602082028036833780820191505090505b50610aff898960ff16610afa8a610b67565b6109b0565b6040518563ffffffff1660e01b8152600401610b1e9493929190611360565b6020604051808303815f875af1158015610b3a573d5f5f3e3d5ffd5b505050506040513d601f19601f82011682018060405250810190610b5e919061121a565b90509392505050565b5f5f8260030b1215610bb057816040517f8f568bf8000000000000000000000000000000000000000000000000000000008152600401610ba791906113f9565b60405180910390fd5b8163ffffffff169050919050565b60405180608001604052805f81526020015f60ff1681526020015f60ff168152602001606081525090565b5f604051905090565b5f5ffd5b5f5ffd5b5f73ffffffffffffffffffffffffffffffffffffffff82169050919050565b5f610c2382610bfa565b9050919050565b610c3381610c19565b8114610c3d575f5ffd5b50565b5f81359050610c4e81610c2a565b92915050565b5f60208284031215610c6957610c68610bf2565b5b5f610c7684828501610c40565b91505092915050565b5f819050919050565b5f819050919050565b5f610cab610ca6610ca184610c7f565b610c88565b610c7f565b9050919050565b610cbb81610c91565b82525050565b5f602082019050610cd45f830184610cb2565b92915050565b5f610cf4610cef610cea84610bfa565b610c88565b610bfa565b9050919050565b5f610d0582610cda565b9050919050565b5f610d1682610cfb565b9050919050565b610d2681610d0c565b82525050565b5f602082019050610d3f5f830184610d1d565b92915050565b5f5ffd5b5f60808284031215610d5e57610d5d610d45565b5b81905092915050565b5f60208284031215610d7c57610d7b610bf2565b5b5f82013567ffffffffffffffff811115610d9957610d98610bf6565b5b610da584828501610d49565b91505092915050565b5f5ffd5b5f601f19601f8301169050919050565b7f4e487b71000000000000000000000000000000000000000000000000000000005f52604160045260245ffd5b610df882610db2565b810181811067ffffffffffffffff82111715610e1757610e16610dc2565b5b80604052505050565b5f610e29610be9565b9050610e358282610def565b919050565b5f5ffd5b610e4781610c7f565b8114610e51575f5ffd5b50565b5f81359050610e6281610e3e565b92915050565b5f60ff82169050919050565b610e7d81610e68565b8114610e87575f5ffd5b50565b5f81359050610e9881610e74565b92915050565b5f5ffd5b5f5ffd5b5f67ffffffffffffffff821115610ec057610ebf610dc2565b5b610ec982610db2565b9050602081019050919050565b828183375f83830152505050565b5f610ef6610ef184610ea6565b610e20565b905082815260208101848484011115610f1257610f11610ea2565b5b610f1d848285610ed6565b509392505050565b5f82601f830112610f3957610f38610e9e565b5b8135610f49848260208601610ee4565b91505092915050565b5f60808284031215610f6757610f66610dae565b5b610f716080610e20565b90505f610f8084828501610e54565b5f830152506020610f9384828501610e8a565b6020830152506040610fa784828501610e8a565b604083015250606082013567ffffffffffffffff811115610fcb57610fca610e3a565b5b610fd784828501610f25565b60608301525092915050565b5f610fee3683610f52565b9050919050565b610ffe81610c19565b82525050565b5f6060820190506110175f830186610ff5565b6110246020830185610ff5565b6110316040830184610cb2565b949350505050565b61104281610c7f565b811461104c575f5ffd5b50565b5f8151905061105d81611039565b92915050565b5f6020828403121561107857611077610bf2565b5b5f6110858482850161104f565b91505092915050565b61109781610e68565b82525050565b5f6040820190506110b05f83018561108e565b6110bd602083018461108e565b9392505050565b6110cd81610c7f565b82525050565b5f6040820190506110e65f8301856110c4565b6110f36020830184610ff5565b9392505050565b61110381610c7f565b82525050565b61111281610e68565b82525050565b5f81519050919050565b5f82825260208201905092915050565b8281835e5f83830152505050565b5f61114a82611118565b6111548185611122565b9350611164818560208601611132565b61116d81610db2565b840191505092915050565b5f608083015f83015161118d5f8601826110fa565b5060208301516111a06020860182611109565b5060408301516111b36040860182611109565b50606083015184820360608601526111cb8282611140565b9150508091505092915050565b5f6040820190508181035f8301526111f08185611178565b90506111ff6020830184610ff5565b9392505050565b5f8151905061121481610e3e565b92915050565b5f6020828403121561122f5761122e610bf2565b5b5f61123c84828501611206565b91505092915050565b7f4e487b71000000000000000000000000000000000000000000000000000000005f52602160045260245ffd5b6020811061128357611282611245565b5b50565b5f81905061129382611272565b919050565b5f6112a282611286565b9050919050565b6112b281611298565b82525050565b5f81519050919050565b5f82825260208201905092915050565b5f819050602082019050919050565b5f6112ec83836110fa565b60208301905092915050565b5f602082019050919050565b5f61130e826112b8565b61131881856112c2565b9350611323836112d2565b805f5b8381101561135357815161133a88826112e1565b9750611345836112f8565b925050600181019050611326565b5085935050505092915050565b5f6080820190506113735f83018761108e565b61138060208301866112a9565b81810360408301526113928185611304565b905081810360608301526113a68184611304565b905095945050505050565b7f4e487b71000000000000000000000000000000000000000000000000000000005f52603260045260245ffd5b5f8160030b9050919050565b6113f3816113de565b82525050565b5f60208201905061140c5f8301846113ea565b9291505056fea26469706673582212209bd199c77db8c4d16e19611be73fdb70d77ea3e32b7bac8ae84dc36168cd7c2664736f6c634300081b0033","linkReferences":{}},"methodIdentifiers":{"asset()":"38d52e0f","balances(address)":"27e235e3","deposit((uint256,uint8,uint8,bytes))":"a8bbcc07","withdraw((uint256,uint8,uint8,bytes))":"69671bcd"},"id":15}