{"abi":[{"type":"constructor","inputs":[{"name":"fherc20_","type":"address","internalType":"address"}],"stateMutability":"nonpayable"},{"type":"function","name":"deposit","inputs":[{"name":"inValue","type":"tuple","internalType":"struct Euint64","components":[{"name":"ctHash","type":"uint256","internalType":"uint256"},{"name":"securityZone","type":"uint8","internalType":"uint8"},{"name":"utype","type":"uint8","internalType":"uint8"},{"name":"signature","type":"bytes","internalType":"bytes"}]}],"outputs":[],"stateMutability":"nonpayable"},{"type":"function","name":"fherc20","inputs":[],"outputs":[{"name":"","type":"address","internalType":"contract IFHERC20"}],"stateMutability":"view"},{"type":"error","name":"InvalidEncryptedInput","inputs":[{"name":"got","type":"uint8","internalType":"uint8"},{"name":"expected","type":"uint8","internalType":"uint8"}]}],"bytecode":{"object":"0x608060405234801561000f575f5ffd5b50604051610a61380380610a61833981810160405281019061003191906100d4565b805f5f6101000a81548173ffffffffffffffffffffffffffffffffffffffff021916908373ffffffffffffffffffffffffffffffffffffffff160217905550506100ff565b5f5ffd5b5f73ffffffffffffffffffffffffffffffffffffffff82169050919050565b5f6100a38261007a565b9050919050565b6100b381610099565b81146100bd575f5ffd5b50565b5f815190506100ce816100aa565b92915050565b5f602082840312156100e9576100e8610076565b5b5f6100f6848285016100c0565b91505092915050565b6109558061010c5f395ff3fe608060405234801561000f575f5ffd5b5060043610610034575f3560e01c8063a8bbcc0714610038578063f5d7146514610054575b5f5ffd5b610052600480360381019061004d91906105b4565b610072565b005b61005c61014a565b6040516100699190610675565b60405180910390f35b5f61007c8261016e565b90506100a8815f5f9054906101000a900473ffffffffffffffffffffffffffffffffffffffff166101e1565b5f5f9054906101000a900473ffffffffffffffffffffffffffffffffffffffff1673ffffffffffffffffffffffffffffffffffffffff1663ca49d7cd3330846040518463ffffffff1660e01b8152600401610105939291906106de565b6020604051808303815f875af1158015610121573d5f5f3e3d5ffd5b505050506040513d601f19601f82011682018060405250810190610145919061073d565b505050565b5f5f9054906101000a900473ffffffffffffffffffffffffffffffffffffffff1681565b5f5f600590508060ff16836040015160ff16146101c8578260400151816040517f67cf30710000000000000000000000000000000000000000000000000000000081526004016101bf929190610777565b60405180910390fd5b6101d96101d484610261565b6102a3565b915050919050565b73ea30c4b8b44078bbf8a6ef5b9f1ec1626c7848d973ffffffffffffffffffffffffffffffffffffffff166365d0509c83836040518363ffffffff1660e01b81526004016102309291906107ad565b5f604051808303815f87803b158015610247575f5ffd5b505af1158015610259573d5f5f3e3d5ffd5b505050505050565b61026961033a565b6040518060800160405280835f01518152602001836020015160ff168152602001600560ff16815260200183606001518152509050919050565b5f73020000000000000000000000000000000000008073ffffffffffffffffffffffffffffffffffffffff166327f9c76283336040518363ffffffff1660e01b81526004016102f39291906108b2565b6020604051808303815f875af115801561030f573d5f5f3e3d5ffd5b505050506040513d601f19601f8201168201806040525081019061033391906108f4565b9050919050565b60405180608001604052805f81526020015f60ff1681526020015f60ff168152602001606081525090565b5f604051905090565b5f5ffd5b5f5ffd5b5f5ffd5b5f601f19601f8301169050919050565b7f4e487b71000000000000000000000000000000000000000000000000000000005f52604160045260245ffd5b6103c08261037a565b810181811067ffffffffffffffff821117156103df576103de61038a565b5b80604052505050565b5f6103f1610365565b90506103fd82826103b7565b919050565b5f5ffd5b5f819050919050565b61041881610406565b8114610422575f5ffd5b50565b5f813590506104338161040f565b92915050565b5f60ff82169050919050565b61044e81610439565b8114610458575f5ffd5b50565b5f8135905061046981610445565b92915050565b5f5ffd5b5f5ffd5b5f67ffffffffffffffff8211156104915761049061038a565b5b61049a8261037a565b9050602081019050919050565b828183375f83830152505050565b5f6104c76104c284610477565b6103e8565b9050828152602081018484840111156104e3576104e2610473565b5b6104ee8482856104a7565b509392505050565b5f82601f83011261050a5761050961046f565b5b813561051a8482602086016104b5565b91505092915050565b5f6080828403121561053857610537610376565b5b61054260806103e8565b90505f61055184828501610425565b5f8301525060206105648482850161045b565b60208301525060406105788482850161045b565b604083015250606082013567ffffffffffffffff81111561059c5761059b610402565b5b6105a8848285016104f6565b60608301525092915050565b5f602082840312156105c9576105c861036e565b5b5f82013567ffffffffffffffff8111156105e6576105e5610372565b5b6105f284828501610523565b91505092915050565b5f73ffffffffffffffffffffffffffffffffffffffff82169050919050565b5f819050919050565b5f61063d610638610633846105fb565b61061a565b6105fb565b9050919050565b5f61064e82610623565b9050919050565b5f61065f82610644565b9050919050565b61066f81610655565b82525050565b5f6020820190506106885f830184610666565b92915050565b5f610698826105fb565b9050919050565b6106a88161068e565b82525050565b5f6106c86106c36106be84610406565b61061a565b610406565b9050919050565b6106d8816106ae565b82525050565b5f6060820190506106f15f83018661069f565b6106fe602083018561069f565b61070b60408301846106cf565b949350505050565b61071c81610406565b8114610726575f5ffd5b50565b5f8151905061073781610713565b92915050565b5f602082840312156107525761075161036e565b5b5f61075f84828501610729565b91505092915050565b61077181610439565b82525050565b5f60408201905061078a5f830185610768565b6107976020830184610768565b9392505050565b6107a781610406565b82525050565b5f6040820190506107c05f83018561079e565b6107cd602083018461069f565b9392505050565b6107dd81610406565b82525050565b6107ec81610439565b82525050565b5f81519050919050565b5f82825260208201905092915050565b8281835e5f83830152505050565b5f610824826107f2565b61082e81856107fc565b935061083e81856020860161080c565b6108478161037a565b840191505092915050565b5f608083015f8301516108675f8601826107d4565b50602083015161087a60208601826107e3565b50604083015161088d60408601826107e3565b50606083015184820360608601526108a5828261081a565b9150508091505092915050565b5f6040820190508181035f8301526108ca8185610852565b90506108d9602083018461069f565b9392505050565b5f815190506108ee8161040f565b92915050565b5f602082840312156109095761090861036e565b5b5f610916848285016108e0565b9150509291505056fea2646970667358221220a63016e4cd77f1eeb02032d8693f06d80308d438e4c552d4dda4fc35c239499e64736f6c634300081b0033","linkReferences":{}},"methodIdentifiers":{"deposit((uint256,uint8,uint8,bytes))":"a8bbcc07","fherc20()":"f5d71465"},"id":14}